:020000040800F2
:100000001897002031030008E7670008AD49000891
:10001000E5670008A91300086192000800000000CD
:100020000000000000000000000000007102000855
:10003000D51A000800000000CD0200081572000863
:100040004B0300084B0300084B0300084B03000858
:100050004B0300084B030008D71A00084B030008A5
:100060004B030008DD1A0008E31A00084B030008E0
:10007000751800084B0300084B0300084B030008E9
:100080004B0300084B0300084B030008C51300088E
:10009000B91300084B0300084B030008E91A0008D5
:1000A0004B0300084B0300084B0300084B030008F8
:1000B000E57200084B0300084B0300084B030008DF
:1000C0004B0300084B0300084B0300084B030008D8
:1000D0004B0300084B0300084B0300080977000896
:1000E0004B0300084B0300084B0300084B030008B8
:1000F0004B0300084B0300084B0300084B030008A8
:100100004B0300084B0300084B0300084B03000897
:100110004B0300084B0300084B0300084B03000887
:100120004B0300084B030008811800088D180008D5
:100130004B0300084B0300084B030008DD130008C5
:10014000D11300084B0300084B030008216A000884
:100150004B0300084B0300084B0300084B03000847
:100160004B0300084B0300084B0300084B03000837
:100170004B0300084B0300084B030008000000007D
:100180004B0300084B03000800F002F800F060F891
:100190000AA090E8000C82448344AAF10107DA45E2
:1001A00001D100F055F8AFF2090EBAE80F0013F0D4
:1001B000010F18BFFB1A43F001031847A0D6000037
:1001C000C0D600000A444FF0000C10F8013B13F0B9
:1001D000070408BF10F8014B1D1108BF10F8015BA0
:1001E000641E05D010F8016B641E01F8016BF9D193
:1001F00013F0080F1EBF10F8014BAD1C0C1B09D1EA
:100200006D1E58BF01F801CBFAD505E014F8016B5B
:1002100001F8016B6D1EF9D59142D6D370470000ED
:100220000023002400250026103A28BF78C1FBD8FF
:10023000520728BF30C148BF0B6070471FB50CF094
:100240009AFD9DE8030000F0F7F91FBD10B510BD41
:1002500000F084FA1146FFF7F1FF0BF041FA00F0CD
:10026000A2FA03B4FFF7F2FF03BC00F0D3FA0000D8
:100270002C4B19680868B0E8F04F80F30988BFF389
:100280006F8F4FF0000080F311887047000000006E
:1002900008480068006880F308884FF0000080F389
:1002A000148862B661B6BFF34F8FBFF36F8F00DF64
:1002B00000BF00BF08ED00E0DFF80C00016841F46A
:1002C00070010160704700BF88ED00E0EFF3098026
:1002D000BFF36F8F134B1A681EF0100F08BF20ED8D
:1002E000108A20E9F04F106009B44FF0500080F3FD
:1002F0001188BFF34F8FBFF36F8F0CF099F84FF059
:10030000000080F3118809BC19680868B0E8F04F54
:100310001EF0100F08BFB0EC108A80F30988BFF3FD
:100320006F8F704770040020EFF305807047000066
:100330000948804709480047FEE7FEE7FEE7FEE779
:10034000FEE7FEE7FEE7FEE7FEE7FEE704480549B5
:10035000054A064B70470000D57200088901000865
:100360001877002018970020188700201887002091
:1003700070B5064600F044F9056806F10B0020F060
:100380000704B4429CBF002070BD2B466A68BAB116
:100390001068A04210D304F1080188423CBF5068A5
:1003A000586007D35168101941601168091B01603A
:1003B00058601460101D70BD13465268002AE7D1C2
:1003C0002146284600F024F90028DED170BD53EA0A
:1003D000020C00F069802DE9F04B4FF00006002B75
:1003E0001FBFB3FA83F503FA05F424FA05F65E405D
:1003F00012BF1643B2FA82F502FA05F4C5F12005E0
:100400001EBF22FA05FC44EA0C04203556EA044CCF
:100410004FEA144418BF641C4FF000084FF0000965
:10042000904271EB030C39D3002919BFB1FA81F75F
:1004300001FA07F6B0FA80F700FA07F6C7F12007CD
:100440001EBF20FA07FC46EA0C062037B6FBF4FC78
:10045000A7EB0507103F07F01F0BCBF120060CFAA6
:100460000BFB2CFA06F644BFB3460026202FA4BF90
:100470005E464FF0000B5BEA060C08BF4FF0010B25
:1004800019EB0B09ABFB027C48EB0608C01B06FB13
:1004900002CC0BFB03CC71EB0C01C1E70B4602460F
:1004A00041464846BDE8F08B13B54FF000004FF0D1
:1004B0000001AFF30080BDE81C40704740EA010333
:1004C000024630B59B0710D14FF0013400E008C25E
:1004D00008C91D1B9D4315EAC41FF8D013F0FF0186
:1004E00002F8011B0DD01B0AF8E711F8013B002BA5
:1004F00002F8013B05D011F8013B002B02F8013B4B
:10050000F3D130BD10B5203AC0F00B80B1E81850DF
:10051000203AA0E81850B1E81850A0E81850BFF4ED
:10052000F5AF5FEA027C24BFB1E81850A0E818508C
:1005300044BF18C918C0BDE810405FEA827C24BFE0
:1005400051F8043B40F8043B08BF7047D20728BF6E
:1005500031F8023B48BF11F8012B28BF20F8023BBD
:1005600048BF00F8012B70474FF000020429C0F08B
:10057000128010F0030C00F01B80CCF1040CBCF1D5
:10058000020F18BF00F8012BA8BF20F8022BA1EB27
:100590000C0100F00DB85FEAC17C24BF00F8012B0C
:1005A00000F8012B48BF00F8012B70474FF0000204
:1005B00000B5134694469646203922BFA0E80C5059
:1005C000A0E80C50B1F12001BFF4F7AF090728BF34
:1005D000A0E80C5048BF0CC05DF804EB890028BFB0
:1005E00040F8042B08BF704748BF20F8022B11F0D9
:1005F000804F18BF00F8012B704770477047704755
:1006000000487047BC7600207047704770477047BD
:1006100038B504460A4600206946AFF3008000283A
:1006200008BF38BD02460099204600F075F8012049
:1006300038BD012000F08AB8F8B5AFF30080054658
:1006400000200C46102000BF0646A819A0420DD974
:10065000324669460020AFF30080070008BF00F073
:1006600075F80098A04218BF0546C419FFF7C8FFE7
:1006700005600746F01D20F007004619284600F0E7
:100680000AF8B44208BFF8BDA21B31463868BDE87D
:10069000F84000F041B800210160C0E90110704746
:1006A0001020704770B50446051FFFF7A9FF0068CA
:1006B000002C14BF446870BD002C18BFAC423CBF76
:1006C00020466468F8D301680A18AA4218BF45603A
:1006D00003D12A6805461144016028684119A142E6
:1006E0001CBF6C6070BD6168696021680844286047
:1006F00070BD10B500F00CF8006810BD10B50446D0
:1007000000F006F8046010BD00487047B476002081
:1007100000487047B4760020034640688C460028A5
:1007200018BF88423CBF03464068F8D31868184495
:10073000884207D00CF1030020F00700001D411A89
:10074000521A0146081D0A60FFF7ACBF10B500F051
:1007500039F8BDE8104000F02FB870477546FFF734
:10076000D3FFAE4605006946534620F00700854694
:1007700018B020B5FFF7EAFDBDE820404FF00006B5
:100780004FF000074FF000084FF0000B21F0070179
:10079000AC46ACE8C009ACE8C009ACE8C009ACE8BC
:1007A000C0098D46704710B50446AFF3008020465F
:1007B000BDE81040FFF755BD002801D000F02AB871
:1007C0007047000010B5012805D0002103A000F0FB
:1007D00027F8012010BD09A1F8E70000534947524E
:1007E000544D454D3A204F7574206F662068656101
:1007F00070206D656D6F7279000000003A204865C9
:100800006170206D656D6F727920636F72727570A3
:100810007465640001491820ABBEFEE726000200A3
:1008200070B505460C460A2000E06D1C00F011F87A
:1008300035B128780028F8D102E0641C00F009F8EE
:1008400014B120780028F8D1BDE870400A20AFF339
:10085000008008B569468DF800000320ABBE08BDD6
:10086000F0B581B04FF68311C3F622610CF034FA73
:100870004FF07A510CF084F904460CF0E1F905468A
:100880002046002100270CF0A7F9002818BF013DE1
:1008900028460CF0E3F9014620460CF071FA4FF0BF
:1008A00088410CF019FA05460CF0D1F904462846A7
:1008B0004FF044410CF064F90646B7EB542F0CBFDF
:1008C0002E46002420460CF0D0F9014630460CF0AC
:1008D00057FA05464FF07E5029460CF051FA4DF27A
:1008E0005807C0F6000757F824100CF0F5F9064633
:1008F00007EB8400416828460CF0EEF901463046CB
:100900000CF03EF901B0F0BD2DE9F04103880F88ED
:10091000BB423FD147884E88B7423BD11688B3428D
:1009200038D15688B74235D1466854684D6807FBC0
:1009300003F80020B0EB980F1BD04FEA9800474215
:10094000306829680CF01CF92060706869680CF048
:1009500017F96060B068A9680CF012F9A060F0683F
:10096000E9680CF00DF9E0601034103510360137ED
:10097000E6D118F003000BD0474200BF56F8040B35
:1009800055F8041B0CF0FCF844F8040B0137F5D1C2
:10099000002000E0FD2040B2BDE8F08143604280CD
:1009A000018070472DE9F04F93B0B0F802A0B0F885
:1009B00000B0D34540F05D810A88FD25934540F0A5
:1009C00059814B889A4240F055814768BBF1000F2E
:1009D00000F039814C686FF00300019700274FF059
:1009E0007E585E46CDF820A000EB8B09204604948B
:1009F000BBEB060008D0B9002046FFF7D7FD00206A
:100A0000013004348742FBD104F1040A751EC4F896
:100A100000800FD0A9EB87015046FFF7C7FD0120EA
:100A2000544600BF013004348642FBD10137002D0B
:100A30002E46DDD1019FDDF820A0BBF1000F00F0B4
:100A40000281042007EB8A023C1DABF10108002162
:100A5000CDF824A0CDF81CB000EB8A000290CAF1BA
:100A600000000B904FEA8A00129000BF594580F0B9
:100A7000058101FB0AF01091049905970025934622
:100A80000392CDF8188057F8209001EB800107EB16
:100A900080004F460E910D9008E000BF1298DBF8E1
:100AA0000070A8F1010835465844834638460021B5
:100AB0000CF08BF840B9384629460CF078F800283D
:100AC0003E4608D008E000BF87F000462846314681
:100AD0000CF082F800B92E46B8F1000FDED1304696
:100AE00000210CF056F8002840F0C88029F00040A2
:100AF00031460CF04EF8DDE9062140B91098C043AC
:100B0000401804D0002000BF01308242FCD148468A
:100B100000210CF03EF8099E002840F0AF800D99AE
:100B20004FF07E500F9408601098AAEB0001012945
:100B300008460C910BD00F9D012400BF2868494640
:100B40000CF05DF8013445F8040BA642F6D10B9C7D
:100B50000E9D00BF286849460CF051F845F8040B7B
:100B60000134F7D10C98DDF81C804FF0000B0138F0
:100B70000A90DDE90465DDE90F4100BF8B4505D131
:100B80000C9806EB8A0605EB80053CE00D98D5F83D
:100B90000090016848460CF09FF8014648460CF06A
:100BA000EFF845F8040B0A98E0B1CDF84480DDF881
:100BB000248001274FF0000A54F80A1048460CF030
:100BC0008BF8014655F80A000CF0DAF8013745F8C1
:100BD0000A000AF1040AB845EED15544DDF820A018
:100BE000DDF844800B9F0E9C54F8041B48460CF023
:100BF00073F8014630680CF0C3F846F8040B01376F
:100C0000F2D1DDE90F4105EB81050BF1010BB8F1E4
:100C10000108B3D10298039ADDF81880059FDDF82A
:100C20001CB00131044402440998A8F101080437BA
:100C3000013809907FF41AAF4846002100250BF0D7
:100C4000A8FF019FB0B10AFB0BF50024002645B1B7
:100C5000386800210BF09DFF18B101360437AE4211
:100C6000F6D3AE4208BF6FF00404204613B0BDE8CF
:100C7000F08FFD2568B213B0BDE8F08FFB25F9E7D2
:100C80002DE9F04F91B047880B889F4240F0AF802C
:100C9000068813889E4240F0AA804D8853889D4262
:100CA00040F0A58052684FF0000949684FEA850876
:100CB00005960497039502924268A9EB970001916B
:100CC000079027F0030002EB80000C920990B8080F
:100CD0000B90684301EB00102946009007F00300D9
:100CE0000A904042069000BF029800EB890ADDE9B5
:100CF000000BCDF8209010900B980F91002847D052
:100D0000CDF838A0CDF834B0D946DDF81CA0DDF818
:100D100030B000249BE8C100D9F80010DBF80C507B
:100D20000BF0DAFF014620460BF02AFF59F80810B5
:100D3000044630460BF0D0FF014620460BF020FF62
:100D400009EB08060446384656F808100BF0C4FFB5
:100D5000014620460BF014FF46440446284656F848
:100D600008100BF0B9FF014620460BF009FF0446BE
:100D700006EB08000BF1100B1AF1010A00EB080951
:100D8000C8D1109DDDE90896DDE90DBA03E000BF8A
:100D90000C9E00245D460A9868B1069F56F8040B25
:100DA00029680BF099FF014620460BF0E9FE044646
:100DB00045440137F2D110980F994AF8044B0BF1D2
:100DC000040B04300139109096D10498099901EB75
:100DD000800109910C9901EB800105980C91039910
:100DE0000138894405907FF47FAF002000E0FD20AA
:100DF00040B211B0BDE8F08F2DE9F04103880F88B3
:100E0000BB423FD147884E88B7423BD11688B34298
:100E100038D15688B74235D1466854684D6807FBCB
:100E200003F80020B0EB980F1BD04FEA9800474220
:100E3000306829680BF0A4FF2060706869680BF0C7
:100E40009FFF6060B068A9680BF09AFFA060F0682F
:100E5000E9680BF095FFE06010341035103601376B
:100E6000E6D118F003000BD0474200BF56F8040B40
:100E700055F8041B0BF084FF44F8040B0137F5D13F
:100E8000002000E0FD2040B2BDE8F0812DE9F04FE8
:100E900082B0B0F800E04B889E454BD144880B8867
:100EA0009C4247D100234E6804F0030B40684FEA90
:100EB0000E184FEA940AA3EB9401CBF100090191BB
:100EC0004FEA8E0132460096BAF1000F1CD0019F06
:100ED000344600BF2546046801372C6044686C50D6
:100EE00005EB0104D0F808C044F801C00C44C26806
:100EF00000F11000625004EB010202EB0104E9D1A1
:100F000005EB080703E000BF009A02EB8307BBF183
:100F1000000F07D04D4600BF50F8042B01353A6052
:100F20000F44F9D10436BEF1010E03F10103CBD118
:100F3000002000E0FD2040B202B0BDE8F08FF0B527
:100F400081B04FF68311C3F622610BF0C5FE044653
:100F50000BF076FE05462046002100270BF03CFEF4
:100F6000002818BF013D28460BF078FE01462046B8
:100F70000BF006FF4FF088410BF0AEFE05460BF07C
:100F800066FE044628464FF044410BF0F9FD064644
:100F9000B7EB542F0CBF2E46002420460BF065FE05
:100FA000014630460BF0ECFE05464FF07E502946D8
:100FB0000BF0E6FE4DF25807C0F6000757F8241074
:100FC0000BF08AFE064607EB8400416828460BF0CA
:100FD00083FE014630460BF0D3FD01B0F0BD0000AA
:100FE00001221021014801F089BC000000000240EC
:100FF00000221021014801F081BC000000000240E5
:1010000001221146014801F079BC000000040240B1
:1010100000220121014801F071BC000000040240DF
:1010200070B50546FFF7E4FF922000F02DF9062287
:101030006549122000F00AF9FFF7D2FF624CA4F1D3
:101040001C0660782178000200B2084300EE100A06
:10105000D6ED030AB8EEC00A60EE200A95ED080A44
:1010600060EE800AC5ED000AE078A178000200B2C7
:10107000084300EE900A96ED031AF8EEE00A60EEDF
:10108000810A60EE800AC5ED010A607921790002CB
:1010900000B2084300EE900A3081F8EEE00A60EEFC
:1010A000810A20EE800A85ED020AFFF7B1FF0822CF
:1010B0002146002000F0CAF8FFF7A2FF20780F2891
:1010C0005AD1F078A1780028E0784FEA002000B2E9
:1010D00040EA01002BD000EE100AD5ED090AB8EE67
:1010E000C01A96ED040A51EE000AC5ED030A6079B4
:1010F0002179000200B2084300EE900A95ED0A1A29
:10110000F8EEE00A10EE801A85ED041AE079A17974
:10111000000200B2084300EE900A308195ED0B1AF0
:10112000F8EEE00A10EE801A85ED051A24E000EED4
:10113000100AF8EEC00A96ED040A60EE800AC5EDCA
:10114000030A60792179000200B2084300EE900A98
:10115000F8EEE00A60EE800AC5ED040AE079A179B4
:10116000000200B2084300EE900A3081F8EEE00A77
:1011700020EE800A85ED050AFFF73AFFA22000F075
:1011800083F802221049222000F060F8FFF728FFC0
:1011900020786178C00040EA51103081B0F5806F4E
:1011A00002DBA0F500603081B6F90800B4EE001A49
:1011B00000EE100AF8EEC00AB3EE070A00EE810A4C
:1011C00085ED070A70BD00000C04002070B50D46C7
:1011D0001649174C08600020A07009F08DF8A1781E
:1011E0000843A07009F01CF9A1780843A0701DB154
:1011F000104800F03DF916E00E489FED0F0A80ED13
:10120000090A9FED0E0A80ED0A0A80ED0B0A9FED98
:101210000C0A80ED0C0A9FED0B0A80ED080A9FED89
:101220000A0A80ED060AA07870BD0000380400208C
:10123000F0030020A42C0020AC38223BB016CE399D
:101240003F161B41C48B813F0000204270B51446FD
:101250000D4640F0800000F017F806E0552000F041
:1012600013F8641E05F8010BE4B2002CF6D170BD32
:1012700010B50C4640F0800000F006F8552000F054
:1012800003F8207010BD000001B582B04FF47A70F1
:1012900000900548012301AA02A9006802F0FCFDA4
:1012A0009DF804000EBD00003804002010B50C4667
:1012B000FFF7EAFF2046BDE81040FFF7E5BFB6EEB6
:1012C000000AD2ED020AF0EE401A92ED031A40EE47
:1012D000E01A90ED002AD2ED012AD0ED013A22EE7B
:1012E000A03A41EE411A21EE822AD2ED001A01EE17
:1012F000C13A22EE811A01EEA01A03EE232AD0EDA4
:10130000020AF0EE001A01EE202A62EE210AC1ED77
:10131000000A92ED011AD2ED023A92ED002AD2EDC6
:10132000030A61EE232A90ED003A90ED014A42EE65
:10133000202A62EE832AB0EE403A01EE413A00EEF6
:10134000E03A63EEA00A42EE410A43EE042A90ED31
:10135000021A40EE812A62EEA10AC1ED010A92ED65
:10136000011AD2ED032AD2ED020A92ED003A21EEE3
:10137000222A60EEA22AD0ED003A01EE410A03EEE5
:10138000602A43EE012A90ED013A00EEE00A22EED7
:10139000232AD0ED020A02EE832A00EE202A22EE52
:1013A000210A81ED020A7047FEE70000014802F0C1
:1013B00013BF00003C090020014800F0A2BD00005E
:1013C0002C070020014800F09CBD00002C070020E5
:1013D000014800F096BD000054070020014800F0CD
:1013E00090BD00005407002038B50446006809F09D
:1013F000B5FF0090002806D06B4604F11C02211DA9
:10140000206800F01FFC38BD38B50446006809F0BC
:10141000A5FF0090002806D06B4604F11C02211D98
:10142000206800F00FFC38BD002070470020704796
:1014300010B500220449054806F0A0FB0449034802
:1014400006F08FFB002010BDE0170020040B0020E9
:10145000E00F002010B50146034806F082FB024869
:1014600006F058FB002010BD040B00200020704740
:101470002DE9F04F04462DED048B89B0002000903B
:10148000019000F097FAED4DDFF8B4B3DFF8B493B4
:1014900085ED050A02AE0DF114084FF07C5A00BF2D
:1014A00000F088FAD5ED050A30EE600A10EE100A59
:1014B000584512DD9FEDE40A84ED090A9FEDE30A29
:1014C00084ED0A0A84ED0B0A9FEDE10A84ED0C0A13
:1014D0009FEDE00A84ED060A8BE19FEDDF0A00F044
:1014E0002DFA9FEDDE0A002784ED0C0A84ED090A2F
:1014F00084ED0A0A84ED0B0AFBE000BFFFF778FDDC
:101500009220FFF7C1FE062269461220FFF79EFED9
:10151000FFF766FD9DF801009DF80010000200B283
:10152000084300EE100AD5ED030AB8EEC00A60EEDB
:10153000201AC4ED001A9DF803009DF80210000265
:1015400000B2084300EE100A95ED031AB8EEC00A87
:1015500060EE010AC4ED010A9DF805009DF8041033
:10156000000200B2084300EE100AB8EEC00A20EEF6
:10157000011A21EEA10A84ED021A00EEA00A01EE82
:10158000010A08F0B3FDB0EE408A94ED0C0A30EE8B
:10159000080A84ED0C0AFFF73BFD0822694600208B
:1015A000FFF754FEFFF72CFD9DF800000F2840D1F7
:1015B0009DF803009DF80210000200B2084300EEFF
:1015C000100AD5ED040AB8EEC00A20EE200A84ED18
:1015D000030A94ED091A31EE000A84ED090A9DF818
:1015E00005009DF80410000200B2084300EE100A46
:1015F000B8EEC00A20EE200A84ED040A94ED0A1A1F
:1016000031EE000A84ED0A0A9DF807009DF80610E5
:10161000000200B2084300EE100AB8EEC00A20EE45
:10162000200A84ED050AD4ED0B0A30EE800A84ED21
:101630000B0A002F7ED0B4EEC98AF1EE10FA01DD5C
:10164000B0EE489AB4EEE88AF1EE10FA01D2F0EE6C
:10165000488A00204FEA080204EB800191ED030A5A
:1016600006EB8001D1ED000AB4EEE00AF1EE10FACB
:1016700001DD81ED000A02EB8001D1ED000AB4EE3C
:10168000E00AF1EE10FA01D281ED000A401CC0B26E
:101690000328E1D339EE680A0020424685ED060AA8
:1016A0004FEA090106EB8003D3ED000A02EB800349
:1016B00093ED001A01EB8003401C70EEC10AC0B22A
:1016C0000328C3ED000AEDD310EE100A504514DCD8
:1016D00063480A68824210DC4A6882420DDCD9F80D
:1016E0000810814209DC9FED5F0A00F027F97F1C9A
:1016F000BFB2E8888742FFF401AFE988D4ED0C0A55
:1017000000EE101A2F460020B8EE400A80EE801A34
:1017100084ED0C1A00EE101A04EB8002401CB8EEA7
:10172000400AD2ED090AC0B2032880EE801A82ED89
:10173000091A00E06AE0EDD3FFF75AFCA220FFF798
:10174000A3FD022269462220FFF780FDFFF748FC37
:101750009DF800009DF80110C00040EA5110B0F55E
:10176000806F01DBA0F5006000EE100AB4EE001AF5
:10177000F8EEC00AB3EE070A00EE810A84ED060A0D
:10178000B888401CB880B86950453FF789AE94EDE1
:101790000C0ADFED350A30EE600AB0EEC00A10EE3A
:1017A000100A5045F1DC2E48D9F800104A46814213
:1017B000EBDC51688142E8DCD9F808108142E4DCB6
:1017C00094ED090A2948B0EEC00A10EE101A8142C1
:1017D000DBDC94ED0A0AB0EEC00A10EE101A81426A
:1017E000D3DC94ED0B0AB0EEC00A10EE101A814261
:1017F000CBDC94ED0C0ADFED1E0A80EE801A84ED3E
:10180000081A09B0BDEC048BBDE8F08FB0EE489A21
:10181000F0EE488A0020414604EB800292ED030A74
:1018200006EB800282ED000A01EB8002401CC0B290
:1018300082ED000A0328EFD32CE70000F00300201C
:1018400000002041982C0020AC38223BB016CE3945
:101850003F161B41000020420AD7A33B00000000B6
:101860009A99193E6F12033ACDCC1C410AD7233CFA
:10187000C3F51C41014800F0EFBD00005C0A0020E8
:10188000014800F0E9BD00007C080020014800F09C
:10189000E3BD0000DC08002001681823CAB2103A3A
:1018A000B2FBF3F2054B6FF30901032A9B5CC3659E
:1018B00000D9091D8165084670470000E8CD000881
:1018C00010B5014600208B698A6A4FF0C07453B18D
:1018D000B3F5005F15D072B1012A0CD0022A0AD0EC
:1018E000032A09D104E01AB1012A06D0022A03D141
:1018F000C96AC90100D5012010BDC96AA142FAD048
:1019000010BD002AF7D0012AF2D0022AF3D0032A10
:10191000F3D010BD074808B540680090014606485E
:101920000269914202D2C168491CC16000990161FB
:1019300008BD0000001000E0B00300200A4948681C
:101940000A4AD2ED000A4A68121AF8EE601A01EE4D
:10195000102AB8EE411A60EE211AB4EEE11AF1EE47
:1019600010FAF0D370470000001000E0B003002030
:1019700000B50E492DED028B81B0496800910168D8
:10198000009A511A00EE101A0949F8EE400A91ED3A
:10199000000A0260B8EE400A80EE808AFFF7BAFFC4
:1019A00001B0B0EE480ABDEC028B00BD001000E0B3
:1019B000B003002010B500F043F80C489FED0C1A5E
:1019C000818890ED000A00EE901AC088B8EE400AB7
:1019D000F8EE600A00EE810A00EE900A9FED051A0B
:1019E000F8EE600A00EE810A10BD0000E00300205E
:1019F0006F12833ABD3786350D490A6842F080720E
:101A00000A600C4900224A600B6843F001030B6036
:101A100009494FF47A734843B0FBF3F30749C1E92E
:101A20000003054BB0FBF3F0C1E902027047000070
:101A3000FCED00E0001000E040420F00B003002089
:101A40002DE9F843214840680090FFF763FF204FDD
:101A50000024009EF8684FF0FF312546E0FB016549
:101A6000C7E90E65D7F8008023464246304629462E
:101A7000FEF7ADFCA0FB083CC7E9060101FB08C16D
:101A800000FB0411F61A65EB0105C7E9086507F1CB
:101A900030080023C8F80000D7F8049030464A46C2
:101AA0002946FEF794FC80B2A8F8040000FB09F078
:101AB000301A65EB0405C7E90A0529460023BA6810
:101AC000FEF785FCA8F80600BDE8F883001000E0EA
:101AD000B00300207047012000F00CBE082000F089
:101AE00009BE102000F006BE202000F003BEB6EEB6
:101AF000000AD2ED020AF0EE401A92ED031A40EE0F
:101B0000E01A90ED002AD2ED012AD0ED013A22EE42
:101B1000A03A41EE411A21EE822AD2ED001A01EEDE
:101B2000813A22EE811A01EEE01A03EE232AD0ED6B
:101B3000020AF0EE001A01EE202A62EE210AC1ED3F
:101B4000000A92ED011AD2ED023A92ED002AD2ED8E
:101B5000030A61EE232A90ED003A90ED014A42EE2D
:101B6000602A62EE832AB0EE403A01EE413A00EE7E
:101B7000E03A63EEA00A42EE010A43EE042A90ED39
:101B8000021A40EE812A62EEA10AC1ED010A92ED2D
:101B9000011AD2ED032AD2ED020A92ED003A21EEAB
:101BA000222A60EEA22AD0ED003A01EE410A03EEAD
:101BB000202A43EE412A90ED013A00EEE00A22EE9F
:101BC000232AD0ED020A02EE832A00EE202A22EE1A
:101BD000210A81ED020A704772B6FEE730B5B0F512
:101BE000887F19D10C788D7964F307004C7864F301
:101BF0000F208C7864F30702CC7864F30F220C7901
:101C000064F307034C7964F30F23044CE572C9793C
:101C1000A1726080A280238130BD0000F8310020D5
:101C200090F82020012A07D0022A05D0416A41F409
:101C30008021416201207047006842690A43426185
:101C400000207047F0B590F820500468A468012D7A
:101C500005D0022D03D0416A41F480214DE014F0FB
:101C6000406F01D1E50045D5C4F301640125A540CD
:101C70001D608D684FF4C0739DB1CE6835434E68CA
:101C800045EAC605066803EB0417F5514FF4C27523
:101C9000076805EB04150E697E51097D012905D001
:101CA00009E00E88CD6845EA4655EBE701684E59D4
:101CB00046F480764E511179D2F805504FF4C6762D
:101CC00041EA0521056806EB0416A9511178D2F8FE
:101CD00001204FF4C47541EA0221026805EB0415A6
:101CE0005151006803EB0411425842F00102425086
:101CF0000020F0BD416A41F4001141620120F0BDB5
:101D000010B590F82020012A07D0022A05D0416A98
:101D100041F480214162012010BD3B48D0F80022EF
:101D200042F00102C0F80022D0F8002222F47C52D6
:101D3000C0F80022D0F800224B6A42EA0322C0F821
:101D400000220A7D02F01F0301229A40D0F81C32C3
:101D50009343C0F81C32CB69B3B9D0F80C3293432B
:101D6000C0F80C328C894B6864F31F434C6900EB5C
:101D7000C404C4F840320C890B6864F31F434C69F7
:101D800000EBC404C4F84432CB69012B16D1D0F85F
:101D90000C321343C0F80C320C884B6864F31F43B9
:101DA0004C6900EBC404C4F840320C89CB6864F37E
:101DB0001F434C6900EBC404C4F844328B69002B08
:101DC000D0F804320ED01343C0F804320B69002B54
:101DD000D0F8143208D01343C0F81432096A01292C
:101DE00004D008E09343EFE79343F5E7D0F81C12E3
:101DF0001143C0F81C12D0F8001221F00101C0F804
:101E00000012002010BD000000640040704770B553
:101E100090F82040012C05D0022C03D0416A41F4F7
:101E2000802128E0046809B32469A40720D04FF476
:101E3000D874056804EB01142D5915F0040595605C
:101E400005682D591AD0ED08556005682C5904F025
:101E50000204D4604FF4DA74056804EB01142E59BF
:101E600006F00F06082E0CD308250DE0E468DCE729
:101E7000416A41F400114162012070BD6D0D156091
:101E8000E3E72D5905F00F05156105682D59C5F3D8
:101E90000725956105682C59240C54614FF4DC72B8
:101EA000046802EB0112A4581C700468A458240AA8
:101EB0005C700468A458240C9C700468A258120E2C
:101EC000DA704FF4DE72046802EB0112A4581C7140
:101ED0000468A458240A5C710468A458240C9C71FA
:101EE0000468A258120EDA71006829B1016941F044
:101EF00020010161002070BDC16841F02001C16076
:101F0000F8E72DE9F05F0546006800244669D0F83F
:101F100004908768D0F80CB0D0F810A0D0F81880E2
:101F2000F10748D0F90714D001218160B80703D523
:101F3000284600F08AFA0CE0780702D54FF40064D6
:101F400007E0380702D54FF4805402E0284600F03D
:101F50007BFAF80516D529684FF480708860B805BB
:101F600003D5284600F073FA0CE0780502D544F456
:101F7000005407E0380502D544F4804402E02846C6
:101F800000F064FAF80316D529684FF480308860B1
:101F9000B80303D5284600F05CFA0CE0780302D5BC
:101FA00044F4004407E0380302D544F4803402E0EE
:101FB000284600F04DFA300707D55FEACB6004D51C
:101FC0002968102044F40074C86070074FF00807B7
:101FD00007D55FEA0B7004D52868C760284600F073
:101FE000A9F9B00706D52868C068800702D028463E
:101FF00000F0A2F9700607D55FEACA6004D5296827
:10200000102044F480640861B00607D55FEA0A70C6
:1020100004D528680761284600F0E6F9F00606D5E1
:1020200028680069800702D0284600F0DEF9B00376
:1020300008D55FEAC96005D52968102048602846A0
:1020400000F0D4F9F00307D55FEA097004D52868D9
:102050004760284600F0FEF9300446D55FEA497033
:1020600040D5F00504D55FEAC87001D044F0010402
:10207000B00504D55FEA887001D544F0020470050C
:1020800004D55FEA487001D544F00404300529D531
:1020900018F0700F26D008F07000402815D006DC2C
:1020A000102809D020280AD0302816D10AE050285C
:1020B0000ED0602811D10EE044F008040DE044F089
:1020C00010040AE044F0200407E044F0400404E077
:1020D00044F0800401E044F480742868816921F0B0
:1020E00070018161296804204860002C05D0686A6D
:1020F000204368622846FFF789FEBDE8F09F70B56F
:10210000040003D094F8200010B104E0012070BD59
:10211000204600F081F82068016841F0010101606B
:1021200000F0F2FB0546052604E000F0EDFB401B45
:102130000A2811D820684068C007F6D020680168D6
:1021400021F00201016000F0DFFB05460BE000F02A
:10215000DBFB401B0A2806D9606A40F4003060624D
:1021600084F82060D2E7206840688007EFD4207EA2
:102170000128206801683DD021F080010160607E67
:1021800001282068016838D021F040010160A07E5C
:1021900001282068016833D021F020010160E07E31
:1021A0000128206801682ED041F010010160207FD5
:1021B00001282068016829D021F008010160607FB2
:1021C00001282068016824D021F004010160D4E9CD
:1021D00002010843D4E90412114308436168491E0F
:1021E00008432168C86100206062012084F8200053
:1021F000002070BD41F08001C0E741F04001C5E71B
:1022000041F02001CAE721F01001CFE741F00801B9
:10221000D4E741F00401D9E7F0B587B004461421B2
:102220006846FEF7C3F93E4B3E48DFF8F0E0196818
:10223000D4F800C03B4A03250226092710300024A9
:10224000491CF4452AD11960012907D1016841F0E0
:1022500000710160006800F000700590106840F0A7
:10226000080010601068CDE9005600F00800CDE9C4
:10227000047069462C48CDE9024500F047FA002277
:102280000521132000F016FD132000F005FD0022AB
:102290000521142000F00EFD14203AE0DFF88CE058
:1022A000F44538D1D0F800C04CF0806CC0F800C0C4
:1022B000D0F800C001290CF0806CCDF814C0196072
:1022C00007D1016841F000710160006800F0007002
:1022D0000590106840F002001060106802AB00F03A
:1022E000020005906020CDE9000683E8B000694651
:1022F0000F4800F00BFA002205213F2000F0DAFC25
:102300003F2000F0C9FC00220521402000F0D2FC53
:10231000402000F0C1FC07B0F0BD000000640040A8
:102320000C00002030380240000C024000680040E1
:10233000000402407047000070B52649884221D150
:10234000254B0021A3F120041D46221DFFF75FFD50
:1023500000283DD16068294611280AD012280BD0E8
:1023600013280CD0142833D11C48BDE8704008F065
:10237000E1BB1A483038F8E718482038F5E7174825
:102380001038F2E71649884222D1134B0021283336
:10239000A3F120041D46221DFFF739FD002817D1A7
:1023A00062684FF48870294682420DD0A2F580728F
:1023B000413A06D0012A0BD10A48BDE8704009F025
:1023C0001BB908480C38F8E7BDE87040FFF706BCB9
:1023D00070BD00002C070020682C0020D0310020A8
:1023E00054070020EC310020704770477047000010
:1023F00070B5044690F82000012804D0606A40F4CB
:102400000020606218E0022084F820002068016843
:1024100021F00101016000F077FA05460EE000BFEF
:1024200000F072FA401B0A2808D9606A40F40030B4
:102430006062052084F82000012070BD206840689B
:10244000C007EDD1606270BD70477047704770473C
:1024500070477047704700002DE9F84304464FF07D
:102460000009CDF8009063484FF41651A56D00683F
:10247000B0FBF1F72E6894F85C10082000FA01F127
:1024800031420FD021680A6852070BD50A6822F042
:1024900004020A6094F85C108840A860606D40F007
:1024A0000100606594F85C104FF0010808FA01F033
:1024B000304208D021684969090604D5A860606DDA
:1024C00040F00200606594F85C10042088403042BF
:1024D00008D021680968890704D5A860606D40F0BC
:1024E0000400606594F85C1010208840304218D0D9
:1024F00021680968090714D5A860206801684903A4
:1025000004D50068000308D5A16C07E00168C9057F
:1025100003D4016821F008010160216C09B1204653
:10252000884794F85C1020208840304231D02168E0
:102530000968C9062DD5A86094F8350005282068DB
:10254000016806D0490347D5006800031DD4616CBB
:102550001CE021F0160101602068416921F0800132
:102560004161206C08B9A06C20B12068016821F09D
:102570000801016094F85C103F208840A86084F84E
:10258000358084F83490216D1FE0E16B09B120465D
:102590008847606D00282BD0606DC00714D00520DF
:1025A00084F835002068016821F00101016000987D
:1025B000401C0090B84203D820680068C007F6D1DC
:1025C00084F8358084F83490E16C002910D001B093
:1025D0002046BDE8F04308470168C905D5D4016825
:1025E00021F01001016084F8358084F83490CCE744
:1025F000BDE8F883800000202DE9F041044600F09A
:1026000083F906465CB1022084F83500002584F881
:1026100034502068016821F0010101600DE00120C3
:10262000BDE8F08100F070F9801B052805D9202055
:102630006065032084F83500F2E720680068C00771
:10264000F0D12268116820480140D4E90103184301
:10265000D4E903363343184363691843A369184325
:10266000E3691843236A18430843616A042903D1C4
:10267000D4E90B1319430843106020684069666A67
:1026800020F0070130460E43012704280CD1A06A30
:102690000643E06A40B12046FFF712F920B140201E
:1026A000606584F83570BAE7206846612046FFF718
:1026B000F3F894F85C203F2191408160656584F8CF
:1026C00035700020ACE700003F8010F070B5044684
:1026D00000F01AF90546601C02D004480078044452
:1026E00000F012F9401BA042FAD370BD7400002024
:1026F00070470000044910B50A68024202D0086021
:10270000FFF7F6FF10BD0000143C01402DE9F84F23
:10271000DFF8BCA10022012503264FF00F090AF1C2
:10272000040BAAF1040E00BF0B6805FA02F4234063
:10273000A34270D10F7907F00307012F01D0022FB8
:1027400016D187684FEA420806FA08FC27EA0C0708
:10275000D1F80CC00CFA08FC4CEA070CC0F808C011
:102760004768A7430C79C4F3001494403C43446089
:102770000C79E443A4070AD0C4684FEA420C06FA75
:102780000CF7BC438F6807FA0CF72743C7600C7936
:1027900004F00304022C12D1D40800EB840CDCF802
:1027A00020405707FF0E09FA07F824EA0804D1F879
:1027B000108008FA07F848EA0408CCF8208004687A
:1027C0004FEA420C06FA0CF7BC430F7907F00307F7
:1027D00007FA0CF7274307604C6814F4403F70D0A9
:1027E0003C4C276847F480472760246822F00307A1
:1027F00004F480440094384C07EB040CDCF80848DF
:1028000097074FEA177809FA08F7BC43334FB842E5
:1028100002D1002724E054E0314FB84201D1012712
:102820001EE0304FB84201D1022719E02E4FB842C6
:1028300001D1032714E02D4FB84201D104270FE046
:102840002B4FB84201D105270AE02A4FB84201D1E7
:10285000062705E0284FB84201D1072700E00827E6
:1028600007FA08F72743CCF80878DAF8004057460B
:10287000D1F804C09C435FEACC2C00D51C433C60DB
:10288000DBF800405F46D1F804C09C435FEA8C2C23
:1028900000D51C433C60DEF800407746D1F804C008
:1028A0009C435FEA8C3C00D51C433C60084F083FCA
:1028B0003C68D1F804C09C435FEACC3C00D51C4383
:1028C0003C60521C102AFFF42FAFBDE8F88F0000C7
:1028D000083C014044380240003001400000024002
:1028E0000004024000080240000C024000100240B8
:1028F0000014024000180240001C02400AB181612D
:1029000070470904FBE70000014880687047000039
:102910007400002070B5040025D094F83D00002517
:1029200020B984F83C50204600F0B8F8242084F800
:102930003D002068016821F0010101602068016804
:1029400041F4004101602068016821F40041016008
:1029500000F0BCFF4D4A6168914201D84C4900E04B
:102960004C49884201D2012070BD4B492368B0FB1D
:10297000F1F15E6826F03F060E435E6063689342A5
:1029800006D94FF4967359434FF47A73B1FBF3F1C0
:102990002368491C1E6A26F03F06314319626168AC
:1029A000914210D84900401EB0FBF1F2521CC2F314
:1029B0000B02042A01D2042022E0B0FBF1F0401CFB
:1029C000C0F30B001CE0A268F2B301EBC10303EB00
:1029D0000116431EB3FBF6F35B1C43F480431B0557
:1029E00049D092B301EBC10202EB0111401EB0FBD2
:1029F000F1F0401CC0F30B0040F4804040F4004074
:102A00002168CA694CF6FF739A431043C861D4E940
:102A1000071001432068026822F0C00211430160E0
:102A2000D4E9030101432068826848F2FF339A43E6
:102A300011438160D4E9050108432168CA6822F086
:102A4000FF021043C86001E00EE016E02068016854
:102A500041F0010101602564202084F83D002563D8
:102A600084F83E50002070BD01EB4106431EB3FBCD
:102A7000F6F35B1CB3E70120C2E701EB4101401E06
:102A8000B0FBF1F0401CC0F30B00B7E7A0860100DB
:102A900080841E0000093D0040420F002DE9F041F6
:102AA00086B0044614216846FDF780FD2F4A216850
:102AB000DFF8BC8000252E4803241226042708F1E5
:102AC000100891421BD1016841F0200101600068AB
:102AD000CDE9004600F02000CDE90470CDE90254B4
:102AE00069462448FFF712FED8F8001041F480012F
:102AF000C8F80010D8F8000000F4800031E01E4A49
:102B000091422FD1016841F004010160016801F098
:102B100004010591016841F0010101600068CDE9FF
:102B2000025400F0010005905015CDE900066946F9
:102B300004971248FFF7EAFD4FF48070CDE90006D4
:102B4000CDE90254694604970D48FFF7DFFDD8F838
:102B5000001041F40001C8F80010D8F8000000F49B
:102B60000000059006B0BDE8F0810000005800406C
:102B70003038024000140240005C0040000802406F
:102B80000000024002488168027811448160704769
:102B9000740000200B4810B5016841F40071016019
:102BA000016841F480610160016841F48071016055
:102BB000032000F09FF80F2000F006F800F050F816
:102BC000002010BD003C024030B50546204887B0CB
:102BD0000024016841F001010160006806A900F0CD
:102BE0000100009001A800F04BFE0498B0B100F085
:102BF0006DFE400017494FF08042B0FBF1F11648DE
:102C0000491E026040F2E732C0E90324C0E9011422
:102C1000846101F083FA040003D015E000F056FE51
:102C2000E8E70D4801F014FB04000DD11C2000F072
:102C300033F8102D07D2002229461C2000F03AF864
:102C40000648056000E0012407B0204630BD0000C2
:102C50004038024040420F00BC0A002078000020AB
:102C60000C4882B0016841F480410160006800F4C2
:102C7000804000900748001F016841F080510160CA
:102C80000068002200F0805000900F21901E02B0DA
:102C900000F010B844380240002809DB00F01F02A1
:102CA000012191404009800000F1E020C0F80011AE
:102CB00070470000F0B40E4B1B680C46C3F30223B0
:102CC000C3F10705042D00D90425191D072901D2D8
:102CD000002300E0DB1E012606FA05F1491E214013
:102CE00099409E40761E16403143F0BC06F001BB71
:102CF0000CED00E0064900F0070208684FF6FF03FC
:102D0000184040EA0220034A104308607047000060
:102D10000CED00E00000FA057047006841620020F9
:102D20007047F0B50368586A39B19C6A4FF48276EF
:102D300000EB144400204D1E0AE040EA0240986275
:102D40000FE006EB8007DF59401C04EB1744C0B2CC
:102D5000A842F6D344EA02404FF4807202EB8101AC
:102D600058500020F0BDD0F8E00405F0DDB901EBCB
:102D7000C10200EB8202D0F8E004126A05F032B919
:102D800001EBC10200EB8202D0F8E004D2F860222D
:102D900005F083B9D0F8E00405F0C8B90A0601F0DF
:102DA0000F0101EBC10100EB810101D5143101E0FC
:102DB00001F51571006806F0A1B870B504460B0660
:102DC00001F00F0000EBC00104EB81014FF00102A4
:102DD0004FF0000502D54A75143103E081F85552D1
:102DE00001F51571087094F89404012808D084F84E
:102DF0009424206805F0A0FD84F89454002070BD50
:102E0000022070BD70B5044601F00F002279904297
:102E100001D9012070BD0B0601F00F0101EBC101CA
:102E200004EB81014FF001024FF0000502D54A7515
:102E3000143103E081F8555201F515718D70087059
:102E400094F89404012808D084F89424206805F0AC
:102E5000E5FE84F89454002070BD022070BD01F09E
:102E60000F0101EBC10100EB8100D0F8680270474F
:102E70002DE9F04104460F0601F00F0000EBC00100
:102E800004EB81014FF001064FF0000502D54E75AD
:102E9000143103E081F8555201F5157108708A600C
:102EA0000B714A7802B14883022B00D14D7194F81E
:102EB0009404012809D084F89464206805F08EFCFD
:102EC000284684F89454BDE8F0810220FBE710B551
:102ED00001F00F0404EBC40100EB8101C1E9982368
:102EE0000023C1F8683281F8553281F85442837961
:102EF00001F51571012B00D1CA618279006805F0D6
:102F0000E5FE002010BD70B504460D4601F00F002F
:102F10002179884201D9012070BD29064FF00006B1
:102F20004FF0010206D500EBC00104EB81014A75A8
:102F3000143107E005EBC50104EB810181F855620E
:102F400001F515718A70087094F89404012807D06F
:102F500084F89424206805F08DFE280702D007E04D
:102F6000022070BDA17904F29C42206805F02AFE7F
:102F700084F89464002070BD10B501F00F0404EBD8
:102F8000C40100EB8101C1E9082300238B62012306
:102F90004B7501F8144F8379012B00D1CA618279F6
:102FA000006805F093FE002010BD00002DE9FC5FD5
:102FB00005680446284606F03DF800287DD12068C3
:102FC00006F064F8002878D0D5F80808C0F30D2082
:102FD000C4F8D404206806F059F8800704D52068A6
:102FE000416901F002014161206806F04FF8C10615
:102FF00004F29C40009034D52068816921F01001D2
:1030000081612F6A07F00F0000EBC00004EB80061F
:10301000C7F3434006F51576022802D0062811D0E2
:103020001AE047F6F070074216D0C7F30A121746A7
:103030002846F16806F02EF8F0683844F0607069B0
:10304000384408E008222846009906F023F8706901
:10305000C7F30A11084470612068816941F01001CA
:103060008161206806F012F800034FF0080B4FF062
:10307000000A4FF001097CD50026206805F0E5FF25
:10308000074674E0F80770D0F1B2206805F0F6FF4B
:103090008046C00707D005EB4611C1F8089B3146B2
:1030A000204603F0C3FC5FEA087024D505EB461107
:1030B000C1F808BB2068016C00E023E200EB461079
:1030C0000191D0F8082BFB4B994205D9110403D587
:1030D0004FF40041C0F8081B204600F0F6FAF5490D
:1030E0000198884207D9A079012804D120680121DC
:1030F000009A05F067FD5FEAC86004D505EB46114C
:103100001020C1F8080B5FEA88701DD568690006B9
:1031100005D5D5F8040840F48061C5F8041806EB1D
:10312000C60004EB800090F8571200F515700129D5
:1031300005D180F803A0F1B2204600F0E9F905EBD3
:1031400046110220C1F8080B5FEA886004D505EB40
:1031500046102021C0F8081B5FEA884005D505EB22
:1031600046104FF40051C0F8081B7F08761C002F52
:1031700088D1206805F08AFF40036ED5206805F0ED
:103180005DFF0746002666E0F80762D0F1B22068CE
:1031900005F062FF8046C00723D006F00F01D5F886
:1031A000342809FA01F18A43C5F8342805EB4611A1
:1031B000C1F80899A07901280FD106EBC60004EBED
:1031C0008000D0E907211144016236B9606A20B954
:1031D00020680121009A05F0F5FCF1B22046FFF7C6
:1031E000C6FD5FEA087003D505EB4611C1F808B9C2
:1031F0005FEAC86004D505EB46111020C1F8080944
:103200005FEA486004D505EB46104021C0F8081974
:103210005FEA887016D53146284605F0E0FE06EBD9
:10322000C60004EB8000C17D1430012905D180F86F
:1032300003A0F1B2204600F067F905EB4611022029
:10324000C1F808095FEA086003D53146204603F05B
:1032500053FC7F08761C002F96D1206805F016FFDE
:10326000002811DAD5F8040820F00101C5F8041887
:1032700094F8CC0401282BD0204600F00BFA2068EB
:10328000416901F000414161206805F0FFFE000541
:103290000BD5D5F80808C00702D0204600F03EFA4A
:1032A0002068416901F400614161206805F0EEFE8B
:1032B000C00467D5D5F8040820F00100C5F804085B
:1032C0001021206805F08BFE00214FF67F3220E0B0
:1032D00084F8CCA400212046FFF71EFDCFE700BFF5
:1032E00005EB4110C0F80829D0F8003923F4001389
:1032F000C0F80039C0F8082BD0F8003B23F40013C5
:10330000C0F8003BD0F8003B43F00063C0F8003B3E
:10331000491C20798842E3D8D5F81C0840F00111F7
:10332000C5F81C18E07B002828460DD0D0F884088A
:1033300040F00B01C5F88418D5F8440840F00B01A3
:103340002846C5F844180DE0D0F8140842F22B01C5
:103350000843C5F81408D5F8100840F00B012846BA
:10336000C5F81018D0F8000820F4FE61C5F8001860
:10337000A1792068009A05F025FC2068416901F4D4
:1033800080514161206805F081FE800415D52068D8
:1033900005F064FA206805F040FEE07100F090FA54
:1033A0000146E279206805F0D3FE204600F05CF982
:1033B0002068416901F400514161206805F066FE12
:1033C000000707D5204600F069F92068416901F03F
:1033D00008014161206805F059FE000616D5A8696C
:1033E00020F08001A96101260DE000BF06EBC600B8
:1033F00004EB800090F85702012803D1F1B2204677
:10340000FFF7CCFC761C2079B042EFD8206805F09D
:103410003DFEC0021FD501264F4614E005EB4610C5
:10342000D0F8001906EBC60004EB8002107E0128DC
:1034300008D1002906DAF0B240F08001D7752046A5
:10344000FFF7ACFC761C2079B042E7D820684169D0
:1034500001F480114161206805F018FE800234D526
:1034600001204A4629E000BF05EB4011D1F8001BBE
:1034700000EBC00304EB830393F85862012E1BD1C9
:10348000002919DA94F8D46401F4803106F00106B9
:10349000B14211D183F85722A96941F08003AB6191
:1034A0006969090608D4D5F8040840F40070C5F825
:1034B000040805E00A30544F401C21798142D3D8DA
:1034C0002068416901F400114161206805F0DEFDCA
:1034D000400007D52046FFF746FC2068416901F00F
:1034E00080414161206805F0D1FD40070AD5206880
:1034F0004568680702D52046FFF74CFC2068416804
:1035000029434160BDE8FC9FD0F8E00404F061BEAF
:10351000D0F8E00404F071BEF8B5040005D094F8CA
:1035200095042668002510B106E00120F8BD84F856
:103530009454204600F056F8032084F89504B6F120
:10354000A04F00D1A571206805F036FB207C8DF8D6
:10355000000094E80F0005F08FF90226B8BB0021A7
:10356000206805F0B6FD90BB002001270DE000BFEC
:1035700000EBC00104EB81014F750875C8850D761D
:10358000CD610D62401CC0B24D6221798142EFD8FD
:10359000002011E000EBC00104EB810181F85552DD
:1035A00081F8540281F85852C1F85C52C1F8605257
:1035B000401CC0B2C1F8645221798142EAD8207C13
:1035C0008DF8000094E80F0005F038FA10B184F887
:1035D0009564AAE7657484F89574206805F020FA6C
:1035E0000020F8BD10B586B0044614216846FCF7EB
:1035F000DDFF2068B0F1A04F2FD1194800210268EB
:1036000042F001020260006800F0010005904FF4F2
:10361000C05000900220CDE90101032003900A2050
:10362000049069460F48FFF771F80D48001D0168C6
:1036300041F0800101600A481430016841F4804182
:1036400001600068002200F48040059005214320BD
:10365000FFF730FB4320FFF71FFB06B010BD000053
:10366000303802400000024070B50446C0790125A0
:1036700070B1022801D0FEF7AFFA2946D4F8E00471
:1036800004F029FED4F8E004BDE8704004F0DEBD8B
:103690000025F2E7D0F8E00404F006BED0F8E0041C
:1036A00004F00CBE10B5044690F8940401280AD02A
:1036B000012084F894046174206805F038FD00202E
:1036C00084F8940410BD022010BDD0F8E02400F26C
:1036D0009C41104604F00BBE10B50446006894F8F7
:1036E0009414012909D0012184F89414C168490671
:1036F00009D5617B012902D005E0022010BD816B54
:1037000041F480318163206805F047FC206805F0B2
:1037100079F9002084F8940410BD000010B5044627
:10372000D0F8E00404F025FE2068D0F8001E41F037
:103730000101C0F8001EE07A002804D002480168A8
:1037400041F00601016010BD10ED00E02DE9F047E9
:103750000E46050065D0DFF81481D8F80000F7B2F6
:1037600000F00700B04207D288F80070D8F80000D7
:1037700000F00700B04254D128683D4C810712D5B3
:10378000400703D5206840F4E05020602878000707
:1037900003D5206840F4604020602068A96820F0CC
:1037A000F000084320602878C0072DD030496868B1
:1037B0000839012812D0022813D0032811D0096833
:1037C000890700292DDA216821F0030101432160D6
:1037D000FFF79AF8814641F2883A0EE009688903BA
:1037E000EFE709688901ECE7FFF78EF8A0EB090124
:1037F000514502D90320BDE8F0872068696800F0D0
:103800000C00B0EB810FEFD1D8F80010404601F06A
:103810000701B14207D90770006800F00700B04205
:1038200001D00120E7E72878400705D52068E9683E
:1038300020F4E050084320602878000706D520686F
:10384000296920F4604040EAC100206000F05EF881
:103850002168084AC1F30311515CC8400649086059
:1038600006480068FFF7B0F90020C4E7003C0240BA
:1038700008380240F0CD00088000002078000020C9
:103880000F2202600C4A136803F0030343601368BD
:1038900003F0F0038360136803F4E053C36012681D
:1038A0004FF4E05303EAD20202610448006800F0DA
:1038B000070008607047000008380240003C0240E2
:1038C0000148006870470000800000200448054956
:1038D00000680968044AC1F38221515CC8407047FE
:1038E000800000200838024000CE00080448054946
:1038F00000680968044AC1F34231515CC84070470E
:10390000800000200838024000CE0008154810B59D
:10391000006810F00C02144813D01449042A0FD088
:10392000082A0ED10F4C241F2268236802F03F02A0
:103930005B0207D52068C0F38810A0FB010106E0F8
:10394000084610BD2168C1F38811A1FB00010023C6
:10395000FCF73DFD2168C1F30141491C4900B0FB62
:10396000F1F010BD083802400024F400001BB7003D
:103970002DE9F84F04006ED02078DFF84C93C00793
:10398000A9F104054AD009F104000168C1F38101DD
:10399000012908D00068C0F3810002280AD1D9F8B3
:1039A0000000400206D52868800337D560680028EB
:1039B000E1D033E06068B0F5803F10D0B0F5A02FC3
:1039C000286810D020F480302860286820F48020F7
:1039D00028606068A8B1FEF797FF06460DE02868EA
:1039E00040F48030F4E740F480202860F7E700BF1F
:1039F000FEF78AFF801B642873D828688003F7D5F8
:103A00000CE0FEF781FF064605E000BFFEF77CFFF5
:103A1000801B6428F0D828688003F7D42078DFF86A
:103A2000AC8280074FF0000A3ED5A748001D016810
:103A300011F00C0F08D00068C0F3810002280BD1F0
:103A4000D9F80000400207D42868800716D5E0683E
:103A5000012800D112E033E1E068B8B10120C8F8D4
:103A60000000FEF751FF064605E000BFFEF74CFFE1
:103A7000801B0228C0D828688007F7D528682169EC
:103A800020F0F80040EAC10028600DE0C8F800A06E
:103A9000FEF73AFF064604E0FEF736FF801B0228D9
:103AA0001FD828688007F7D42078000722D5864FD2
:103AB00087486169703771B101210160FEF724FF09
:103AC000064604E0FEF720FF801B022809D838686C
:103AD0008007F7D50EE0C0F800A0FEF715FF0646F8
:103AE00005E082E0FEF710FF801B02287DD83868D1
:103AF0008007F7D42078400768D5DFF8CCB10027DD
:103B00000BF13C0BDBF80000C0000BD4DBF800101D
:103B100041F08051CBF80010DBF80000012700F0E5
:103B2000805000906B4E3068C00510D4306840F46F
:103B300080703060FEF7E8FE009005E0FEF7E4FEDE
:103B40000099401A022850D83068C005F6D55E4E5C
:103B5000A0686C3601280FD00528306810D020F0FE
:103B600001003060306820F004003060A068B8B117
:103B7000FEF7CAFE00900FE0306840F00100F4E765
:103B800040F004003060F7E7FEF7BEFE0099411AEE
:103B900041F28830814266D830688007F4D50EE063
:103BA000FEF7B2FE009007E0FEF7AEFE0099411A64
:103BB00041F28830814256D830688007F4D42FB162
:103BC000DBF8001021F08051CBF80010A069C8B3D9
:103BD0003D49091D0968C1F3810102294AD0022823
:103BE000504607D0C8F8600000E03CE0FEF78CFECD
:103BF00004463BE04746C8F86000FEF785FE0646EF
:103C000005E000BFFEF780FE801B02282BD8286845
:103C10008001F7D4D4E907010843A16A2E4A490874
:103C200002EB0141626A41EA8211084394F82C10C8
:103C300040EA0161C9F8001001203866FEF764FE11
:103C4000044606E03EE000BFFEF75EFE001B0228D1
:103C500009D828688001F7D534E000BFFEF754FE8C
:103C6000001B022802D90320BDE8F88F28688001D4
:103C7000F4D427E00128F7D0D9F80000E26900F475
:103C8000800191421CD1226A00F03F01914217D17C
:103C900047F6C071626A0140B1EB821F10D1A26A7F
:103CA0004FF0FF3300F4403103EB5202B1EB024F0F
:103CB00006D194F82C1000F07060B0EB016F01D0C9
:103CC0000120D1E70020CFE704380240000047423E
:103CD000800E4742007000400000FFFF70B50400F6
:103CE00009D0606A002540B125616561A56294F83C
:103CF000510040B10CE0012070BD6068B0F5827FDA
:103D0000F4D0E561F2E784F85050204600F044F822
:103D1000022084F851002068016821F04001016010
:103D2000A088218900F4827001F404410843A1892C
:103D300001F400610843217C01F002010843217D68
:103D400001F001010843218B01F400710843217F38
:103D500001F03801084394F8201001F08001084375
:103D6000218D01F40051084321680860A0690421F5
:103D700001EA104094F8241001F010010843216872
:103D800048602068C16921F40061C1616565012056
:103D900084F85100002070BD2DE9F04186B0064640
:103DA00014216846FCF702FC35493068884264D12A
:103DB00034480024016841F480510160006800F437
:103DC000805005902F481438016841F002010160CD
:103DD000016801F002010591016841F001010160F3
:103DE0000068022500F0010005901820CDE90005CB
:103DF00002AA03274FF0050882E89001694622488D
:103E0000FEF784FC8020CDE9000502AA694682E81D
:103E100090011E48FEF77AFC1E4D1D487F06286063
:103E2000C5E901744FF48068C5E903486C617812F4
:103E3000AC61C5E9074028466C62FEF7DDFB08B1BE
:103E4000FDF7CAFEF564AE63124D114860351830B7
:103E5000E5E802074020A5E81101C00245F8144931
:103E6000AC61C5E907400B486C626030FEF7C4FBEB
:103E700008B1FDF7B1FEB564AE6306B0BDE8F081F0
:103E8000003001404438024000040240000002407B
:103E9000406402407C0800202DE9FF4F81B00446B9
:103EA00090F8500000260E9F1D4693464FF00109E2
:103EB00001280FD04FF0010A84F850A0FEF724FD2E
:103EC000804694F85100616801280DD0B1F5827FD9
:103ED00008D103E0022005B0BDE8F08FA16809B960
:103EE000042801D00226C9E00298002865D0BBF161
:103EF000000FFBD0002DF9D094F85100042802D017
:103F0000052084F8510000206065C4F838B0E587CA
:103F1000A58702992163E586A586206460642068F0
:103F20000168490603D4016841F040010160E0687E
:103F3000B0F5006F606803D0F0B3012D47D081E089
:103F400008B1012D3CD1206B21680088C860206B2E
:103F5000801C2063E08E401EE08631E0206881688E
:103F600089070FD5E18E69B1B9F1010F0AD1216B33
:103F70000988C160206B801C2063E08E401EE086B3
:103F80004FF0000920688168C9070CD0E18F51B15A
:103F9000C068A16B0880A06B801CA063E08F401EEE
:103FA000E0874FF00109FEF7AFFCA0EB0800B84234
:103FB00006D3781C04D001E009E05BE003265BE057
:103FC000E08E0028CAD1E08F0028C7D140E0206BE6
:103FD000216800780873206B401C2063E08E401E2F
:103FE000E0862FE02068816889070FD5E18E69B1EE
:103FF000B9F1010F0AD1216B09780173206B401CC4
:104000002063E08E401EE0864FF000092068816842
:10401000C9070CD0E18F51B1C068A16B0870A06BCB
:10402000401CA063E08F401EE0874FF00109FEF7BF
:104030006BFCA0EB0800B84202D3781C02D0BAE7B0
:10404000002FB8D0E08E0028CCD1E08F0028C9D155
:1040500042463946204603F02FF818B101262020A9
:1040600060650BE0A06818B92068C168806800909E
:10407000606D08B1012601E084F851A0002084F8A9
:104080005000304627E770477047000070B590F841
:104090003C20012A32D0012480F83C40022280F8E2
:1040A0003D2003685A689D6822F070060A68324312
:1040B0005A60134B02689A4214D0B2F1804F11D06B
:1040C000104B9A420ED0104B9A420BD00F4B9A4293
:1040D00008D00F4B9A4205D00E4B9A4202D00E4B9D
:1040E0009A4204D1496825F080031943916080F811
:1040F0003D40002180F83C10084670BD022070BD94
:10410000000001400004004000080040000C004096
:1041100000040140004001400018004010B50400B8
:1041200003D094F83D0010B107E0012010BD00203D
:1041300084F83C00204600F01FF8022084F83D007F
:10414000211D206803F0D4F8012084F8460084F88B
:104150003E0084F83F0084F8400084F8410084F871
:10416000420084F8430084F8440084F8450084F851
:104170003D00002010BD000008B5134A0168134837
:10418000914207D1016841F004010160006800F02C
:10419000040009E00E4A914208D1016841F008018B
:1041A0000160006800F00800009008BD09488142E5
:1041B000FBD10648001D016841F400310160006830
:1041C00000F40030F0E700000008004040380240F2
:1041D000000C00400044014090F83D10012901D03E
:1041E00001207047022180F83D1000681149884283
:1041F00014D0B0F1804F11D00F4988420ED00F4932
:1042000088420BD00E49884208D00E49884205D01A
:104210000D49884202D00D49884204D1816801F0DD
:104220000701062903D0016841F001010160002067
:1042300070470000000001400004004000080040FA
:10424000000C004000040140004001400018004004
:1042500090F83D10012901D001207047022180F81B
:104260003D100168CA6842F00102CA600068114945
:10427000884214D0B0F1804F11D00F4988420ED03F
:104280000E4988420BD00E49884208D00D49884219
:1042900005D00D49884202D00C49884204D181687A
:1042A00001F00701062903D0016841F00101016016
:1042B000002070470000014000040040000800405A
:1042C000000C004000040140004001400018004084
:1042D00070B5044690F83C000025012817D001264F
:1042E00084F83C60022084F83D002068826822F057
:1042F000770222F47F4282600868502838D00DDCB3
:1043000020284FD005DC90B3102811D14AE00220BC
:1043100070BD302846D040280AD13BE060282FD01D
:1043200070280DD0B0F5805F03D0B0F5005F12D0DB
:10433000012584F83D60002084F83C00284670BDCB
:10434000CB68D1E90121206803F04BF8206881682F
:1043500041F0770109E0CB68D1E90121206803F041
:1043600040F82068816841F480418160E1E719E00C
:10437000CA684968206803F01EF95021206806E0E9
:10438000CA684968206803F027F96021206803F0B3
:1043900032F8CEE7CA684968206803F00CF940217A
:1043A0002068F4E7226801461046F0E770472DE9DF
:1043B000F04104460068C66805694FF00007A90788
:1043C00013D5B10711D5F91E0161012020772068AE
:1043D00080698007204602D0FFF7E8FF04E000F084
:1043E000D9F8204600F06BF92777680716D57007D3
:1043F00014D521686FF0040008610220207720683E
:10440000806910F4407F204602D0FFF7CFFF04E020
:1044100000F0C0F8204600F052F92777280715D59C
:10442000300713D521686FF0080008610420207759
:104430002068C0698007204602D0FFF7B7FF04E07C
:1044400000F0A8F8204600F03AF92777E80616D5DC
:10445000F00614D521686FF010000861082020775D
:104460002068C06910F4407F204602D0FFF79EFF0D
:1044700004E000F08FF8204600F021F92777E807E4
:1044800008D0F00706D021686FF0010008612046CF
:1044900000F07AF9280608D5300606D521686FF0B5
:1044A000800008612046FFF7EEFD680608D570061B
:1044B00006D521686FF040000861204600F06BF9D6
:1044C000A8060AD5B00608D521686FF0200008615B
:1044D0002046BDE8F041FFF7D7BDBDE8F081000000
:1044E00030B587B0044614216846FCF75FF8224DCA
:1044F00023682249022001220324AB4210D10B6819
:1045000043F008030B60096801AB01F00801059155
:104510004103009183E8150004906946184813E0B0
:10452000184DAB4214D10B6843F080030B6009684F
:10453000CDE9022001F0800105914FF4E051CDE971
:104540000010049069461048FEF7E0F807B030BD4F
:104550000E4DAB42FAD10B6843F020030B600968A3
:10456000CDE9022001F0200105914021CDE90010A4
:10457000694604940648E7E70008004030380240E6
:10458000000C0240000C0040001C024000440140AE
:1045900000140240704770B5044690F83C000026B5
:1045A0000D4601280FD0012084F83C006AB1042A8E
:1045B0001DD0082A2FD00C2A3FD00126002084F8D5
:1045C0003C00304670BD022070BD206802F01CFF28
:1045D0002068816941F0080181612068816921F0CA
:1045E00004018161206881692A69114311E0206812
:1045F00002F03AFF2068816941F40061816120681E
:10460000816921F480618161206881692A6941EAB8
:1046100002218161D2E7206802F05CFF2068C16955
:1046200041F00801C1612068C16921F00401C16144
:104630002068C1692A69114311E0206802F07EFFF9
:104640002068C16941F40061C1612068C16921F439
:104650008061C1612068C1692A6941EA0221C161A2
:10466000ACE710B5040003D094F83D0010B107E0AA
:10467000012010BD002084F83C00204600F01EF808
:10468000022084F83D00211D206802F031FE012047
:1046900084F8460084F83E0084F83F0084F8400027
:1046A00084F8410084F8420084F8430084F8440010
:1046B00084F8450084F83D00002010BD7047704725
:1046C00010B50446022249B104290ED0082913D09E
:1046D00094F84100012816D0012010BD94F83E0046
:1046E0000128F9D184F83E200FE094F83F0001281A
:1046F000F2D184F83F2008E094F840000128EBD183
:1047000084F8402001E084F841200122206802F072
:104710005BFE16492068164A884201D0904203D1B8
:10472000436C43F4004343642068884213D0B0F1E3
:10473000804F10D00F4988420DD00F4988420AD0CF
:104740000E49884207D0904205D00D49884202D0D8
:104750000C49884204D1816801F00701062903D081
:10476000016841F001010160002010BD000001401E
:10477000000401400004004000080040000C00401C
:1047800000400140001800400068B0F1804F01D1A6
:10479000FEF7F8B97047704770B5040004D094F87C
:1047A0004100002510B106E0012070BD84F84050A2
:1047B000204600F023F8242084F841002068C168D6
:1047C00021F40051C160204602F018FF2068016901
:1047D00021F4904101612068416921F02A01416181
:1047E0002068C16841F40051C1606564202084F8EC
:1047F000410084F842006563002070BD70B586B04A
:10480000064614216846FBF7D1FE244930688842E9
:1048100042D123480025016841F4802101600068ED
:1048200000F4802005901E481038016841F0040112
:1048300001600068694600F0040005904FF4406094
:1048400000900220CDE90105032003900720049089
:104850001448FDF75BFF154C134820604FF00060D3
:10486000C4E901054014C4E9035065614FF44030C8
:10487000A561C4E9075020466562FDF7BDFE08B199
:10488000FDF7AAF9F463002205212720A663FEF7AD
:1048900011FA2720FEF700FA06B070BD004800406C
:1048A0004038024000080240286002405C0A0020B4
:1048B00070B5044600203C4D2074A27B28886168B6
:1048C0004243D4F8FC00FBF71DFEA17B288841433E
:1048D0006068FBF76BFEA07B10FB00F1288841436A
:1048E000D4F82401FBF762FE207BA17B10FB01F1D1
:1048F00028884143D4F81801FBF758FE00202BE02C
:10490000D4F8FC1001EB800292ED000AB5EEC00A6B
:10491000F1EE10FA1ED0227C01EB820181ED000A3B
:10492000227C616A8854A169227B01EB8001237C8F
:1049300091ED000A6169095C12FB03116FF003023B
:1049400002EB8101D4F81821114481ED000A217C89
:10495000491C2174401CC0B2A17B8142D0D80020E8
:1049600010E0636AE2691B5C02EB830292ED000ACD
:1049700010FB0101D4F82421401C02EB8101C0B2DC
:1049800081ED000A217C8142EBD8C8B224F8800F67
:1049900014F8740C608020816181218361832084FC
:1049A000618424F8381C70BD00030020FEE700007D
:1049B000F0B58D4C0F462DED068B054687B016469B
:1049C000D0ED040A94ED050A884830EEC00AB0EE36
:1049D000C00A10EE101A814219DC95ED050A94ED1B
:1049E000061A30EE410AB0EEC00A10EE101A8142EB
:1049F0000DDC95ED060A94ED071A30EE410AB0EE93
:104A0000C00A10EE101A814201DC2878F0B39FED45
:104A1000789A80EE890AFBF723FFF0EE400AF0EE69
:104A2000609AD5ED050A80EE890AFBF719FFD5EDEE
:104A3000060AF0EE401A80EE890AB0EE61AAFBF792
:104A40000FFFD5ED040AF0EE40AA80EE890AFCF7CC
:104A500076FAF0EE400AB0EE608AD5ED050A80EEF7
:104A6000890AFCF76CFAD5ED060AF0EE408A80EE72
:104A7000890AFCF764FA29EEAA2A68EE280AB0EE41
:104A8000401AB0EE420A00EE810A00E02BE084ED0D
:104A9000080A2AEE080A6AEE880A002084ED090A4C
:104AA00029EE810A00EEE80A84ED0A0A29EEA80A36
:104AB00020EE010A0AEEC80A84ED0B0A29EE8A0AE2
:104AC00084ED0C0A28EE410A02EE680A84ED0D0A14
:104AD0002AEE410A84ED0E0A2AEE2A0AC4ED0F8A54
:104AE00084ED100A287000204FEA0D0107EB8002C8
:104AF00092ED000A05EB8002D2ED010A01EB800283
:104B0000401C20EE200AC0B2032882ED000AEDD33B
:104B10009DED000AD4ED085A9DED011A94ED094A65
:104B200020EE252ADDED020AD4ED0A1A002004EE5B
:104B3000012A03A901EEA02A87ED002A94ED0B3A81
:104B4000D4ED0C2A94ED0D2A60EE033A42EE813A40
:104B500042EE203AC7ED013AD4ED0E3AD4ED0F4AB9
:104B600094ED105A20EE230A04EE810A05EE200A85
:104B700087ED020A06EB800292ED000A01EB80024B
:104B8000401CC0B282ED000A0328F3D39DED031A46
:104B9000DDED040A9DED050A61EE255A44EE205A2A
:104BA00041EE805A61EE031A21EE231A42EEA01A5A
:104BB00004EEA01AC6ED005A42EE001A05EE001AE5
:104BC000C6ED011A86ED021A95ED040A84ED050A78
:104BD00095ED050A84ED060A95ED060A84ED070AAF
:104BE00007B0BDEC068BF0BD140100206F12833AB4
:104BF000E12E654210B504462DED048BD0F8F4008B
:104C0000D0ED009A90ED019AD0ED028A29EEA90A22
:104C100090ED038A09EE090A08EEA80A08EE080AD0
:104C200006F0BAFB5FF00000D4F8F41001EB80014D
:104C3000401CD1ED000AC0B2042860EE800AC1ED2C
:104C4000000AF1D33E48D4F8081190ED710A60EEE5
:104C5000090AB6EE000A60EE800AC1ED040AD0ED42
:104C6000710AD4F8081160EEA80A60EE800AC1ED5E
:104C7000050AD0ED710AD4F8081120EEA91AFEEE4B
:104C8000000A21EE201A81ED0A1A90ED711AD4F86B
:104C9000081121EE081A21EE001A81ED0B1A90ED91
:104CA000711AD4F8081121EE081A21EE201A81EDAC
:104CB000101A90ED711AD4F8081121EE291A21EE7C
:104CC000201A81ED111A90ED711AD4F8081121EE15
:104CD000281A21EE000A81ED160A90ED710AD4F827
:104CE000081120EE090A20EE200A81ED170AD4F8F7
:104CF0000011D0ED760A91ED1C0A80EE201A81EDAC
:104D00001C1AD4F80011D0ED760A0E4891ED230A52
:104D100080EE201A9FED0C0A81ED231AD4F80011C1
:104D20000A6F824201DD81ED1C0AD4F80011D1F82E
:104D30008C20824201DD81ED230ABDEC048B10BD85
:104D40009028002000401C4600401C4670B52C4CAA
:104D500001252DED028B04F5DC702570B7EE008A7D
:104D600080EC030A00209FED270A84ED750A84F881
:104D70004401C4E95200C4E9540011EE900AB0F1B4
:104D80007E5F01DDF0EE481AC4ED761A84ED662AE6
:104D9000032300220621201D00F02CFE1A4B0122C5
:104DA0001146A3F10800FBF7F9FD54F8F40F9FED4D
:104DB000170A902280ED008A54F86409184980EDA2
:104DC000010A606E80ED020A606E80ED030A1048F1
:104DD000A0641048E064104820651048606504F83D
:104DE000625C04F8615CE06FFBF78CFB606F902203
:104DF000BDEC028B0B49BDE87040FBF783BB0000A4
:104E00009028002077CC2B32602A00200000000080
:104E1000294E0008F54B0008614E00083953000880
:104E200038CE00085C02002010B50446D0F800110E
:104E30009022094804F58074FBF764FB4822074878
:104E4000A16AFBF75FFB0548A1694822BDE8104055
:104E50004830FBF757BB00005C020020782A002096
:104E600070B50446B0EE000A54F8F40F2B4DD0EDA7
:104E7000000A60EE800AC5ED090AD0ED010A60EE75
:104E8000800AC5ED0A0AD0ED020A60EE800AC5ED7F
:104E90000B0AD0ED030A20EE800A85ED0C0A14F807
:104EA000E60C14F8E81C10FB01F11D480088414392
:104EB000606AFBF77BFBD5ED0B1A606AB1EE612AE5
:104EC00080ED002A606AD5ED0C0AC0ED010A95ED6F
:104ED000090A606AB1EE401A80ED021A606A95ED27
:104EE0000A1A80ED031A606A80ED061A606A80ED86
:104EF000070A606AC0ED080A606AC0ED091A606AB4
:104F000080ED0C0A606AB1EE410A80ED0D0A606A1C
:104F100080ED0E2A606AC0ED0F0A70BD18020020F5
:104F20000003002070B5F74C2DED088BB0EE438ADE
:104F3000F0EE629AB0EE42AAF0EE61AA2078B0EEEE
:104F4000419AB0EE60BAF0EE40BADFEDEF8A58B9A0
:104F5000B0EE682AF7EE001A9FEDEC1ADFEDEC0ACE
:104F6000B2EE040AFFF7F2FE84ED718A94ED5A0A5C
:104F7000E84D90227BEEC00AE749C4ED5D0A94ED4E
:104F80005B0A3BEE401A84ED5E1A94ED5C0A79EE02
:104F9000401AB6EE000A60EE800AC4ED5F1A60EEB9
:104FA000880AC5ED000A61EE000A21EE800A60EE73
:104FB000880A20EE080AC5ED010A85ED020AD4F838
:104FC0000C0104F58674FBF79DFA95ED000A206844
:104FD000B1EE402A80ED012A95ED011A2068F1EE2C
:104FE000412AC0ED022AD5ED021A2068F1EE610ACD
:104FF000C0ED030A206880ED060A2068C0ED081A9B
:105000002068C0ED092A206880ED0C1A2068C0EDE8
:105010000D0A206880ED0F0A2068C0ED121A206882
:1050200080ED131A54F8440B80ED142A74E85401EF
:10503000084305D1C4ED60AA84ED61AAC4ED629A6B
:1050400094ED600AD4ED660A94ED711A20EE202AE0
:1050500031EE200AC2EE001A21EE2A2AC2EE002A00
:1050600031EEA22A84ED602AD4ED611A61EEA02A05
:10507000C2EE801A61EE0A2A21EE291A82EE803AE7
:1050800071EE831AC4ED611AD4ED622A62EEA02A91
:10509000C2EE800AC1EE002A22EE020A01EEA10A47
:1050A00070EEA20AC4ED620A00EEA00A06F074F9DE
:1050B00085ED030A5FF0000004EB8001D1ED600A8A
:1050C000A16801EB800160EE800A401CC0B2C1ED16
:1050D000000A0328F0D394ED5D0AD4ED5E0A20EEB9
:1050E000000A00EEA00AD4ED5F0A00EEA00A06F066
:1050F00053F9B7EE008A8949C8EE000AC4ED670A81
:1051000095ED031A10EE900A88EE010A884284EDAC
:10511000680A0BDA10EE100A8149884206DD10EEAB
:10512000100A8049884201DA012000E0002084F85A
:10513000450194ED6E0AD4ED710AD4F8240120EEF5
:10514000200A80ED000A94ED6E0AD4ED710AD4F8BD
:10515000240120EE200A80ED070A94ED6E0AD4EDBA
:10516000710AD4F8240120EE200A80ED0E0A94ED95
:105170006E0AD4ED710AD4F8240120EE200A80EDE5
:10518000150A94ED6F0AD4ED710AD4F8240120EECB
:10519000200A80ED1C0A94ED6F0AD4ED710AD4F850
:1051A000240120EE200A80ED230AD4F8280194ED92
:1051B000700A80ED000AD4F8280194ED700A80EDA1
:1051C000040AD4F8280194ED700A80ED080A201D25
:1051D00000F0FAFE606890ED001A84ED561A90ED2A
:1051E000010A61EE012A84ED570AD0ED021AC4EDDE
:1051F000581A90ED032A40EE002A84ED592AD0ED8A
:10520000040A21EE021AC4ED5A0AD0ED050AC4EDD3
:105210005B0A00EE211AC4ED5C8AF0EE008AF0EE23
:10522000480A52EEA80A21EE280A04F095F99FEDEB
:105230003E9AF0EE480A20EE090A84ED6C0A94EDDD
:10524000561A94ED590A61EE011A40EE001A51EE19
:10525000A80AD4ED571A21EE211AD4ED581A01EEFE
:10526000801A21EE280A04F077F920EE090A84ED6D
:105270006B0A94ED570AD4ED590A94ED581A20EEB2
:10528000200AD4ED560A00EEC10AF8EE000A20EE1C
:10529000200A04F0CBF820EE090A244984ED6A0ABA
:1052A00094ED6C0AD4ED780A70EE600A10EE900A64
:1052B000884203DDB4F8DC01401E07E010EE900ADE
:1052C0001B49884204D9B4F8DC01401CA4F8DC0175
:1052D000B4F9DC01DFED171A00EE900AB8EEE01A1F
:1052E000F0EE400A41EE210AC4ED6D0A84ED780A21
:1052F000F4E95401401C41F10001C4E90001BDEC96
:10530000088B70BD90280020000000008096184B8C
:105310006F12833A1802002038CE00089A99993EFD
:10532000CDCC1441CDCC2441E12E65420000344364
:10533000000034C30000B4432DE9F84F00F18801A8
:105340000446803005460091FBF7A0FD84F8D000AC
:10535000B4F88000A4F8B000B4F85A00A4F8B20081
:1053600004F1B00204F1580191468B462846FBF740
:1053700087FC84F8D000B4F8B000A4F8B800B4F802
:105380008A00A4F8BA0004F1B80290464846009991
:10539000FBF776FC84F8D000B4F89800A4F8A800D5
:1053A000B4F89A00A4F8AA0004F1A802154604F182
:1053B00098014046FBF7A8FA84F8D00041462846F9
:1053C000BC34FBF7EFFA2075A16BBF480126D1ED85
:1053D000001AB0EE002AC0ED0D1AD1ED010A002727
:1053E000C0ED0E0A91ED020AB84D80ED0F0A91ED65
:1053F000031A80ED101A60EE812A34F83C0CA0806C
:10540000E68041EEC02AE06F62EE822AC0ED002AFB
:1054100061EEA02A61EEA11AE06F40EE012A40EE93
:10542000E01A22EE822A40EE401A80ED012AE06F57
:10543000B4F1BC0441EE011AC0ED021AD4F83801EF
:1054400000EB870090ED000AB0EEC00A03F062FFA7
:1054500005EB87007F1CFFB280ED630A032FEDD3BD
:10546000B4F84800A4F8C80004F1C80204F1C0016F
:10547000A4F8CA6017468A4604F14800FBF7BCFC52
:1054800084F8D000B4F8C800A4F8B00024F8B26FD3
:105490004A4639464046FBF7F3FBA077E681E08AAF
:1054A000208251463846FBF7F1FCA077884A4946EE
:1054B0005046FBF7E5FBA07795ED750AB6EE001AAE
:1054C000D5ED740A20EE011AB23CF4EEC10AF1EEF9
:1054D00010FA01D285F84461F4EEC00A0020F1EE22
:1054E00010FA35DD95F8441189B395F8451139B1B5
:1054F000D5E95221521C41F10001C5E9522102E0D7
:105500000021C5E95211D5E952234FF0320C002198
:10551000BCEB0202994102D285F8440136E06D4DA0
:1055200014F80C2F28884243D4E939017C34FAF767
:10553000E9FF14F87C0C10FB00F228884243D4E900
:105540001E01FAF7DFFF04F85C6CBDE8F88FFFE797
:105550009FED611A20EE011AF4EEC10AF1EE10FA85
:105560000DDD95F8441151B170EE600A9FED5B1AA4
:1055700020EE010A80EE801A85ED691A03E0B7EE8D
:10558000000A85ED690A0021C5E9521184F82C0052
:10559000B4F85800A4F8B000B4F88A00A4F8B20037
:1055A0004A46584674340099FBF76AFB04F85C0FCE
:1055B000A4F13002934641464846D03CFBF760FBDD
:1055C00084F8D00000200DE0D4F82811D5ED690A48
:1055D00001EB8001401C91ED000AC0B220EE200AD0
:1055E00081ED000AB4F8A010B4F8A2205143814222
:1055F000EADC04209FED3A0A002105EB800C00EB69
:10560000400300BF9CED5F1AD4F8282103EB01088A
:10561000C1EE000A02EB8802491C92ED001AC9B2E1
:10562000032960EE810AC2ED000AEBD3401CC0B230
:105630000628E1D334F8A00F524620846684394608
:105640005846FBF71DFB84F8300095F84401A03C58
:1056500050B39FED240ADFED240A0420D4F8C410CF
:1056600095ED711A01EB800121EE001AD1ED001ABF
:10567000F4EEC11AF1EE10FA01DD81ED001AD4F852
:10568000C41095ED711A01EB800121EE201AD1EDC5
:10569000001AF4EEC11AF1EE10FA01D281ED001AEF
:1056A000401CC0B20628D9D3D4F8C4009FED0F0A1D
:1056B00004F1300280ED030A514604F13800FBF793
:1056C00023F984F8D00040E7180200209028002039
:1056D000582A002000030020CDCCCC3D6666663FF2
:1056E000DA0FC93F0AD7233C0AD723BC00000000C9
:1056F000114810B590ED070A1048D0ED030A104884
:1057000001F04CFA0E4890ED0D0A05F0CBFB00EECF
:10571000100A9FED0C1ADFED0C0AB8EEC00A05F076
:10572000B1FBBCEEC00ABDE8104010EE100A00212B
:1057300082B2064801F02ABFA42C002014010020E8
:10574000E42600200000804F00000000CC0900206B
:1057500010B52348B7EE000A2DED028B012180ED34
:10576000010A80ED020A9FED1F8A80ED030A80ED99
:10577000048A80ED058A80ED068A0170B0EE482A21
:10578000F7EE001A9FED181ADFED180AB2EE040AC0
:10579000FFF7DCFA00221146F0EE484AB0EE484A24
:1057A000F0EE483AB0EE483AF0EE482AB3EE042A5A
:1057B000DFED0F1AB0EE481ADFED0E0A9FED0E0A6C
:1057C0000E4801F011FC00210D48FEF779FF044856
:1057D0009FED0C0A803880ED100ABDEC028B10BDE5
:1057E00010280020000000008096184B6F12833AAA
:1057F00000007A44000096430000FA44E4260020AA
:10580000CC09002096430B3C70B563492DED028B0B
:1058100088B007C904AB83E807006048FCF7A8F824
:105820005E4D5F4885ED010AD5ED020A30EE800A33
:1058300085ED020AFBF7F4FB59485A4C90ED000A3B
:1058400004F11C0284ED070A90ED010AA2F10C019B
:1058500084ED080A90ED020A84ED090A90ED030A2E
:1058600084ED040A90ED040A84ED050A90ED050A22
:1058700001F1700084ED060AFFF79AF8D4ED090AE9
:1058800094ED070A03F068FE9FED478A20EE080AB0
:10589000DFED460A80EE201A84ED1A1AD4ED090ACB
:1058A00094ED080A03F058FE20EE080ADFED400AE6
:1058B00004F1100080EE201A84ED1B1A95ED013AD8
:1058C00090EC060AFFF72EFB3A4E20464ECE80E8BB
:1058D0004E00024600F144012F482438FBF7EFFC4C
:1058E0002D48224602F150011838FBF7E8FC2A48FF
:1058F000224602F15C010C38FBF7E1FC22466946C6
:1059000004A8FCF7F4F895ED010A00204FEA0D0217
:1059100004EB800102EB8003D1ED070A93ED001A3E
:10592000401CC0B270EEC10A032820EE802AD4EDDC
:10593000100A30EE801AC2EE011A91ED0A2A62EEC8
:10594000200A80EE812A71EE820AC1ED0A0ADFD3B5
:10595000144A02F13401A1F10C00FBF7B0FC164827
:1059600090ED6C0A84ED1E0A90ED6B0A84ED1D0A21
:1059700090ED6A0A84ED1C0A90ED6D0A84ED1F0A11
:10598000287CC00701D1FFF7B3FE2869401C2861BD
:1059900008B0BDEC028B70BD2CCE000814010020B5
:1059A000A42C00209027002000003443DB0F49C0C6
:1059B000DB0F4940E829002090280020F0B50023A3
:1059C0000A24302537261F4611E000BFB4EB107FB4
:1059D00002D905EB107C01E006EB107C01F813C046
:1059E00001EB430C00015B1C8CF80170DBB29342AD
:1059F000ECD3F0BD2DE9F047DFF8DC830D46042140
:105A0000A8F800100821A8F80210057342738373E8
:105A10004FF000091E46044680F8109017463046A5
:105A2000FAF7A6FC31466061FAF79EFDB8F800006F
:105A30007043FAF79DFCA061B8F800107143FAF7C3
:105A4000B5FDB8F800007043FAF792FCE061B8F8D1
:105A500000107143FAF7AAFDB8F800006843FAF79E
:105A600087FC2062B8F800106943FAF79FFD3046C2
:105A7000FAF77EFC31466062FAF776FDB8F800006E
:105A80006843FAF775FC2060B8F800106943FAF72C
:105A90008DFDB8F800007043FAF76AFC6060B8F852
:105AA00000107143FAF782FDB8F800007843FAF766
:105AB0005FFCA060B8F800107943FAF777FDB8F8FA
:105AC00000006843FAF754FCC4F8F000B8F800107E
:105AD0006943FAF76BFD217B012204F13000D4F811
