:020000040800F2
:1000000000A000209D440008094500084937000869
:100010004B3700084D370008094500080000000074
:10002000000000000000000000000000094500087A
:100030000945000800000000094500086158000853
:100040000945000809450008094500080945000858
:100050000945000809450008094500080945000848
:100060000945000809450008094500080945000838
:100070000945000809450008094500080945000828
:100080000945000809450008094500080945000818
:100090000D01001009450008094500080945000840
:1000A00009450008094500080945000809450008F8
:1000B00009450008094500080945000809450008E8
:1000C00009450008094500080945000809450008D8
:1000D000094500080101001009450008070100104A
:1000E00009450008094500081101001009450008EC
:1000F00009450008094500080945000809450008A8
:100100000000000000000000000000000945000899
:100110000945000809450008094500080945000887
:100120000945000809450008094500080945000877
:100130000945000809450008000000000000000013
:1001400009450008094500080945000800000000AD
:10015000000000000000000000000000000000009F
:1001600000000000000000000945000809450008E3
:100170000945000800000000000000000000000029
:08018000000000000945000821
:10018800844641EA000313F003036DD1403A41D39A
:1001980051F8043B40F8043B51F8043B40F8043B59
:1001A80051F8043B40F8043B51F8043B40F8043B49
:1001B80051F8043B40F8043B51F8043B40F8043B39
:1001C80051F8043B40F8043B51F8043B40F8043B29
:1001D80051F8043B40F8043B51F8043B40F8043B19
:1001E80051F8043B40F8043B51F8043B40F8043B09
:1001F80051F8043B40F8043B51F8043B40F8043BF9
:1002080051F8043B40F8043B51F8043B40F8043BE8
:10021800403ABDD2303211D351F8043B40F8043B88
:1002280051F8043B40F8043B51F8043B40F8043BC8
:1002380051F8043B40F8043B103AEDD20C3205D398
:1002480051F8043B40F8043B043AF9D2043208D090
:10025800D2071CBF11F8013B00F8013B01D30B8802
:1002680003806046704700BF082A13D38B078DD0E0
:1002780010F003038AD0C3F10403D21ADB071CBFB2
:1002880011F8013B00F8013B80D331F8023B20F81C
:10029800023B7BE7043AD9D3013A11F8013B00F855
:1002A800013BF9D20B7803704B7843708B788370DD
:1002B80060467047002330B51D46DCB2A2420CD917
:1002C800040F092C94BF3034373401F8134001EB84
:1002D8004304000165700133EFE730BD054BB3F807
:1002E800062292B2A3F80422B3F80A2292B2A3F823
:1002F80008227047480A002008B5002003F072FD64
:1003080001214FF40000BDE8084003F089BD00005A
:10031800014B03221A60704718020020044B9A7A96
:10032800044B0AB1052200E001221A60704700BFA1
:10033800981400201802002007B514238DF8043003
:100348000B238DF8053000238DF8063001A8012312
:100358008DF8073003F098FB03B05DF804FB07B590
:1003680088B94FF48053009303238DF805308DF836
:100378000700012369464FF090408DF804308DF84E
:10038800063003F0ABFA03B05DF804FB02F0F2BCF0
:10039800402102F015BD000070B50C4E337890B0C6
:1003A80093B96846FFF7F4FF054668B10124024691
:1003B800C0216846347000F0DBFF2046294601F072
:1003C8009FF8204601F040F810B070BD00020020F0
:1003D8000A4B0B4A1B681068181810B50CD0094B4B
:1003E80009491C680822FFF765FF204604220749CF
:1003F800BDE81040FFF75EBF10BD00BFACF7FF1FA0
:10040800B4F7FF1FB0F7FF1F020000201200002002
:1004180070B50D4E3578012D90B012D16846FFF7B2
:10042800B7FF044660B10246C021684600F0A0FF4D
:100438002846214601F064F8284601F005F800E056
:10044800307010B070BD00BF0002002010B5074C1E
:100458000320214601F0EEF8C1B22046FFF796FFCF
:100468000320BDE8104001F002B800BF20140020AE
:10047800084B1B68052B0BD1074B1A68052A02F19C
:10048800010101D01960704700221A60FFF784BF8C
:10049800704700BF180200200402002070B5514CBC
:1004A800514D2368514E9BB22B802A8833881340C4
:1004B800980588B009D54FF6FF534D4A2360137845
:1004C8000133DBB21370FFF7D3FF2A883388134058
:1004D800190401D500F092FE2A88338813405A0582
:1004E80005D54FF6FF332360424B5B6898472A884F
:1004F80031880A40930444BF4DF6FF7323602B886C
:100508000B40D80405D54EF6FF732360002000F099
:10051800DDF92A883388134019050BD5364B1B782B
:1005280013B100F0B3F902E0022000F0CFF94FF266
:10053800FF7323602A8833881340DA0550D54FF6B5
:10054800FF6323602D4B2E481B6813F4004343D0F0
:100558000368013303600368032B3ED929490B68FC
:1005680013F0080339D10D68274AADB2156003F1BD
:10057800805505F5B855AD0008AE2D6806EB830625
:100588000133ADB2082B46F8205CF0D1136843F074
:100598000103136013689BB20B60136823F0010317
:1005A800136013689BB20B6023685B05FCD50D4B89
:1005B8004FF6FF321A60002308A901EB830103F10B
:1005C800805251F8201C02F5B8529200013389B2CA
:1005D800082B1160F0D100230360072000F076F9A2
:1005E80008B070BD445C004060140020BC140020BA
:1005F8000C0200205C000020E2000020485C004063
:1006080010020020405C004008020020034B9B7A47
:1006180013B1034B05221A60704700BF98140020DD
:1006280018020020014B04221A60704718020020AB
:10063800034B1A78202A04BF00221A70704700BFA3
:100648001402002070470000212810B508D1114B72
:100658001B681B7803F07F03212B10D0022010BDEC
:100668002028FBD10B4B0C4A1B681B78107003F039
:100678007F03212B094B18BF00230BB9EEE7084B6A
:10068800044A126800249361548220469847204601
:1006980010BD00BFB814002014020020E1060008B5
:1006A800F9060008074B1B681B7803F07F03212B12
:1006B80006D100F0DF00022814BF02200020704796
:1006C80002207047B814002021B901288CBF0220ED
:1006D800002070470220704720B9034B1B6808228E
:1006E8001A82704701487047B8140020D8000020CB
:1006F800FFF7F2BF10B5FFF76BFE054B1B68002430
:100708009C7200F099F800F085FF024B1C6010BD48
:10071800B814002018020020354B364A1B68D279DD
:1007280010B500245A729C72DC72204600F044FE18
:1007380020464FF4007100F047FE2046102100F0DB
:1007480051FE2046402100F02BFF8021204600F07A
:1007580015FF204600F0AEFE274B204693F82C10DC
:1007680000F0DCFE204600F082FE2146012000F069
:100778002BFEC021012000F001FF2021012000F004
:1007880031FE2146012000F046FE4FF4C0610220F0
:1007980000F01AFE4FF48071022000F0EFFE2146AF
:1007A800022000F038FE2021022000F01BFE214626
:1007B800032000F009FE4FF48871032000F0F0FEDA
:1007C8004021032000F0AAFE4FF44051032000F01E
:1007D80022FE2146032000F005FE204600F0A4FC7E
:1007E800064B0122BDE810401A60FFF777BD00BF35
:1007F800B8140020124700085C00002018020020EE
:10080800014900F07FBA00BFB0000020014900F0A4
:1008180079BA00BF54000020054B1B68DB78042B15
:1008280004D8044901EBC30100F06CBA00207047FA
:10083800B8140020B800002008B50120FFF78FFD8C
:10084800064B074901221A60064A0020186010600A
:100858004FF4E0520A801A6008BD00BF405C0040B7
:10086800BC140020445C004038B5064D01232B60C1
:10087800054B00241C602046FFF771FD03232B6005
:10088800204638BD405C0040445C0040064A13687E
:100898009BB243F00803136013689BB243F0040350
:1008A8001360FFF735BD00BF405C004010B5064C33
:1008B80022684FF6FB7313402360FFF72FFD4FF4B8
:1008C8003F43236010BD00BF405C004010B5264C7C
:1008D800072818BF20702378052B41D8DFE803F0DC
:1008E800030B1317212C214B1B6813B9FFF7DEFFED
:1008F80036E0052335E0FFF7D9FF042323701B4BAF
:1009080001221A6010BD02236370032329E0637873
:10091800013BDBB26370637823BB134B04221A706C
:1009280010BD134A13689BB243F0100313600523EC
:1009380023700A23637010BD6378013BDBB26370D8
:10094800637803F0FF016BB9094A10684FF6EF733B
:1009580003401360044B06221A70044B196010BD43
:100968000623237010BD00BF641400201C02002061
:10097800405C004010B5064C18B9236801221A8261
:1009880010BD044B1B681B68984720680A3010BDCF
:10099800B8140020B414002010B5064C18B9236808
:1009A80001221A8210BD044B1B689B689847206877
:1009B8000C3010BDB8140020B414002010B5214A22
:1009C80018B9136802221A8210BD1F481468002340
:1009D8000380217811F07F0102460DD1637A9906D0
:1009E80044BF0221017013F0400F037814BF43F095
:1009F800010323F0010315E0012921D002291ED1AA
:100A0800637913F0800F03F00F034FEA830303F1B8
:100A1800804303F5B8431B6806D003F03003102B5E
:100A280007D10123137004E003F44053B3F5805F4A
:100A3800F6E7064B1B681B699847034810BD184624
:100A480010BD00BFB814002088140020B414002082
:100A58002DE9F843234FDFF8A0803C68238ABBB90F
:100A6800267A042E14D120480278012A0BD11F4A75
:100A780011681F4A89B20A44520013603022A8F84C
:100A88000020037029E01023A8F80030072624E08E
:100A9800A58AAB4294BF042602269D4228BF1D4664
:100AA8002846A36998478146002000F089FD2A4618
:100AB8000146484600F05CFC2946002000F020FD75
:100AC800238A5B1B2382638A1D443023A8F80030E5
:100AD800084B65824FF440521A803B681E72BDE88D
:100AE800F88300BFB814002020020020505C0040AA
:100AF80002300020BE140020C014002010B50A4B9C
:100B08000A491B684978DA7891420AD3997841B939
:100B18009C8834B99A72064B1B685B6898472046D4
:100B280010BD022010BD00BFB8140020E000002056
:100B3800B414002038B50E4A0E4D12682B6892691D
:100B4800D978587990472B689A7A7AB170B91A7916
:100B580062B99C7854B9084B1B68DB6898472B68C6
:100B68005A79DA72DA781A73204638BD022038BD0D
:100B780090140020B8140020B414002038B5314B6C
:100B88001B68187810F07F0004D15A7A22F02002EE
:100B98005A7238BD022853D15A88002A51D11A797D
:100BA800002A4ED15979284D21F08000840004F1A3
:100BB800804202F5B8422D78126811F0800F14BFF8
:100BC80002F0300202F44052A84239D2002A37D04B
:100BD8009B7A002B34D004F1804404F5B8440A060B
:100BE80023680CD503F03003102B23D1C4B2204660
:100BF80000F074FC3021204600F0F4FB1AE003F406
:100C08004053B3F5805F15D128B9104B93F82C10D9
:100C180000F084FC01E000F04FFC236823F48043DB
:100C280023F070039BB283F4405343F4004343F032
:100C380080032360064B1B685B699847002038BD1A
:100C4800022038BDB8140020E00000205C0000201D
:100C5800B414002038B51F4B1F4D18682D78417902
:100C680021F08004A30003F1804202F5B84211F09C
:100C7800800F126814BF02F0300202F44052AC42F6
:100C880025D244881CBB12B3827A02B303F1804395
:100C980003F5B84309061A684BBF22F4E04222F470
:100CA800804222F0400222F070024BBF92B292B210
:100CB80082F0100282F4805242F4004242F0800234
:100CC8001A60064B1B689B699847002038BD0220B4
:100CD80038BD00BFB8140020E0000020B414002084
:100CE80008B5064B1A68537A43F020035372044B35
:100CF8001B68DB699847002008BD00BFB8140020B6
:100D0800B4140020054B10B51C68628A18B98B888A
:100D18009B1A238210BD0868104410BDB814002027
:100D280008B50B4B002093F82C1000F0F7FB094B8B
:100D38001B68187A082806D1074B4FF480521A808E
:100D4800064B10221A80A0F109035842584108BDE9
:100D58005C000020B8140020BE140020C01400203D
:100D6800F7B59E4D9E4E2F6832683B7A092B19D0F5
:100D78009C4B92B213445B001C88640004F18044CD
:100D880004F5C04423783B7063787B70A08800F03A
:100D98003BFC788020892F6800F036FC2B68B880EF
:100DA800A289DA802B6801221A72DA885C78002A14
:100DB80056D11A7812F07F0238D1092C02D1FFF7E8
:100DC8009DFE42E0052C10D193F90320002A01DA98
:100DD800082342E09A78002AFAD19A88002AF7D1A3
:100DE8009B7A002B00F01481F2E7032C10D1DA78FB
:100DF800012A07D07C4B1B6820465B69984703286B
:100E080027D129E09B88002BF4D1FFF769FF1CE06C
:100E1800012CEFD1DA78012AECD19A88002AE9D19D
:100E28005B7A9906E6D5FFF7A9FE0EE0012A04D100
:100E38000B2CDFD1FFF77EFE07E0022ADAD1012C66
:100E4800F1D0032CD6D1FFF705FF002800F0E08091
:100E5800D0E70028BCD1DBE009232A681372D3E06D
:100E6800062C15D11A78520640F0E0809A785E4B2D
:100E7800012A02D11B68DB6973E0022A02D11B68D0
:100E88001B6A6EE0032A40F0D1801B685B6A68E049
:100E9800002C42D15988002940F0C8805A6822F4B1
:100EA8007F42B2F5003F40F0C1801A7812F07F020D
:100EB80004D19B88002B00F0B780B7E0012A0BD142
:100EC800494A5879126892699047002840F0AE80E4
:100ED800424B1B689B7A1CE0022A40F0A7805A7993
:100EE800424802F00F010BB29B0003F1804303F567
:100EF800B84300781B6812F0800F14BF03F030036A
:100F080003F44053814280F0918012F0700F40F05A
:100F18008D80002B40F0888088E0082C05D11B7854
:100F28005B0640F08380324B1DE00A2C7ED11A7894
:100F380002F07F02012A79D19A7A002A76D059885C
:100F4800002973D15A6822F47F42B2F5803F6DD1EF
:100F5800254A5879126892699047002866D1254B2E
:100F680001E0002B62D02A68002454829361204655
:100F7800984720462B681A8A4FF6FF718A4201D19A
:100F8800092203E0022800D012B908221A723BE0B5
:100F980093F90010002931DAD98801910198124C8F
:100FA800824202D9019A1A8210E08A420ED221683E
:100FB80091F82C00824201D2002105E092FBF0F169
:100FC80000FB112212B901210B4A1170226892F814
:100FD8002C209A82FFF73CFD16E000BFB8140020D1
:100FE800505C00400430002090140020E0000020F5
:100FF8007D090008A10900082002002003221A72B6
:10100800104B4FF440521A80FFF78AFE03B0F0BD30
:1010180032680D4B92B213445B0000221A600B4BEE
:1010280030221A80062318E7094B9CE7094B2A68E7
:101038001B6850781B69984703289BD1064B1B688F
:101048009EE700BFBE14002002300020C01400201C
:10105800C509000890140020B8140020F8B52C4DDC
:101068002C68237A022B4BD0042B49D0032B01D0B8
:10107800052B3FD1A169268AA9B1A6B1A38A9E42B0
:1010880028BF1E4630468847238A9B1B2382638AD3
:10109800334407466382002000F0A2FA3246014634
:1010A800384600F077F9238A53B11A4B00214FF4E0
:1010B800405208461A8000F023FA174B30221A8053
:1010C800A38A228A93422B6801D8032201E012B135
:1010D80005221A720BE006211972104B1968104B81
:1010E80089B20B445B001A600B4B30221A802B68C4
:1010F8001B7A06E0072B03D10A4B1B68DB6898476D
:1011080008232A681372BDE8F840FFF709BE00BF3C
:10111800B8140020BE140020C0140020505C004009
:10112800023000209014002070B50D4B1D7800226D
:10113800AA4210D202F1805303F5B8539B0042F43F
:1011480000441E6840F60F7144F08004314021438A
:1011580019600132ECE7034B40F08000186070BD65
:10116800E00000204C5C004010B5134C23681A7A4C
:10117800022A01D0042A04D1FFF76AFC23681B7AEB
:1011880013E0062A10D15A78052A09D11A7852068E
:1011980006D1D878FFF7C8FF084B1B681B6A984729
:1011A800074B1B689B689847082322681372BDE8A1
:1011B8001040FFF7B5BD00BFB8140020B4140020DC
:1011C8009014002070470000064A074B1360022263
:1011D8001A72064A064B1360064A074911601B68D3
:1011E800184700BFB814002098140020901400205D
:1011F8005C000020B41400208C0000202DE9F74387
:10120800534E544F0023ADF80630B0463B68524A5F
:1012180099B21B04118040F19880138803F00F03E2
:101228003370002B63D14D4C4D4D23684D499BB213
:101238002B802B8803F030030B802B8803F440535A
:101248002B8020684BF6BF73034083F4005383F070
:10125800200343F4004343F080032360138813F012
:10126800100F894607D1226848F60F731340236090
:10127800FFF77AFF1AE023689BB2ADF80630BDF895
:1012880006301A0507D5226840F68F73134023608D
:10129800FFF766FD0AE0BDF806301B04B6D52268E4
:1012A80040F68F7313402360FFF7D8FE22684BF691
:1012B800BF7313402A88D6042A8848BF83F4805312
:1012C8009504B9F8002048BF83F40053D406B9F850
:1012D800002048BF83F01003900648BF83F0200326
:1012E80043F400431D4A43F0800313602DE09A0045
:1012F80002F1804202F5B842116889B2ADF80610D1
:10130800BDF80610090409D5106840F68F71014030
:101318001160013B144A52F823309847BDF8063053
:101328001A067FF573AF98F80020930003F1804305
:1013380003F5B84348F60F71186801401960013A7F
:101348000A4B53F82230984760E703B0BDE8F083B2
:1013580094140020445C004060140020005C0040AD
:10136800BE140020C0140020380000201C000020FB
:1013780010B501F10051013201F5405152104900F8
:1013880000239A4205D030F8024B21F8234001335C
:10139800F7E710BD10B501F10051013201F54051D8
:1013A8005210490000239A4205D051F8234020F8F2
:1013B80013400133F7E710BD4FF6F873014A0340B5
:1013C80013607047505C0040800000F1804000F5D9
:1013D800B840036823F4EC4323F07003194389B23F
:1013E80001607047800000F1804000F5B840CA06EF
:1013F800036823F4E04323F040039BB248BF83F023
:1014080010038A0648BF83F0200343F4004343F0E7
:10141800800303607047800000F1804000F5B84009
:10142800CA04036823F4804323F070039BB248BFC7
:1014380083F480538A0448BF83F4005343F4004381
:1014480043F0800303607047800000F1804000F59E
:10145800B840036823F4E04323F040039BB283F0D1
:10146800300343F4004343F0800303607047800077
:1014780000F1804000F5B840036823F4804323F06E
:1014880070039BB283F4405343F4004343F080035A
:1014980003607047800000F1804000F5B8400368A1
:1014A80023F4F8731B051B0D43F4004343F080033A
:1014B80003607047FFF7EEBF800000F1804000F541
:1014C800B84003685B0408D5026840F60F73134000
:1014D80043F4404343F0800303607047800000F109
:1014E800804000F5B84003685B0608D5026840F6FE
:1014F8000F73134043F4004343F0C0030360704785
:10150800044B1B689BB203EBC000034B03445B0016
:1015180019607047505C0040023000200D4B1B687A
:101528009BB203EBC0000C4B3E2903444FEA430235
:1015380009D94B09C80604BF03F1FF339BB29B02CC
:1015480043F4004304E04B08C90748BF01339B023A
:1015580013607047505C004006300020064B1B6843
:101568009BB203EBC00000F1005000F54050400072
:101578004908490001607047505C0040FFF7EEBF22
:10158800054B1B689BB203EBC000044B03445B0094
:101598004908490019607047505C00400430002039
:1015A800FFF7EEBF054B1B689BB203EBC00000F1D1
:1015B800005000F54050400000887047505C0040E3
:1015C800FFF7F0BF044B1B689BB203EBC000034B53
:1015D80003445B0018887047505C004004300020CA
:1015E800FFF7F0BF054B1B689BB203EBC000044B31
:1015F80003445B001868C0F309007047505C004062
:1016080006300020FFF7EEBFC3B2000A40EA03200D
:1016180070470000044B054A002018604FF43F4310
:101628001380034A13607047445C0040BC140020D8
:10163800405C004070B500F07F0528460E46FFF775
:10164800E1FF04462846FFF7CBFF22460146304615
:10165800FFF7A0FE204670BD044A138801331380AB
:10166800034A138843F020031380704722020020A6
:101678002402002008B54FF40051044802F072F922
:10168800034BB0FA80F04009187008BD0008004804
:1016980028020020012801D100F0A0B870470000FE
:1016A80038B54FF40051174802F05CF9164BC8B131
:1016B8001D8865B1154A117819B9154801780131A5
:1016C800017000211980134B1170198038BD104C1E
:1016D8002078B0B10F4A138801339BB2322B1380A4
:1016E8000CD838BD1A8801321A800B4B10221A7098
:1016F80002210120BDE8384000F05CBAFFF7CAFFBC
:10170800257038BD00080048260200202802002065
:10171800290200202A020020630200200170012013
:101728007047000010B503780024012B447021464F
:101738000ED0022B18D14FF0804002F093FD2146C5
:101748004FF0804002F090FD21464FF0804008E0C5
:101758000F4802F087FD21460D4802F085FD0C4830
:10176800214602F083FD0AE00A4802F079FD21468D
:10177800084802F077FD2146064802F075FD064B41
:1017880002221A7004210A20BDE8104000F012BAA3
:1017980000040040002C014063020020437853B14C
:1017A8008288C3881344827813449BB2FE2B94BF6B
:1017B800DBB2FF234370704708B582784270FFF7A9
:1017C800EDFF054B01221A7028214FF0FF30BDE8CC
:1017D800084000F0EFB900BF63020020F8B50D4CD7
:1017E80040F2E24604F10C05502754F8040F437800
:1017F80013B1FFF797FF09E0837813B98770FFF7F4
:10180800CDFF2068FFF7D8FF23685E81AC42ECD19A
:10181800F8BD00BFE0000020F8B54A1107462F4E7A
:1018280000787B7801F5AA45A1F5AA4436F812108C
:10183800012803FB01F105F155054FEA51311BD091
:10184800022830D1C5F34A154FF0804002F00AFD56
:101858007B7836F81510563C5943C4F34A14490BA3
:101868004FF0804002F002FD36F814107B7859439F
:10187800490B4FF080402CE0C5F34A15184802F098
:10188800F1FC7B7836F815101548563C5943C4F3DB
:101898004A14490B02F0EAFC36F814107B78104819
:1018A8005943490B15E0C5F34A150E4802F0D8FC18
:1018B8007B7836F815100B48563C5943C4F34A1444
:1018C800490B02F0CFFC36F814107B7805485943D1
:1018D800490BBDE8F84002F0C7BC00BF80470008CC
:1018E80000040040002C0140014B00229A70704710
:1018F8005002002010B590F80131FF2B1CBF5C1C72
:101908001B18CAB21CBF80F801419A7090F80131C7
:10191800FF2B1EBF5A1C80F80121C018C1F30721F4
:1019280018BF817010BD000008B500220C231146B5
:10193800044801F00DF9044801F0D1F9BDE8084068
:1019480000F0A6BAF4030020480A002000B5C3B08E
:1019580043238DF8053000238DF8043001238DF8DA
:101968000531054B8DF8060001A9186800F054FAF6
:1019780043B05DF804FB00BFA402002010B5C2B05C
:101988001C4609238DF8053000238DF804308DF8A6
:10199800060002238DF8071001A811468DF80531BD
:1019A800FFF7A8FF214601A8FFF7A4FF034B01A9F1
:1019B800186800F031FA42B010BD00BFA402002040
:1019C80008B56FF0040002F05BFA054802F064FA0B
:1019D800012002F07BFA0120BDE8084002F062BA5B
:1019E800405489000B4A002330B513600A4C116833
:1019F8000A4BA56801FB0331491B42F2283505FB58
:101A0800001011460A68A56802FB0332521B904277
:101A1800F8D830BD5402002010E000E0405489009E
:101A280010B50306C2B004460ED472238DF80530F3
:101A380001A800238DF805318DF8043000F082FBF1
:101A48004FF47A70FFF7CEFF104801F090F914F0C8
:101A5800010402D001F0E6F9FEE70D4802F02CFC83
:101A680002F048F80B4B20461C605C609C6002F05A
:101A78006BF8012383F31088074B1B6883F30888EE
:101A8800064B1B68984742B010BD00BF480A0020AB
:101A98000038014010E000E000D8FF1F04D8FF1F05
:101AA80070B504460D46164600F08AFC33462A46B1
:101AB800A1B2502000F062FD18B10720FFF792FF95
:101AC800012070BD70B504460D46164600F078FC3E
:101AD80033462A46A1B2502000F0A0FC003018BFBF
:101AE800012070BD2DE9F0410646884617460025BD
:101AF800BD4211D206F03F04C4F140047B1B9C4256
:101B080028BF1C46224608EB05013046FFF7C8FFF0
:101B180018B125442644EBE70120BDE8F08110B553
:101B280090B040220021684602F06AFD002440225D
:101B380069462046FFF7B4FF20B14034B4F5004FA2
:101B4800F5D1012010B010BD00224FF4805101489A
:101B580001F00EBF0004004800220421014801F0F2
:101B680007BF00BF0004004813B504230024022265
:101B780069460C48009301238DF804308DF807302E
:101B88008DF805208DF8064001F0A8FEFFF7DCFF70
:101B9800FFF7E2FF044B1C70044B1C80044B1C70C5
:101BA80002B010BD000400485E020020640200205C
:101BB8006302002008B5064B1880064B1970064BC7
:101BC8001970064B01221A70FFF7BEFF08BD00BF4F
:101BD80064020020620200205D0200205E020020F4
:101BE80070B5254D254CB5F9003043B3244A237808
:101BF80012789A421BD8234E33784BB1FFF7A4FFD3
:101C08000023012204212048337001F0B1FE0CE0CA
:101C180001224FF480511C4801F0AAFE01233370C1
:101C28002B88013B2B80FFF797FF002321E001332E
:101C3800DBB2052B23701DD9FFF78EFF70BD23780B
:101C480073B1013BDBB22370A3B901224FF4805179
:101C58000D4801F08DFE0D4B1A880D4B1A8070BD92
:101C68000A4B1A880A4B1B889A4203D0FFF76CFF6D
:101C78000623237070BD00BF640200205D020020AF
:101C8800620200205E02002000040048E8020020F2
:101C980060020020037890F801219A4203F10102C2
:101CA800027086BFC01880780020704738B5054696
:101CB800FFF7F0FF04462846FFF7ECFF04EB00248B
:101CC8002846FFF7E7FF04EB00442846FFF7E2FF4A
:101CD80004EB006038BD38B50546FFF7DBFF044666
:101CE8002846FFF7D7FF04EB002000B238BD90F874
:101CF8000131FF2B1FBF5A1C1B1880F80121997056
:101D08007047000070B5044600680368DB680E463B
:101D18009847002877D02379012B12D002D3022BC1
:101D280031D070E0206803685B6898473E282068D7
:101D3800036803D11B689847012363E05B699847F0
:101D480061E020680368DB68984702285BD920684F
:101D580003681B6898472072206803681B689847C7
:101D680080B2E080257A2068E38815FA83F5036855
:101D78001B689847EDB2854247D1E3889BB2FF2B99
:101D880043D802233EE02068E5880368DB6898476B
:101D9800ADB2854237DA237A7370002386F80131B1
:101DA8003370E38896F801219BB29A4208D22068E2
:101DB80003681B68984701463046FFF798FFF0E72D
:101DC8000025257196F801310133721C1E44964294
:101DD80004D012F8013F1D44EDB2F8E7206803680B
:101DE8001B689847A8420AD10A4A2068138823F03A
:101DF8002003138003689B699847012070BDFFF793
:101E08002BFC00E02371002070BDFFF725FC0020AB
:101E1800207170BD2402002070B5046823680D4647
:101E28009B683E2120469847236869789B6820462E
:101E38009847236895F801119B682046984795F8BC
:101E48000131697819442368C9B29B6820469847CC
:101E5800002395F8012121685E1CDBB2934206D26B
:101E68002B448A689978204690473346F1E7013237
:101E78008E686B1C00211544AB4204D013F8012F67
:101E88001144C9B2F8E720463346BDE87040184708
:101E98000A4B0B4959620B490B4A1A6003F124009B
:101EA80008600A4900221A71DA601A749A611A776E
:101EB80083F828200A70064A1360704774020020CD
:101EC800480A00206C020020F40300207002002061
:101ED800A40200202DE9F041784C0027677184F8AE
:101EE800057127714678322E054674D00CD82F2EEE
:101EF80076D0302E00F09A80142E40F0CE80014625
:101F0800204600F0A9FCCEE0462E4BD004D8332E54
:101F180040F0C380022605E0562E19D0722E40F0FC
:101F2800BC80012695F80131032B0AD12846FFF71A
:101F3800B1FE07462846FFF7CEFE2FB946F08006C9
:101F480002E0002B40F0AF803046FFF769FDAAE0C1
:101F58001E21201D6671FFF7CAFE3946201DFFF7B6
:101F6800C9FC3946201DFFF7C2FE3946201DFFF780
:101F7800C1FC534B1968534B1B68CA1A5142514153
:101F8800201DFFF7B4FE94F805312344C3F80A7006
:101F9800C3F80670C3F80D7094F805310B3384F854
:101FA800053180E0FFF776FE2A7895F801319A42EC
:101FB8000ED1FD2877D1FFF7B2FD0346687813B13B
:101FC800FFF7C4FC6FE01A461946FFF7D7FC6AE032
:101FD800FFF742FB67E00146204600F095FC62E00F
:101FE800FFF764FEB0F5004F07465CD283065AD16E
:101FF80095F80121043A92B212F03F0853D1012317
:10200800A91DFFF76FFD00284DD0432363710123FD
:1020180039B2201D84F8048084F80531A671FFF7D1
:1020280069FC4146201DFFF765FC3CE0FFF73EFEDA
:1020380007462846FFF74FFEB7F5004F33D285B263
:10204800FB2D28BFFB25EB191C4EB3F5004F4FF0B5
:1020580000084FF0300388BFC7F50045637139B2F7
:1020680006F1040084F8058184F8048088BFADB2C5
:10207800FFF740FC4146301DFFF73CFC2A4606F1BD
:102088000A013846FFF71EFD28B196F805010544F8
:1020980086F8055107E0707105E0002306223146F5
:1020A800064800F0ABFB637923B1054B0649186875
:1020B800FFF7B2FE0020BDE8F08100BFEC0200206F
:1020C800A40200206C020020F002002070B5184C19
:1020D800184D0023C2B023702E4622781649032AD1
:1020E8001CD80C235343CA18CB582A6093B1134BFE
:1020F80000221A809A7001A92868FFF703FE48B1E8
:1021080001A8FFF7E7FE0028F5D001A93068FFF71E
:1021180083FEF0E7237801332370DEE7084B1A7853
:102128000C2303FB0213034A136042B070BD00BFC7
:1021380069020020A4020020740200206602002028
:102148007002002070B5064D0646002463591BB185
:1021580031462819FFF760FE0C34302CF6D170BDDB
:102168007402002001F054B830B58DB0054603A8BC
:102178000C4600F09AFE0346287020BB802203A973
:1021880001A800F076FF2870E8B99DF80D3023709B
:102198009DF80E3063709DF80F30A3709DF81030D5
:1021A800E3709DF8153023719DF8163063719DF822
:1021B8001730A3719DF81830E3719DF81930237218
:1021C80001F092F828702878B0FA80F040090DB034
:1021D80030BD0000F0B504468DB00B480F461546DB
:1021E8001E4600F062FE207058B9009733462A4612
:1021F800054902A800F013FF207010B901F074F827
:10220800207002480DB0F0BDA8020020A9020020ED
:10221800022A2DE9F04107461D4604D0052A34D18B
:1022280009261D4C01E01D4C03262B4601F1200216
:1022380051F8040B43F8040B9142F9D1A04618F861
:10224800012B02F00B01032902F00F0320D00B2B06
:102258001ED012F0100F14BF402200222946384623
:10226800FFF7B8FF0346387898B92A4603F12001EA
:1022780053F804EB42F804EB8B42F9D1C4EB0803A2
:10228800DBB29E42DBD8BDE8F0810120BDE8F081D9
:10229800E220BDE8F08100BFF3000020F00000203C
:1022A800044B1B688360044B1B684360034B1B682B
:1022B80003607047ACF7FF1FB0F7FF1FB4F7FF1FAD
:1022C80008B500220F214FF0904001F056FB002284
:1022D8000E214FF09040BDE8084001F04EBB0000D1
:1022E80010B5064C04222046062101F046FB204684
:1022F80004220721BDE8104001F03FBB000400485C
:102308002DE9F341294B0024102002AD1C8001F077
:1023180059FD01214FF4001001F082FD4FF40043F4
:1023280045F8083D01264FF00208032729464FF0DB
:1023380090408DF805708DF807408DF804808DF871
:10234800066001F0CBFA4FF4804329464FF09040E5
:10235800009301F0C3FA8DF80570154F8DF80480CD
:1023680040232946384600938DF806608DF80760AB
:1023780001F0B4FA802329463846009301F0AEFAFA
:102388000C490D4BCC604C608C600C614C618C61CD
:102398000A4C0B60204601F003FB3146204601F051
:1023A8002FFBFFF79DFF02B0BDE8F081E802002097
:1023B80000040048CC0200203512E8100054004008
:1023C80008B5FFF77DFFFFF78BFF0248BDE808401F
:1023D80001F01FBB0054004070B50D4D42F2107360
:1023E80006462B6031460B4801F033FB68B92C6870
:1023F800631E2B60002CF5D1074A06481388013369
:10240800138001F006FB204670BD012070BD00BF9F
:10241800FC00002000540040E80200202DE9F74F9E
:1024280045001E46DFF850915248B9F800804FF435
:10243800005300930F46144600230222294601F058
:10244800F3FA0220FFF7C8FF08B900208FE04948D7
:10245800390A01F0F9FA0220FFF7BEFF0028F4D08C
:102468004448F9B201F0F0FA4020FFF7B5FF002820
:10247800EBD0FF22B6FBF2F7C7EB0723F61A4FF4AF
:102488001053002F46D0012F23D116BB00934FF0D5
:1024980000732946374801F0C7FA04F1FF3A04F1FE
:1024A800FE0B0420FFF798FF0028CED0314801F03A
:1024B800CDFA0AF8010FD345F3D1013F04F1FF0427
:1024C8000CD08020FFF788FF0028BED0012F48D00D
:1024D800002300934FF08073FF22DAE786B3802051
:1024E800FFF77AFF0028B0D0F2B200974FF00073E0
:1024F8002946204801F098FA26440420FFF76CFF8B
:102508000028A2D01B4801F0A1FA04F8010BB4423C
:10251800F3D115E00093F2B24FF000732946154845
:1025280001F082FA2644A6420AD00420FFF754FF9D
:1025380000288AD00F4801F089FA04F8010BF2E765
:102548002020FFF749FF00283FF47FAF09482021EA
:1025580001F085FAB9F80000C8EB00035842584169
:1025680005E0002EB4D100964FF00073B4E703B035
:10257800BDE8F08F00540040E80200202DE9F34741
:102588002A4D46009A464FF40053B5F80080284873
:1025980000930F464FF0807331461446022201F033
:1025A80043FA0220FFF718FFA94608B9002039E0CE
:1025B8001F48390A01F048FA0220FFF70DFF0028EA
:1025C800F4D01B48F9B201F03FFA8020FFF704FF6E
:1025D8000028EBD0002300935FFA8AF24FF00073D3
:1025E8003146134801F020FA04EB0A05AC420AD040
:1025F8000220FFF7F1FE0028D8D014F8011B0C4880
:1026080001F022FAF2E72020FFF7E6FE0028CDD0FD
:102618000748202101F023FAB9F80000C8EB0003AD
:102628005842584102B0BDE8F08700BFE8020020D8
:10263800005400400A4B1A68012822F001021A606F
:1026480006D00849084A02280CBF1046084600E090
:10265800064818611A6842F001021A60704700BF04
:10266800005400403512E810A128C360360DC6009A
:1026780030B589B0684601F003FD03A801F0E6FD16
:102688004FF0804001F02EFC4C4801F02BFC4C48E8
:1026980001F028FC4B4B1B78012B4FF4006301938E
:1026A80017BF01230023ADF80030002308BFADF8A1
:1026B8000030ADF80830694620234FF08040ADF86F
:1026C800023001F097FC69463C4801F093FC6946EA
:1026D8003B4801F08FFC022301240025ADF8183097
:1026E80003A970234FF0804003930595ADF810407F
:1026F80001F01AFD08214FF0804001F0BFFD03A949
:102708004FF0804001F046FD08214FF0804001F075
:10271800BCFD03A94FF0804001F070FD08214FF087
:10272800804001F0B8FD03A9244801F0FDFC082110
:10273800224801F0A3FD03A9204801F02BFD082140
:102748001E4801F0A2FD03A91C4801F057FD08210D
:102758001A4801F0A0FD0423ADF8105003A908257C
:102768001748ADF81230ADF81A5001F09FFC294611
:10277800134801F07DFD03A9114801F0D5FC294655
:102788000F4801F07BFD03A90D4801F003FD294620
:102798000B4801F07AFD2146094801F083FD2146E6
:1027A8004FF0804001F075FC2146044801F071FCAF
:1027B8002146034801F06DFC09B030BD000400401B
:1027C800002C014000010020034B1A78824202D0FD
:1027D8001870FFF74DBF70470001002038B5044658
:1027E80090F80101204402301546FDF7C9FC94F821
:1027F80001212A4484F8012138BD000073B502ADD7
:10280800044645F8043D09234371002380F8053147
:1028180004F8043F16462046FFF769FA3146204679
:10282800FFF765FA294620460422FFF7D7FF054B34
:10283800042206214FF0FF301A70FFF7BBF902B0EF
:1028480070BD00BF63020020024B03601846FFF70B
:1028580089BC00BFCB02002070B5142386B0437139
:102868000023044680F80531037169460068FFF7C4
:102878007BFC18B9009001908DF80800251D694669
:1028880009222846FFF7AAFF03A8FFF709FD0C2233
:102898000DEB02012846FFF7A1FF28460021FFF7AC
:1028A80026FA28468021FFF722FA28460021FFF75A
:1028B8001EFA28460021FFF71AFA94F805312B442E
:1028C8000026C3F80260C3F80660C3F80A6094F8EB
:1028D80005310C3384F805310A4B19882846C1F3B1
:1028E8000711FFF704FA94F8050128441F2231461E
:1028F800023001F085FE94F805311F3384F8053164
:1029080006B070BDCCF7FF1F30B589B08A780D4688
:102918006B46033104460B48FFF77AFC6978034697
:1029280050B984F8050120466171202200F8043F5F
:102938006946FFF753FF03E004222046FFF75EFFD6
:1029480009B030BDCB020020014B024A1A60704723
:10295800EC020020CB020020B0F8143210FA83F009
:10296800007C7047B0F81632B0F81402181AC0B2DA
:102978007047B0F81032B0F812029BB280B2181A41
:10298800C043C0B2704790F818321844012380F849
:102998001932704738B504460D46236820461B692E
:1029A80098470028F9D0B4F8103214FA83F30122BA
:1029B80083F81051A56895F91C3003F01F005B09D6
:1029C8009B0003F1604303F5614302FA00F0C3F88A
:1029D8008000B4F81012114489B2A4F81012B4F8A7
:1029E8001012C9B2A4F810121860A8690249BDE80B
:1029F800384001F014BD00BF0701070010B50446B8
:102A080023682046DB68984750B1236820465B68F6
:102A180098473E2804D0236820461B689847EFE76C
:102A2800BDE81040FEF718BE38B5B0F8143210FAF9
:102A380083F301211D7C836893F91C305A0903F044
:102A48001F0301FA03F32032134941F82230B0F88A
:102A58001422B0F8163292B29BB29A4204460BD0B6
:102A6800B0F8143201339BB2A0F81432B0F8143223
:102A7800DBB2A0F8143201E0FEF7EEFDA36893F98B
:102A88001C300122590903F01F0302FA03F3024A1A
:102A9800284642F8213038BD00E100E030B54379DE
:102AA800013BDBB2042B9CBF264A52F823508368B3
:102AB800044687B098694FF0000188BF4FF4E135AC
:102AC80001F0A4FCA368986901F0F6FB002394F8D0
:102AD800182202930593E3680493009502F0FF031C
:102AE8002AB14FF4805301934FF4806300E00193BF
:102AF8000393A3686946986901F02CFCA3684FF416
:102B08008051986901F0A1FCB4F8123222799BB285
:102B1800A4F81032B4F814329BB2A4F816320A4B57
:102B28000C2101FB023300221A71A3680121986964
:102B380001F06CFCA36805499869012201F06FFC5B
:102B480007B030BD80570008740200200501050059
:102B58001FB5C3602C4B017103EB411100230446E0
:102B6800427180F81832816001214FF4804001F0F1
:102B78004BF901214FF4802001F052F9A3681A7D26
:102B8800197B186900F0F9FE02238DF80C30032335
:102B98008DF80D30A3685A891869029202A901229A
:102BA8008DF80E208DF80F2000F098FEA368586865
:102BB80008B90422E260E2680C2A0FD11A7A9978DF
:102BC80000F0DBFEA3681A88029202A90022586866
:102BD8008DF80E208DF80F2000F080FEA3681B7F73
:102BE8008DF804300A238DF8053000238DF806305F
:102BF80001A801238DF8073000F046FF2046FFF7B3
:102C08004DFF04B010BD00BFB8570008034B044A7D
:102C18001A60C3F81C22C3F838247047F403002054
:102C28009C570008B0F8043210FA83F00079704716
:102C3800B0F80632B0F80402181AC0B27047B0F8FB
:102C48000A32B0F808029BB280B2181AC043C0B268
:102C58007047704738B504460D46236820461B69FF
:102C680098470028F9D0B4F80A3214FA83F383F8A5
:102C78000451B4F80A320133DBB2A4F80A3238BD81
:102C880010B5044623682046DB68984750B123688E
:102C980020465B6898473E2804D0236820461B6876
:102CA8009847EFE7BDE81040FEF7D6BC10B5B0F87E
:102CB8000422B0F8041210FA82F289B21479B0F83A
:102CC800062292B2914206D0B0F804220132D2B262
:102CD800A0F8042201E0FEF7BFFC204610BD30B585
:102CE800012185B00446084601F08EF84FF4C05320
:102CF8000093032300258DF80530694602234FF021
:102D080090408DF804308DF806508DF8075000F08B
:102D1800E5FD0E220B214FF0904000F02EFE0E2212
:102D28000C214FF0904000F028FE122000F0CAFD60
:102D380012230293082302A88DF80D3001238DF881
:102D48000E308DF80C5000F03BFDFDF7D5FAFDF77D
:102D5800F3FAFEF739FAB4F806329BB2A4F8043253
:102D6800B4F80A329BB2A4F8083205B030BDFDF7BA
:102D78007BBD0000114B30B40446221A91421AD987
:102D8800B3F80452B3F806220132ADB202F0FF02E2
:102D9800954202D130BCFEF75FBCB3F8062214F8A6
:102DA800015B13FA82F21571B3F806220132D2B22E
:102DB800A3F80622E1E730BC704700BF480A0020AC
:102DC800134B30B505460020B3F80A22B3F8084281
:102DD800121B12F0FF0F19D0B3F8082213FA82F26F
:102DE800013092F8042105F8012BB3F8082280B2CB
:102DF8000132D2B28842A3F8082207D0B3F80842B9
:102E0800B3F80A22A4B292B29442DDD130BD00BF19
:102E1800480A0020014B024A1A607047480A0020FD
:102E28002058000800F01EBEF0B500230D466C1AAD
:102E3800A4B2A0421AD915F8017B0826012427421A
:102E48004FEAD33E18BF4FF0010C4FEA430308BFC7
:102E58004FF0000CF4459BB21CBF83F4004383F091
:102E680005036400013EE4B2E9D1E0E713701B12E8
:102E78005370F0BD37B50378023BDCB2054601AAB2
:102E880001462046FFF7D0FF9DF804202B5D9A42AB
:102E980008D12C449DF805306078834214BFE520A2
:102EA800002000E0E52003B030BD10B5044600F076
:102EB80027FAD0B92146042000F0EEF9A8B9237802
:102EC800042B09D16378112B08D1A378332B07D1B0
:102ED800E378432B04D110BDE42402E0F02400E0A1
:102EE800E5244620FEF77EFD204610BD10B50C46B1
:102EF80000F0F8F938B100F0F7F92046FFF7D5FFF0
:102F0800002808BFE82010BD2DE9F04F85B090F8E3
:102F1800009001939DF838301446C3EB431203EB3D
:102F280082038046DB00A9F10200C0B225339BB2C0
:102F38000D4608EB000241460093FFF775FF032694
:102F48004FF0E00A4FF0000B013E16F0FF0610D0DC
:102F5800BAF1000F01D100205EE04146484600F07A
:102F6800FFF9824638B121462846FFF7BFFFE72818
:102F7800EAD1504650E00198FEF734FD0327013F9F
:102F880017F0FF07E0D023461A1BD2B2954202D9A8
:102F980003F801BBF8E7BDF80030ADF80E30214664
:102FA800284600F079F9BDF80E20253A92B2ADF81E
:102FB8000E20BDF80E2092B2252A824602D9E728B3
:102FC80002D1ECE7E72821D0BAF1E40F11D020466E
:102FD800FFF750FF824660B92378042BBBD863788B
:102FE800032B0FD00F2B0FD0FF2BB4D14FF0D40AE7
:102FF800AAE721462846FFF779FF0028BFD0E8282E
:10300800A2D0B6E7D22007E0D32005E02146284623
:10301800FFF76CFFE72897D105B0BDE8F08F70B4D3
:10302800039C18B311B312F0880F1FD112F00105D9
:1030380000D1DCB1072606700826C370F34046703D
:103048008270037155B92346421D203453F8045B3E
:1030580042F8045BA342F9D1272303701823039392
:103068000A460B23232170BCFFF74EBFE22070BC39
:10307800704713B550B349B312F07C0F26D112F044
:1030880003044FEA930301D11F2B06E0012C01D161
:103098000F2B02E0022C01D17F2B17D8072403F055
:1030A8007F0312F0800F047082704FF00204C37027
:1030B8004FF004024FF000034470037100920A4677
:1030C80014BF23210721FFF71FFF00E0E22002B011
:1030D80010BD00002DE9F3414A4F4B4C0D464FF40B
:1030E800005339780093804616464DBB01224FF0B5
:1030F80000739140454800F097FC42F2107323603A
:103108000221424800F0A5FC30B923685A1E22600B
:10311800002BF5D1E72072E041463C4800F094FCD2
:1031280042F2107323602021384800F092FC0028F6
:1031380047D123685A1E2260002BF4D1E6205EE0B6
:1031480001224FF080739140304800F06DFC42F24C
:103158001073236002212D4800F07BFC002836D034
:1031680041462A4800F070FC42F210732360802127
:10317800264800F06EFC80B3397824480023009379
:103188002A464FF000734900013DEDB200F04CFCB7
:103198000135354442F21077276002211B4800F0C0
:1031A80058FC00B316F8011B184800F04DFCAE425D
:1031B800F2D142F2107323602021144800F049FC38
:1031C800B8B11248202100F04AFC002017E023681B
:1031D8005A1E2260002BBDD19CE723685A1E22602C
:1031E800002BC4D196E723685A1E2260002BD4D145
:1031F80090E723685A1E2260002BDDD18AE702B0CF
:10320800BDE8F081540C0020040100200054004067
:10321800014B64221A707047540C002037B51B4BC1
:103228001B4C197801224FF41053009305464FF0B8
:1032380000739140174800F0F7FB42F210732360C7
:103248000421144800F005FC30B923685A1E226096
:10325800002BF5D1E72017E00E4800F0F7FB42F20B
:1032680010732870236020210A4800F0F2FB30B95F
:1032780023685A1E2260002BF5D1E62004E0054899
:10328800202100F0ECFB002003B030BD540C0020DE
:10329800040100200054004037B505460DF1070031
:1032A8000C46FFF7BBFFB0B99DF807302370032B1E
:1032B80010D9AB420ED8611C9DF80730013BD8B23B
:1032C8008DF8070038B108464C1CFFF7A7FF10B966
:1032D8002146F1E7E42003B030BD00221146104634
:1032E800FFF7F8BEFFF7F9BF002210B5114601201D
:1032F800FFF7F0FE04460120FEF774FB204610BDE0
:1033080013B50220FFF796F94FF4105300930122EA
:103318004FF0007300211048104C00F085FB42F27A
:103328001073236010210C4800F093FB30B9236818
:103338005A1E2260002BF5D1E6200AE0102106482B
:1033480000F08DFB0020FFF775F90320FEF74AFB1C
:10335800002002B010BD00BF00540040040100204E
:103368000A4601460320FFF7B5BE000007B54FF433
:10337800C06000F07FFB0A4AD368002382F823303C
:1033880001A825228DF805308DF8063001238DF827
:1033980004208DF8073000F077FB03B05DF804FBDC
:1033A80000ED00E02DE9F34701214FF4003000F073
:1033B8001FFD01214FF4802000F01AFD01214FF478
:1033C800002000F015FD01214FF4804000F01CFDA5
:1033D800072209214FF0904000F0CFFA07220A2176
:1033E8004FF0904000F0C9FA0225794E8DF804504C
:1033F80000274FF003084FF4007369464FF09040E0
:10340800012400934FF480698DF805808DF80670CB
:103418008DF8077000F062FA69464FF09040CDF8D9
:1034280000908DF806408DF8074000F057FA4FF4E9
:1034380080536946304600934FF4005A8DF8044093
:103448008DF806708DF805508DF8074000F046FAA3
:1034580069466048CDF800A08DF804708DF80550D5
:103468008DF806408DF8074000F038FA6946304676
:10347800CDF800908DF804408DF806708DF8055051
:103488008DF8075000F02AFA224621464FF0904066
:1034980000F073FA224629464FF0904000F06DFA8A
:1034A800224641464FF0904000F067FA69464FF0D7
:1034B80090404FF004098DF804508DF805808DF880
:1034C80006708DF80740009500F008FA69464FF03D
:1034D8009040CDF8009000F001FA082369464FF0BB
:1034E8009040009300F0FAF92A4649464FF0904080
:1034F80000F043FA2A463946304600F03EFA2A469A
:103508002146304600F039FA102369464FF09040C2
:1035180000938DF804508DF805808DF806708DF8AD
:10352800074000F0DBF969463046009400F0D6F910
:1035380069463046009500F0D1F9304606220D2143
:1035480000F01BFA304606220E2100F016FA4A4611
:1035580030460F2100F011FA694630468DF80450C4
:103568008DF805808DF806708DF80740CDF800A01D
:1035780000F0B4F94FF4804369463046009300F0F8
:10358800ADF94FF4004369463046009300F0A6F9C0
:1035980021464FF4006000F037FC2146204600F039
:1035A8003FFC2146284600F03BFC4FF0A04000F0CD
:1035B800DFF84FF4B07000F0F5FB21464FF0805073
:1035C80000F016FCFFF7D2FE02B0BDE8F08700BF9E
:1035D800000400480008004870B5FFF7E3FEFEF756
:1035E800EFF9FFF745F8FEF78BFE1548154DFFF785
:1035F8002BF9FEF799F9FEF7B7FA0120FFF7E4F87F
:1036080001224FF48061104800F0B2F9FEF732F859
:1036180000242646E1B255F82400FEF77FF855F855
:10362800240001348670FEF7B9F8032CF2D1074B59
:1036380002221A7004210A20BDE87040FEF7BABAC7
:10364800EC020020E400002000040048630200208F
:1036580010B502F0EFF80C4A1388591C11800A21A2
:10366800B3FBF1F201FB1233084A9BB21370084A0C
:1036780052F823300446984702F0DCF8001BB0F5F6
:10368800487FF9D310BD00BF640C00205C02002005
:103698005847000808B500F03FF8FFF79DFFFFF70F
:1036A800D7FFFCE7FEF79CBAFEF710BD2DE9F04105
:1036B800DFF85080114F0024464658F8240043781C
:1036C800A5005BB1438973B1013B9BB2438153B9F8
:1036D800FEF728F855F8080043782BB90134032C75
:1036E800EBD1BDE8F0817059054A37F91410AB5891
:1036F8001944A95089B2FEF78FF8EFE708010020B6
:10370800580C0020E4000020FDF7CABF704770473E
:103718007047704770477047064B074A07489A60DA
:10372800002350F8231042F823100133B3F5C47F67
:10373800F7D1704700ED00E0000E002000000008FF
:10374800FEE7FEE7FEE7000070B5074B074CE41AFA
:10375800A41000251E46A54204D056F825309847E7
:103768000135F8E770BD00BF7C5800088C58000888
:10377800B0F1A04F08B502D00F4B984208D10121F3
:103788004FF0805000F058FB00214FF080500EE0C1
:103798000A4B984203D003F5807398420BD101215C
:1037A8004FF0005000F048FB00214FF00050BDE8FA
:1037B800084000F041BB08BD000100500004005063
:1037C8008279036870B50479002A64D023F01F0158
:1037D80001F1804101F5823103F01F020D680123D8
:1037E80003FA02F225EA02020A600168324D21F06A
:1037F8001F0601F01F01725903FA01F122EA0101C3
:103808007151016804F1804221F01F0502F58232EE
:1038180001F01F01AC5803FA01F12143A9500268D5
:10382800264D22F01F0402F01F02615903FA02F22A
:1038380021EA020262510268214C22F01F0602F0BE
:103848001F02315903FA02F221EA02024179325188
:103858001029026812D122F01F0602F01F027159C6
:1038680003FA02F20A437251026822F01F0002F0C2
:103878001F02015993400B43035170BD01F1804170
:1038880022F01F0401F5823102F01F0260589340B4
:103898000343635070BD04F1804223F01F0502F515
:1038A800823203F01F03A958012000FA03F321EA2A
:1038B8000303AB5070BD00BF04040140080401407D
:1038C8000C04014020F01F02012300F01F0003FA3E
:1038D80000F0014BD0507047140401402DE9F0432B
:1038E8000023D1F800E01A464FF0010C03270CFA28
:1038F80002F939EA0E042ED10E79741E012C18D85B
:10390800846891F8058007FA03F524EA05048460C1
:10391800856808FA03F848EA050585608488A4B232
:1039280024EA090484808C79858894402C43A4B2C5
:103938008480056807FA03F4E443254005600568B8
:103948009E402E430660C5682C40C460CC79C5688B
:103958009C402C43C4600132102A03F10203C6D1F3
:10396800BDE8F083038A194214BF01200020704784
:103978000AB1816170470185704701F00703C908E2
:1039880000EB810010B59B00046A0F21994024EADE
:1039980001010162016A9A400A43026210BD0000F7
:1039A80003688A6823F00103036010B5134B0468A9
:1039B800234043EA02234A68134303600B688A6979
:1039C80023F070630361036843F00103036000237D
:1039D8008360C3600B6913438360836843F40043C7
:1039E80083600268CB681343036043684A6923F025
:1039F800784323F400431343436010BDFFE0CF0036
:103A0800036811B143F0010301E023F001030360EF
:103A18007047036823F0010303600368036843F0F9
:103A2800010303607047000030B54468054D254028
:103A3800039C2C432343C1F309010B4343EA02428D
:103A4800426030BD009800FC81627047406AC0B295
:103A5800704783690B4214BF012000207047C16181
:103A680070470000024B4CF6CC421A60704700BF0A
:103A78000030004040F0BF60024B40F40030D86096
:103A8800704700BF00ED00E0C278037810B50AB3B4
:103A9800164AD1684278C943C1F30221C1F104042E
:103AA80002FA04F40F22CA4081780A40224303F143
:103AB800604303F561431201D2B283F8002303780F
:103AC8000122590903F01F0302FA03F3084A42F8D6
:103AD800213010BD5A09012103F01F0301FA03F335
:103AE8002032034941F8223010BD00BF00ED00E04C
:103AF80000E100E0114B1A6842F001021A605968AF
:103B08000F4A0A405A601A6822F0847222F48032FE
:103B18001A601A6822F480221A605A6822F4FE0297
:103B28005A60DA6A22F47F5222F03F02DA62196B95
:103B3800044A0A401A6300229A6070470010024043
:103B480000C0FFF8CCFC000F034A536823F00303BE
:103B580018435060704700BF00100240F0B58C4E0B
:103B6800736803F00C03042B05D0082B06D0894A90
:103B78000260B3B916E0874B036012E0736871689E
:103B8800C3F383439A1CCB0349BFF36A824B814931
:103B980003F00F0344BF0133B1FBF3F35343036056
:103BA80000E0002372687D4FDFF8F4C1C2F303120E
:103BB80017F802E002685FFA8EFE22FA0EF1416001
:103BC8007468C4F302243C5D21FA04F484607568C7
:103BD800C5F3C2257F5DFFB2F940C160F56AC5F340
:103BE80004153CF81550ADB215F0100F0EBF026168
:103BF800B3FBF5F50561F56AC5F344253CF81550A6
:103C0800ADB215F0100F0EBF4261B3FBF5F545617B
:103C1800356BED065ABF5F4D85618261356BAD0628
:103C28005ABF5C4DC561C261356BED0506D593423F
:103C380004D1BE4502D15D00056200E00162356B2A
:103C4800AD0506D5934204D1BE4502D15300436267
:103C580000E04162356B4E4BAD0701D1816215E042
:103C6800196B01F00301012901D182620EE0196B81
:103C780001F00301022902D14FF4004305E01B6B58
:103C880003F00303032B01D1424B8362316B404B9A
:103C980011F4403F01D1C46218E0196B01F44031BE
:103CA800B1F5803F01D1C26210E0196B01F44031D7
:103CB800B1F5003F02D14FF4004306E01B6B03F45B
:103CC8004033B3F5403F01D1324BC362316B304BC7
:103CD80011F4402F01D1046318E0196B01F440215D
:103CE800B1F5802F01D1026310E0196B01F4402176
:103CF800B1F5002F02D14FF4004306E01B6B03F42B
:103D08004023B3F5402F01D1224B0363316B204B85
:103D180011F4401F01D1446318E0196B01F44011FC
:103D2800B1F5801F01D1426310E0196B01F4401115
:103D3800B1F5001F02D14FF4004306E01B6B03F4FA
:103D48004013B3F5401F01D1124B4363316B104B45
:103D580011F4400F01D18463F0BD196B01F44001E7
:103D6800B1F5800F01D18263F0BD1A6B02F44002F5
:103D7800B2F5000F02D14FF4004306E01B6B03F4C9
:103D88004003B3F5400F01D1024B8363F0BD00BF80
:103D98000010024000127A0000093D0028010020AE
:103DA8000E010020030F064BDA6A14BF22F4785282
:103DB80022F4F872DA62DA6A1043D862704700BFF8
:103DC80000100240030F064B1A6B14BF22F02002AA
:103DD80022F010021A631A6B10431863704700BF71
:103DE80000100240014B1860704700BFD8004242E3
:103DF800044B5A6909B1104301E022EA00005861F6
:103E0800704700BF00100240044B9A6909B1104383
:103E180001E022EA00009861704700BF00100240EC
:103E2800044BDA6909B1104301E022EA0000D861C5
:103E3800704700BF00100240044B9A6A09B1104352
:103E480001E022EA00009862704700BF00100240BB
:103E5800044BDA6809B1104301E022EA0000D86097
:103E6800704700BF00100240044B1A6909B11043A3
:103E780001E022EA00001861704700BF001002400C
:103E8800044B1A6804280CBF42F0040222F0040212
:103E98001A60704710E000E0014B5860704700BF9F
:103EA80010E000E00128084B03D11A6842F0010233
:103EB80004E0023004D11A6822F001021A60704747
:103EC80000229A60704700BF10E000E0044B1A68B7
:103ED80010B142F0020201E022F002021A607047BB
:103EE80010E000E008B53A4B984208D101214FF4A0
:103EF8000060FFF7ADFF00214FF4006063E0B0F110
:103F0800804F06D101210846FFF7AEFF00210120AE
:103F180008E0304B984209D101210220FFF7A4FFA5
:103F280000210220BDE80840FFF79EBF2A4B9842B7
:103F380006D101210420FFF797FF00210420F1E7B3
:103F4800264B984206D101211020FFF78DFF002152
:103F58001020E7E7224B984206D101212020FFF7E5
:103F680083FF00212020DDE71E4B984208D1012164
:103F78004FF40050FFF76CFF00214FF4005022E08F
:103F8800194B984208D101214FF48030FFF760FFA8
:103F980000214FF4803016E0144B984208D10121DB
:103FA8004FF40030FFF754FF00214FF400300AE0CF
:103FB8000F4B98420BD101214FF48020FFF748FFA7
:103FC80000214FF48020BDE80840FFF741BF08BD3D
:103FD800002C014000040040000800400010004090
:103FE80000140040003401400040014000440140FA
:103FF80000480140204A038890429BB20ED002F547
:10400800006290420AD0B0F1804F07D0A2F59832F2
:10401800904203D002F58062904203D14A8823F08F
:1040280070031343154A904208D002F5806290420B
:104038001FBF23F440730A899BB2134303804B6864
:10404800C3620B8803850C4B98420FD003F50063BD
:1040580098420BD003F54063984207D003F580637C
:10406800984203D003F58063984201D18B7A038686
:1040780001234361704700BF002C0140001000403D
:104088004FF0FF3343600023038003814380837232
:104098007047038819B19BB243F0010303E023F092
:1040A80001031B041B0C038070470000036A23F004
:1040B80001030362036A426830B584690D6824F419
:1040C800803424F073042C438D8923F002032B439E
:1040D8008D882B43134DA8420FD005F50065A842E3
:1040E8000BD005F54065A84207D005F58065A842C4
:1040F80003D005F58065A8420DD1CD8923F00803CA
:104108002B43CD8823F004032B430D8A22F44072FD
:104118002A434D8A2A4342608A6884614263036263
:1041280030BD00BF002C0140036A23F01003036276
:10413800036A70B5446882690D688E8922F08072BE
:1041480022F4E64242EA052523F020028B88334315
:1041580042EA03130E4A904203D002F500629042ED
:1041680010D1CA890E8A23F0800343EA0213CA8851
:1041780023F0400343EA02134A8A24F4406432439A
:1041880044EA82048A68446085618263036270BD80
:10419800002C0140036A23F480730362036A70B53C
:1041A8004468C5698E8925F073020D68154323F4A8
:1041B80000728B88334342EA03230F4A904203D0AC
:1041C80002F50062904210D1CA890E8A23F4006376
:1041D80043EA0223CA8823F4806343EA02234A8A13
:1041E80024F44054324344EA02148A684460C561A6
:1041F800C263036270BD00BF002C0140036A23F450
:1042080080530362036A70B54568C4698E8924F4D3
:10421800E6420C6842EA042423F400528B883343B4
:1042280042EA0333084A904203D002F50062904202
:1042380004D10A8A25F4804545EA82158A684560D2
:10424800C4610264036270BD002C01400023036056
:104258008380C38083608381C381038243827047E4
:104268004163704781637047C16370470164704759
:10427800836923F00803194381617047836923F434
:10428800006343EA012181617047C36923F0080391
:104298001943C1617047C36923F4006343EA0121EC
:1042A800C1617047436C11B143F4004301E0C3F3AB
:1042B8000E0343647047000008B5214B98420BD1A8
:1042C80001214FF48040FFF7C3FD00214FF48040E7
:1042D800BDE80840FFF7BCBD1A4B984208D1012140
:1042E8004FF40030FFF7C0FD00214FF4003022E00A
:1042F800154B984208D101214FF48020FFF7B4FDF7
:1043080000214FF4802016E0104B984208D101217B
:104318004FF40020FFF7A8FD00214FF400200AE029
:104328000B4B98420BD101214FF48010FFF79CFDF5
:1043380000214FF48010BDE80840FFF795BD08BD87
:10434800003801400044004000480040004C004054
:1043580000500040036823F0010330B50360436850
:1043680023F440528B680D4613434360EA6849685A
:10437800036811432A6923F4B0530A4323F00C035A
:1043880013430360836823F440726B6991B013434D
:104398008360044601A8FFF7E1FB184B9C4201D15A
:1043A8000B9B0EE0164B9C4201D10C9B09E0154B70
:1043B8009C4201D10D9B04E0134B9C420CBF0E9B09
:1043C8000F9B2268296812F4004F18BF5B00B3FBEB
:1043D800F1F201FB1233B3EB510F236828BF01320E
:1043E8001B0441BF4FF6F073C2F34201134041EA88
:1043F800030292B2A28111B030BD00BF0038014063
:104408000044004000480040004C0040036811B1DF
:1044180043F0010301E023F001030360704710B586
:10442800C1F307240123C9B2022C03FA01F101D117
:10443800043002E0032C08BF083003680AB11943AE
:1044480001E023EA0101016010BD836823F4805371
:1044580083608368194381607047C1F3072210B5F0
:104468000123CCB2012A03FA04F301D1026803E064
:10447800022A0CBF426882681340C26943B1012313
:10448800090C03FA01F1114214BF1846002010BDAF
:10449800184610BD002103E0114B5B58435004310E
:1044A8001048114B42189A42F6D3002103E00F4BF3
:1044B8005B58435004310E480E4B42189A42F6D3CB
:1044C8000D4A02E0002342F8043B0C4B9A42F9D310
:1044D80000F018F8FFF738F9FFF7DCF8704700002C
:1044E8008C5800080000002038010020C45900083A
:1044F800000000106801001000020020C414002011
:10450800FEE70000394AD2F8883043F47003C2F855
:104518008830374B1A6842F001021A605968354AE8
:104528000A405A601A6822F0847222F480321A60B3
:104538001A6822F480221A605A6822F4FE025A602D
:10454800DA6A22F00F02DA62196B2B4A82B00A404B
:104558001A6300229A60009201921A6842F480322B
:104568001A601A6802F400320192009A013200922D
:10457800019A1AB9009AB2F5A06FF2D11A6812F42A
:10458800003218BF01220192019A012A05D0174B67
:104598004FF000629A6002B07047184A1221116009
:1045A8005A685A605A685A605A6842F480625A6077
:1045B8005A6822F47C125A605A6842F4E8125A6027
:1045C8001A6842F080721A601968094A8901FBD595
:1045D800516821F003015160516841F002015160B6
:1045E8005A6802F00C02082AFAD1D0E700ED00E080
:1045F800001002400CC07FF8CCFC00FF00200240F5
:1046080070B4840746D0541E002A41D0CDB2034668
:1046180002E0621EE4B3144603F8015B9A07F8D17E
:10462800032C2ED9CDB245EA05250F2C45EA0545C0
:1046380019D903F110022646103E0F2E42F8105CDD
:1046480042F80C5C42F8085C42F8045C02F1100283
:10465800F2D8A4F1100222F00F0204F00F04103275
:10466800032C13440DD91E462246043A032A46F861
:10467800045BFAD8221F22F003020432134404F028
:1046880003042CB1C9B21C4403F8011BA342FBD19B
:1046980070BC704714460346C2E700BF26035300A8
:1046A80054004D006900630072006F0065006C00E3
:1046B80065006300740072006F006E00690063009B
:1046C80073001201000202000040830440570002F8
:1046D80001020301040309043203530054004D008E
:1046E8003300320020005600690072007400750023
:1046F80061006C00200043004F004D002000500076
:104708006F007200740020002000090243000201BB
:1047180000C0320904000001020201000524001053
:1047280001052401000104240202052406000107F2
:104738000582030800FF09040100020A00000007BF
:104748000503024000000705810240000000000048
:10475800AD360008B1360008B53600081137000834
:104768001537000817370008193700081B370008E5
:104778001D3700081F370008FF7F6480C8802D811F
:104788009181F6815A82BF8223838883EC83518486
:10479800B5841A857E85E2854786AB86108774873F
:1047A800D8873D88A18805896989CE89328A968A01
:1047B800FA8A5E8BC38B278C8B8CEF8C538DB78DCD
:1047C8001B8E7F8EE28E468FAA8F0E907190D590A9
:1047D80039919C9100926392C7922A938E93F19398
:1047E8005494B8941B957E95E1954496A7960A979C
:1047F8006D97CF9732989598F8985A99BD991F9ABE
:10480800819AE49A469BA89B0A9C6C9CCE9C309DFE
:10481800929DF49D569EB79E199F7A9FDC9F3DA05E
:104828009EA0FFA060A1C1A122A283A2E4A245A3E9
:10483800A5A306A466A4C7A427A587A5E7A547A698
:10484800A7A607A766A7C6A725A885A8E4A843A979
:10485800A2A901AA60AABFAA1EAB7CABDBAB39AC8C
:1048680098ACF6AC54ADB2AD10AE6DAECBAE29AFD0
:1048780086AFE3AF40B09DB0FAB057B1B4B110B253
:104888006DB2C9B225B382B3DEB339B495B4F1B40D
:104898004CB5A7B503B65EB6B9B614B76EB7C9B707
:1048A80023B87DB8D8B832B98BB9E5B93FBA98BA48
:1048B800F1BA4BBBA4BBFDBB55BCAEBC06BD5FBDCE
:1048C800B7BD0FBE67BEBEBE16BF6DBFC4BF1CC09E
:1048D80072C0C9C020C176C1CDC123C279C2CFC2BE
:1048E80024C37AC3CFC324C479C4CEC423C577C52F
:1048F800CCC520C674C6C8C61BC76FC7C2C715C8F3
:1049080068C8BBC80EC960C9B3C905CA57CAA8CA0E
:10491800FACA4BCB9CCBEDCB3ECC8FCCDFCC30CD89
:1049280080CDD0CD1FCE6FCEBECE0DCF5CCFABCF5E
:10493800FACF48D096D0E4D032D180D1CDD11AD296
:1049480067D2B4D201D34DD39AD3E6D331D47DD430
:10495800C8D414D55FD5A9D5F4D53ED689D6D2D634
:104968001CD766D7AFD7F8D741D88AD8D2D81BD9A1
:1049780063D9ABD9F2D93ADA81DAC8DA0EDB55DB7A
:104988009BDBE1DB27DC6DDCB2DCF8DC3DDD81DDC7
:10499800C6DD0ADE4EDE92DED6DE19DF5CDF9FDF83
:1049A800E2DF24E067E0A9E0EAE02CE16DE1AEE1B6
:1049B800EFE130E270E2B0E2F0E230E36FE3AEE361
:1049C800EDE32CE46BE4A9E4E7E424E562E59FE584
:1049D800DCE519E655E692E6CEE609E745E780E725
:1049E800BBE7F6E731E86BE8A5E8DFE818E951E945
:1049F8008AE9C3E9FCE934EA6CEAA3EADBEA12EBE8
:104A080049EB80EBB6EBECEB22EC58EC8DECC2EC0E
:104A1800F7EC2CED60ED94EDC8EDFCED2FEE62EEB9
:104A280095EEC7EEFAEE2BEF5DEF8FEFC0EFF1EFEB
:104A380021F052F082F0B1F0E1F010F13FF16EF1A7
:104A48009CF1CAF1F8F126F253F280F2ADF2DAF2F3
:104A580006F332F35DF389F3B4F3DFF309F434F4C6
:104A68005EF487F4B1F4DAF403F52CF554F57CF52B
:104A7800A4F5CBF5F2F519F640F666F68CF6B2F623
:104A8800D7F6FDF621F746F76AF78EF7B2F7D6F7AD
:104A9800F9F71CF83EF861F883F8A4F8C6F8E7F8C7
:104AA80008F928F949F969F988F9A8F9C7F9E5F978
:104AB80004FA22FA40FA5EFA7BFA98FAB5FAD1FAC1
:104AC800EDFA09FB25FB40FB5BFB76FB90FBAAFBA1
:104AD800C4FBDDFBF7FB0FFC28FC40FC58FC70FC1A
:104AE80087FC9EFCB5FCCCFCE2FCF8FC0DFD23FD2C
:104AF80038FD4CFD61FD75FD88FD9CFDAFFDC2FDD7
:104B0800D4FDE7FDF9FD0AFE1CFE2DFE3DFE4EFE1E
:104B18005EFE6EFE7DFE8CFE9BFEAAFEB8FEC6FE05
:104B2800D4FEE1FEEEFEFBFE08FF14FF20FF2BFF84
:104B380036FF41FF4CFF56FF60FF6AFF73FF7CFFA3
:104B480085FF8EFF96FF9EFFA5FFACFFB3FFBAFF60
:104B5800C0FFC6FFCCFFD1FFD7FFDBFFE0FFE4FFBC
:104B6800E8FFEBFFEFFFF2FFF4FFF6FFF8FFFAFFB5
:104B7800FCFFFDFFFDFFFEFFFEFFFEFFFDFFFDFF4B
:104B8800FCFFFAFFF8FFF6FFF4FFF2FFEFFFEBFF81
:104B9800E8FFE4FFE0FFDBFFD7FFD1FFCCFFC6FF54
:104BA800C0FFBAFFB3FFACFFA5FF9EFF96FF8EFFC5
:104BB80085FF7CFF73FF6AFF60FF56FF4CFF41FFD4
:104BC80036FF2BFF20FF14FF08FFFBFEEEFEE1FE81
:104BD800D4FEC6FEB8FEAAFE9BFE8CFE7DFE6EFECF
:104BE8005EFE4EFE3DFE2DFE1CFE0AFEF9FDE7FDB3
:104BF800D4FDC2FDAFFD9CFD88FD75FD61FD4CFD3A
:104C080038FD23FD0DFDF8FCE2FCCCFCB5FC9EFC58
:104C180087FC70FC58FC40FC28FC0FFCF7FBDDFB14
:104C2800C4FBAAFB90FB76FB5BFB40FB25FB09FB67
:104C3800EDFAD1FAB5FA98FA7BFA5EFA40FA22FA56
:104C480004FAE5F9C7F9A8F988F969F949F928F9D9
:104C580008F9E7F8C6F8A4F883F861F83EF81CF8F4
:104C6800F9F7D6F7B2F78EF76AF746F721F7FDF6A8
:104C7800D7F6B2F68CF666F640F619F6F2F5CBF5ED
:104C8800A4F57CF554F52CF503F5DAF4B1F487F4C2
:104C98005EF434F409F4DFF3B4F389F35DF332F32B
:104CA80006F3DAF2ADF280F253F226F2F8F1CAF125
:104CB8009CF16EF13FF110F1E1F0B1F082F052F0A9
:104CC80021F0F1EFC0EF8FEF5DEF2BEFFAEEC7EEBB
:104CD80095EE62EE2FEEFCEDC8ED94ED60ED2CED57
:104CE800F7ECC2EC8DEC58EC22ECECEBB6EB80EB7D
:104CF80049EB12EBDBEAA3EA6CEA34EAFCE9C3E924
:104D08008AE951E918E9DFE8A5E86BE831E8F6E750
:104D1800BBE780E745E709E7CEE692E655E619E600
:104D2800DCE59FE562E524E5E7E4A9E46BE42CE42F
:104D3800EDE3AEE36FE330E3F0E2B0E270E230E2DD
:104D4800EFE1AEE16DE12CE1EAE0A9E067E024E003
:104D5800E2DF9FDF5CDF19DFD6DE92DE4EDE0ADEA1
:104D6800C6DD81DD3DDDF8DCB2DC6DDC27DCE1DBB6
:104D78009BDB55DB0EDBC8DA81DA3ADAF2D9ABD93C
:104D880063D91BD9D2D88AD841D8F8D7AFD766D734
:104D98001CD7D2D689D63ED6F4D5A9D55FD514D599
:104DA800C8D47DD431D4E6D39AD34DD301D3B4D269
:104DB80067D21AD2CDD180D132D1E4D096D048D0A2
:104DC800FACFABCF5CCF0DCFBECE6FCE1FCED0CD3E
:104DD80080CD30CDDFCC8FCC3ECCEDCB9CCB4BCB3C
:104DE800FACAA8CA57CA05CAB3C960C90EC9BBC896
:104DF80068C815C8C2C76FC71BC7C8C674C620C64F
:104E0800CCC577C523C5CEC479C424C4CFC37AC35F
:104E180024C3CFC279C223C2CDC176C120C1C9C0C3
:104E280072C01CC0C4BF6DBF16BFBEBE67BE0FBE7A
:104E3800B7BD5FBD06BDAEBC55BCFDBBA4BB4BBB7F
:104E4800F1BA98BA3FBAE5B98BB932B9D8B87DB8D2
:104E580023B8C9B76EB714B7B9B65EB603B6A7B567
:104E68004CB5F1B495B439B4DEB382B325B3C9B245
:104E78006DB210B2B4B157B1FAB09DB040B0E3AF63
:104E880086AF29AFCBAE6DAE10AEB2AD54ADF6ACB9
:104E980098AC39ACDBAB7CAB1EABBFAA60AA01AA4D
:104EA800A2A943A9E4A885A825A8C6A766A707A715
:104EB800A7A647A6E7A587A527A5C7A466A406A40D
:104EC800A5A345A3E4A283A222A2C1A160A1FFA039
:104ED8009EA03DA0DC9F7A9F199FB79E569EF49D89
:104EE800929D309DCE9C6C9C0A9CA89B469BE49A04
:104EF800819A1F9ABD995A99F89895983298CF97A0
:104F08006D970A97A7964496E1957E951B95B89458
:104F18005494F1938E932A93C792639200929C9132
:104F28003991D59071900E90AA8F468FE28E7F8E20
:104F38001B8EB78D538DEF8C8B8C278CC38B5E8B20
:104F4800FA8A968A328ACE8969890589A1883D8834
:104F5800D88774871087AB864786E2857E851A8551
:104F6800B5845184EC8388832383BF825A82F68177
:104F780091812D81C8806480FF7F9A7F367FD17EA2
:104F88006D7E087EA47D3F7DDB7C767C127CAD7BCC
:104F9800497BE47A807A1C7AB7795379EE788A78F3
:104FA8002678C1775D77F97695763076CC75687511
:104FB8000475A0743B74D77373730F73AB72477225
:104FC800E3717F711C71B8705470F06F8D6F296F29
:104FD800C56E626EFE6D9B6D376DD46C706C0D6C1A
:104FE800AA6B466BE36A806A1D6ABA695769F468F6
:104FF80091682F68CC6769670667A4664166DF65B4
:105008007D651A65B8645664F46392633063CE6252
:105018006C620A62A8614761E56084602260C15FD2
:10502800605FFF5E9E5E3D5EDC5D7B5D1A5DB95C28
:10503800595CF85B985B375BD75A775A175AB75958
:105048005759F75898583858D95779571A57BB5657
:105058005C56FD559E553F55E05482542354C55324
:1050680066530853AA524C52EE5191513351D550C0
:1050780078501B50BE4F614F044FA74E4A4EEE4D1D
:10508800914D354DD94C7C4C204CC54B694B0D4B43
:10509800B24A574AFB49A0494549EA489048354829
:1050A800DB4781472647CC4673461946BF456645C8
:1050B8000D45B3445A440144A9435043F8429F4222
:1050C8004742EF4197414041E84091403A40E23F32
:1050D8008C3F353FDE3E883E313EDB3D853D2F3DF2
:1050E800DA3C843C2F3CDA3B853B303BDB3A873A61
:1050F800323ADE398A393639E3388F383C38E9377D
:1051080096374337F0369E364B36F935A735563540
:105118000435B33462341134C0336F331F33CE32A5
:105128007E322E32DF318F314031F130A2305330B0
:105138000430B62F682F1A2FCC2E7E2E312EE42D58
:10514800972D4A2DFD2CB12C642C182CCD2B812B9E
:10515800362BEA2A9F2A552A0A2AC02975292C297A
:10516800E22898284F280628BD2774272C27E326ED
:105178009B2653260C26C4257D253625F024A924F4
:1051880063241D24D72391234C230623C1227D2287
:105198003822F421B0216C212821E520A2205F20AB
:1051A8001C20DA1F971F551F141FD21E911E501E58
:1051B8000F1ECE1D8E1D4E1D0E1DCE1C8F1C501C8D
:1051C800111CD21B931B551B171BDA1A9C1A5F1A4A
:1051D800221AE519A9196C193019F518B9187E1889
:1051E80043180818CD17931759171F17E616AD1649
:1051F80074163B160216CA1592155B152315EC1486
:10520800B5147E1448141214DC13A61371133C133E
:105218000713D2129E126A1236120212CF119C1173
:10522800691137110411D310A1106F103E100D1021
:10523800DD0FAC0F7C0F4D0F1D0FEE0EBF0E900E45
:10524800620E340E060ED80DAB0D7E0D510D240DD9
:10525800F80CCC0CA10C750C4A0C1F0CF50BCA0BE6
:10526800A00B770B4D0B240BFB0AD20AAA0A820A61
:105278005A0A330A0C0AE509BE09980972094C0949
:1052880027090109DD08B808940870084C0828089F
:105298000508E207C0079D077B075A073807170765
:1052A800F606D606B5069506760656063706190694
:1052B800FA05DC05BE05A0058305660549052D052B
:1052C8001105F504D904BE04A30488046E0454042B
:1052D8003A0421040704EF03D603BE03A6038E0392
:1052E80077036003490332031C030603F102DB0260
:1052F800C602B2029D028902760262024F023C0295
:105308002A0217020502F401E201D101C101B0012C
:10531800A001900181017201630154014601380125
:105328002A011D0110010301F600EA00DE00D30086
:10533800C800BD00B200A8009E0094008B00820047
:105348007900700068006000590052004B0044006A
:105358003E00380032002D00270023001E001A00EE
:10536800160013000F000C000A00080006000400D5
:10537800020001000100000000000000010001001F
:1053880002000400060008000A000C000F001300C9
:1053980016001A001E00230027002D0032003800D6
:1053A8003E0044004B005200590060006800700045
:1053B800790082008B0094009E00A800B200BD0016
:1053C800C800D300DE00EA00F600030110011D0149
:1053D8002A013801460154016301720181019001DB
:1053E800A001B001C101D101E201F40105021702D7
:1053F8002A023C024F026202760289029D02B20230
:10540800C602DB02F10206031C03320349036003F0
:1054180077038E03A603BE03D603EF030704210414
:105428003A0454046E048804A304BE04D904F504A1
:1054380011052D05490566058305A005BE05DC0592
:10544800FA0519063706560676069506B506D606EF
:10545800F606170738075A077B079D07C007E207B4
:10546800050828084C0870089408B808DD080109E0
:1054780027094C0972099809BE09E5090C0A330A7B
:105488005A0A820AAA0AD20AFB0A240B4D0B770B86
:10549800A00BCA0BF50B1F0C4A0C750CA10CCC0CFD
:1054A800F80C240D510D7E0DAB0DD80D060E340EE3
:1054B800620E900EBF0EEE0E1D0F4D0F7C0FAC0F3F
:1054C800DD0F0D103E106F10A110D310041137110D
:1054D80069119C11CF11021236126A129E12D21251
:1054E80007133C137113A613DC13121448147E140B
:1054F800B514EC1423155B159215CA1502163B1644
:105508007416AD16E6161F1759179317CD170818F6
:1055180043187E18B918F51830196C19A919E51926
:10552800221A5F1A9C1ADA1A171B551B931BD21BD7
:10553800111C501C8F1CCE1C0E1D4E1D8E1DCE1D09
:105548000F1E501E911ED21E141F551F971FDA1FC3
:105558001C205F20A220E52028216C21B021F42105
:1055680038227D22C12206234C239123D7231D24D0
:105578006324A924F02436257D25C4250C2653262A
:105588009B26E3262C277427BD2706284F28982812
:10559800E2282C297529C0290A2A552A9F2AEA2A8D
:1055A800362B812BCD2B182C642CB12CFD2C4A2D9D
:1055B800972DE42D312E7E2ECC2E1A2F682FB62F44
:1055C80004305330A230F13040318F31DF312E3288
:1055D8007E32CE321F336F33C03311346234B3346A
:1055E80004355635A735F9354B369E36F0364337F0
:1055F8009637E9373C388F38E33836398A39DE3917
:10560800323A873ADB3A303B853BDA3B2F3C843CE5
:10561800DA3C2F3D853DDB3D313E883EDE3E353F61
:105628008C3FE23F3A409140E84040419741EF418A
:1056380047429F42F8425043A94301445A44B34465
:105648000D456645BF4519467346CC4626478147F2
:10565800DB4735489048EA484549A049FB49574A3D
:10566800B24A0D4B694BC54B204C7C4CD94C354D3F
:10567800914DEE4D4A4EA74E044F614FBE4F1B5001
:105688007850D55033519151EE514C52AA5208538B
:105698006653C55323548254E0543F559E55FD55D7
:1056A8005C56BB561A577957D95738589858F758EF
:1056B8005759B759175A775AD75A375B985BF85BD7
:1056C800595CB95C1A5D7B5DDC5D3D5E9E5EFF5E8C
:1056D800605FC15F22608460E5604761A8610A621B
:1056E8006C62CE6230639263F4635664B8641A6580
:1056F8007D65DF654166A46606676967CC672F68C4
:105708009168F4685769BA691D6A806AE36A466BEA
:10571800AA6B0D6C706CD46C376D9B6DFE6D626EF0
:10572800C56E296F8D6FF06F5470B8701C717F71E2
:10573800E3714772AB720F737373D7733B74A074C2
:1057480004756875CC7530769576F9765D77C1778E
:1057580026788A78EE785379B7791C7A807AE47A51
:10576800497BAD7B127C767CDB7C3F7DA47D087E0B
:105778006D7ED17E367F9A7F00E1000000960000A2
:10578800004B00008025000000E803000000000036
:1057980000000000312A0008612900089D2900083E
:1057A8006D2900087B290008052A00088F290008B0
:1057B8000002090000000048070000040A00000079
:1057C80000000048070000000038014025000000E4
:1057D800080003000004004807001000040000004F
:1057E80000040048070000000044004026000000B4
:1057F8000000000000000000000000080B0000008E
:10580800000400480700000000480040270000008E
:105818000000000000000000B52C00082D2C000836
:105828005D2C0008392C0008472C0008892C00083A
:045838005B2C0008DD
:10583C00054B06481A68064B02FB00009B680922C0
:10584C00B3FBF2F3C01A70475802002040420F001D
:10585C0010E000E0044A136801331360034A136834
:10586C0001331360704700BF58020020540200201F
:10587C00F118000851290008152C00081D2E0008ED
:10588C001A03530054004D00330032000000000096
:10589C0000000000000000000000000019040008D7
:1058AC00CD110008CD110008CD110008CD11000854
:1058BC00CD110008CD110008CD110008CD11000844
:1058CC0055040008CD110008CD110008CD110008B9
:1058DC00CD1100081247000843000000FD06000827
:1058EC0021070008390600084D060008510600087B
:1058FC00AD060008D10600080908000815080008C4
:10590C00210800080000000040000000CD11000834
:10591C0015060008CD110008CD110008CD110008A6
:10592C00CD110008CD110008CD1100082D0600087E
:10593C00CA46000812000000DC4600080400000003
:10594C00A446000826000000E046000832000000D3
:10595C00000000201A00000000C201000000080036
:10596C000401010038020020440200202C02002017
:10597C0010040810010204050608090A102700008B
:10598C00FF00000010270000C800C800C80000007D
:10599C00010002000400060008000A000C001000C0
:1059AC002000400080000001000000000102030400
:0859BC000102030406070809BB
:1059C400F8B53B4E3B494FF4077404FB00640746AB
:1059D400A3689D69284600F087F888B3A98CEB6911
:1059E4009A0789B210D1B4F81632B4F814220133EC
:1059F400DBB292B293421FD0B4F81622A4F8163246
:105A040014FA82F211741BE0EB69DB0702D494F8F8
:105A140018328BB94FF4077000FB076090F8183206
:105A2400034493F819323BB990F8183283F0010318
:105A340080F8183200F060F81F4A1388013313808D
:105A44001E49284600F050F880B34FF4077303FB57
:105A54000763B3F81012B3F8122289B292B29142DA
:105A640011D0B3F8122213FA82F292F810212A8587
:105A7400B3F81222013292B2A3F81222B3F812221E
:105A8400D2B2A3F812224FF4077303FB0766B6F8E9
:105A94001222B6F8103292B29BB29A4206D128462C
:105AA40000220649BDE8F84000F016B8F8BD00BF72
:105AB400F40300200501050022020020070107006D
:105AC4000020FFF77DBF0220FFF77ABF00F01CB86B
