:020000040800F2
:100000000000022011200008991A00089B1A00081D
:100010009D1A00089F1A0008A11A0008000000009D
:10002000000000000000000000000000417C00080B
:10003000A31A000800000000E17C0008457D0008CC
:10004000612000086120000861200008612000088C
:100050006120000861200008A51A0008612000083E
:1000600061200008AF1A0008B91A000861200008D2
:10007000C51A0008612000086120000861200008FE
:10008000612000086120000861200008D51A0008DE
:10009000E51A00086120000861200008F51A000830
:1000A000612000086120000861200008612000082C
:1000B000011B000861200008612000086120000881
:1000C000612000086120000861200008612000080C
:1000D00061200008612000086120000891140108D7
:1000E00061200008612000086120000861200008EC
:1000F00061200008612000086120000861200008DC
:1001000061200008612000086120000861200008CB
:1001100061200008612000086120000861200008BB
:100120006120000861200008111B0008251B000841
:10013000612000086120000861200008351B0008CC
:10014000451B00086120000861200008551B0008BD
:10015000612000086120000861200008612000087B
:10016000612000086120000861200008612000086B
:1001700061200008612000086120000800000000E4
:08018000612000086120000865
:1001C00010B5054C237833B9044B13B10448AFF391
:1001D00000800123237010BD380B002000000000B8
:1001E0003C43010808B5034B1BB103490348AFF377
:1001F000008008BD000000003C0B00203C430108CB
:1002000081F0004102E000BF83F0004330B54FEAC7
:1002100041044FEA430594EA050F08BF90EA020F34
:100220001FBF54EA000C55EA020C7FEA645C7FEAC7
:10023000655C00F0E2804FEA5454D4EB5555B8BFEA
:100240006D420CDD2C4480EA020281EA030382EA5B
:10025000000083EA010180EA020281EA0303362DED
:1002600088BF30BD11F0004F4FEA01314FF4801CC0
:100270004CEA113102D0404261EB410113F0004FD2
:100280004FEA03334CEA133302D0524263EB430389
:1002900094EA050F00F0A780A4F10104D5F1200E27
:1002A0000DDB02FA0EFC22FA05F2801841F1000182
:1002B00003FA0EF2801843FA05F359410EE0A5F156
:1002C00020050EF1200E012A03FA0EFC28BF4CF087
:1002D000020C43FA05F3C01851EBE37101F000453D
:1002E00007D54FF0000EDCF1000C7EEB00006EEB4A
:1002F0000101B1F5801F1BD3B1F5001F0CD34908D4
:100300005FEA30004FEA3C0C04F101044FEA44522A
:1003100012F5800F80F09A80BCF1004F08BF5FEAB1
:10032000500C50F1000041EB045141EA050130BD91
:100330005FEA4C0C404141EB0101013C28BFB1F5A3
:10034000801FE9D291F0000F04BF01460020B1FAEE
:1003500081F308BF2033A3F10B03B3F120020CDAC1
:100360000C3208DD02F1140CC2F10C0201FA0CF09F
:1003700021FA02F10CE002F11402D8BFC2F1200C04
:1003800001FA02F120FA0CFCDCBF41EA0C019040BA
:10039000E41AA2BF01EB0451294330BD6FEA040403
:1003A0001F3C1CDA0C340EDC04F11404C4F12002EE
:1003B00020FA04F001FA02F340EA030021FA04F300
:1003C00045EA030130BDC4F10C04C4F1200220FA57
:1003D00002F001FA04F340EA0300294630BD21FA95
:1003E00004F0294630BD94F0000F83F4801306BF5B
:1003F00081F480110134013D4EE77FEA645C18BF4F
:100400007FEA655C29D094EA050F08BF90EA020FE5
:1004100005D054EA000C04BF1946104630BD91EADD
:10042000030F1EBF0021002030BD5FEA545C05D1E0
:100430004000494128BF41F0004130BD14F580041F
:100440003CBF01F5801130BD01F0004545F0FE4193
:1004500041F470014FF0000030BD7FEA645C1ABFC8
:10046000194610467FEA655C1CBF0B46024650EAFF
:10047000013406BF52EA033591EA030F41F400212B
:1004800030BD00BF90F0000F04BF0021704730B5B1
:100490004FF4806404F132044FF000054FF0000186
:1004A00050E700BF90F0000F04BF0021704730B547
:1004B0004FF4806404F1320410F0004548BF40421C
:1004C0004FF000013EE700BF42004FEAE2014FEA71
:1004D00031014FEA02701FBF12F07F4393F07F4F4C
:1004E00081F06051704732F07F4208BF704793F04F
:1004F0007F4F04BF41F40021704730B54FF4607462
:1005000001F0004521F000411CE700BF50EA010264
:1005100008BF704730B54FF000050AE050EA01020D
:1005200008BF704730B511F0004502D5404261EB7D
:1005300041014FF4806404F132045FEA915C3FF4BE
:10054000D8AE4FF003025FEADC0C18BF03325FEA5B
:10055000DC0C18BF033202EBDC02C2F1200300FA0C
:1005600003FC20FA02F001FA03FE40EA0E0021FA31
:1005700002F11444BDE600BF4FEA4102B2F1E0438C
:1005800024BFB3F5001CDCF1FE5C0DD901F0004C7A
:100590004FEAC0024CEA5070B2F1004F40EB8300CA
:1005A00008BF20F00100704711F0804F21D113F1F6
:1005B0003872BCBF01F00040704741F480114FEA2F
:1005C0005252C2F11802C2F1200C10FA0CF320FAB8
:1005D00002F018BF40F001004FEAC1234FEAD323D5
:1005E00003FA0CFC40EA0C0023FA02F34FEA43033F
:1005F000CCE77FEA625307D150EA01331EBF4FF0C8
:10060000FE4040F44000704701F0004040F0FE40E2
:1006100040F40000704700BF53B94AB9002908BF31
:1006200000281CBF4FF0FF314FF0FF3000F074B9CD
:10063000ADF1080C6DE904CE00F006F8DDF804E039
:10064000DDE9022304B070472DE9F047089D044618
:100650008E46002B4DD18A42944669D9B2FA82F275
:1006600052B101FA02F3C2F1200120FA01F10CFAB1
:1006700002FC41EA030E94404FEA1C48210CBEFBE9
:10068000F8F61FFA8CF708FB16E341EA034306FB72
:1006900007F199420AD91CEB030306F1FF3080F001
:1006A0001F81994240F21C81023E63445B1AA4B24E
:1006B000B3FBF8F008FB103344EA034400FB07F7F0
:1006C000A7420AD91CEB040400F1FF3380F00A8131
:1006D000A74240F207816444023840EA0640E41B26
:1006E00000261DB1D4400023C5E900433146BDE8D2
:1006F000F0878B4209D9002D00F0EF800026C5E974
:10070000000130463146BDE8F087B3FA83F6002E8B
:100710004AD18B4202D3824200F2F980841A61EB03
:10072000030301209E46002DE0D0C5E9004EDDE721
:1007300002B9FFDEB2FA82F2002A40F09280A1EB09
:100740000C014FEA1C471FFA8CFE0126200CB1FB5E
:10075000F7F307FB131140EA01410EFB03F0884257
:1007600008D91CEB010103F1FF3802D2884200F2E4
:10077000CB804346091AA4B2B1FBF7F007FB101176
:1007800044EA01440EFB00FEA64508D91CEB040414
:1007900000F1FF3102D2A64500F2BB800846A4EB6F
:1007A0000E0440EA03409CE7C6F12007B34022FA5A
:1007B00007FC4CEA030C20FA07F401FA06F31C4389
:1007C000F9404FEA1C4900FA06F3B1FBF9F8200C96
:1007D0001FFA8CFE09FB181140EA014108FB0EF0DC
:1007E000884202FA06F20BD91CEB010108F1FF3A2C
:1007F00080F08880884240F28580A8F10208614438
:10080000091AA4B2B1FBF9F009FB101144EA014145
:1008100000FB0EFE8E4508D91CEB010100F1FF34F0
:100820006CD28E456AD90238614440EA0840A0FB88
:100830000294A1EB0E01A142C846A64656D353D05E
:100840005DB1B3EB080261EB0E0101FA07F722FA82
:1008500006F3F1401F43C5E9007100263146BDE8AB
:10086000F087C2F12003D8400CFA02FC21FA03F30E
:10087000914001434FEA1C471FFA8CFEB3FBF7F08F
:1008800007FB10360B0C43EA064300FB0EF69E42B4
:1008900004FA02F408D91CEB030300F1FF382FD24D
:1008A0009E422DD9023863449B1B89B2B3FBF7F6F5
:1008B00007FB163341EA034106FB0EF38B4208D9CE
:1008C0001CEB010106F1FF3816D28B4214D9023E0F
:1008D0006144C91A46EA004638E72E46284605E72D
:1008E0000646E3E61846F8E64B45A9D2B9EB0208FE
:1008F00064EB0C0E0138A3E74646EAE7204694E78E
:100900004046D1E7D0467BE7023B614432E73046C0
:1009100009E76444023842E7704700BF844641EA71
:10092000000313F003036DD1403A41D351F8043B67
:1009300040F8043B51F8043B40F8043B51F8043BB9
:1009400040F8043B51F8043B40F8043B51F8043BA9
:1009500040F8043B51F8043B40F8043B51F8043B99
:1009600040F8043B51F8043B40F8043B51F8043B89
:1009700040F8043B51F8043B40F8043B51F8043B79
:1009800040F8043B51F8043B40F8043B51F8043B69
:1009900040F8043B51F8043B40F8043B51F8043B59
:1009A00040F8043B51F8043B40F8043B403ABDD2C8
:1009B000303211D351F8043B40F8043B51F8043B6A
:1009C00040F8043B51F8043B40F8043B51F8043B29
:1009D00040F8043B103AEDD20C3205D351F8043BF9
:1009E00040F8043B043AF9D2043208D0D2071CBFC5
:1009F00011F8013B00F8013B01D30B8803806046EE
:100A0000704700BF082A13D38B078DD010F0030363
:100A10008AD0C3F10403D21ADB071CBF11F8013BD3
:100A200000F8013B80D331F8023B20F8023B7BE722
:100A3000043AD9D3013A11F8013B00F8013BF9D24D
:100A40000B7803704B7843708B78837060467047E7
:100A50000000000000000000000000000000000096
:100A60000000000000000000000000000000000086
:100A70000000000000000000000000000000000076
:100A800090F800F06DE9024520F007016FF0000CCE
:100A900010F0070491F820F040F049804FF0000476
:100AA0006FF00700D1E9002391F840F000F1080051
:100AB00082FA4CF2A4FA8CF283FA4CF3A2FA8CF389
:100AC0004BBBD1E9022382FA4CF200F10800A4FAF0
:100AD0008CF283FA4CF3A2FA8CF3E3B9D1E9042344
:100AE00082FA4CF200F10800A4FA8CF283FA4CF37B
:100AF000A2FA8CF37BB9D1E9062301F1200182FA35
:100B00004CF200F10800A4FA8CF283FA4CF3A2FA3A
:100B10008CF3002BC6D0002A04BF04301A4612BA48
:100B2000B2FA82F2FDE8024500EBD2007047D1E94B
:100B3000002304F00305C4F100004FEAC50514F0DA
:100B4000040F91F840F00CFA05F562EA05021CBFAB
:100B500063EA050362464FF00004A9E770B54FF061
:100B6000FF0C4CF4E06C1CEA11541DBF1CEA135539
:100B700094EA0C0F95EA0C0F00F0DEF82C4481EAA1
:100B8000030621EA4C5123EA4C5350EA013518BFC1
:100B900052EA033541F4801143F4801338D0A0FBAE
:100BA00002CE4FF00005E1FB02E506F00042E0FB5B
:100BB00003E54FF00006E1FB03569CF0000F18BF61
:100BC0004EF0010EA4F1FF04B6F5007F64F5407409
:100BD00004D25FEA4E0E6D4146EB060642EAC6219C
:100BE00041EA55514FEAC52040EA5E504FEACE2E09
:100BF000B4F1FD0C88BFBCF5E06F1ED8BEF1004F0C
:100C000008BF5FEA500E50F1000041EB045170BD87
:100C100006F0004646EA010140EA020081EA0301CB
:100C2000B4EB5C04C2BFD4EB0C0541EA045170BDC7
:100C300041F480114FF0000E013C00F3AB8014F141
:100C4000360FDEBF002001F0004170BDC4F100048A
:100C5000203C35DA0C341BDC04F11404C4F120050B
:100C600000FA05F320FA04F001FA05F240EA020066
:100C700001F0004221F0004110EBD37021FA04F69C
:100C800042EB06015EEA430E08BF20EAD37070BD56
:100C9000C4F10C04C4F1200500FA04F320FA05F0B5
:100CA00001FA04F240EA020001F0004110EBD370B7
:100CB00041F100015EEA430E08BF20EAD37070BD27
:100CC000C4F1200500FA05F24EEA020E20FA04F300
:100CD00001FA05F243EA020321FA04F001F00041AF
:100CE00021FA04F220EA020000EBD3705EEA430E20
:100CF00008BF20EAD37070BD94F0000F0FD101F04F
:100D00000046400041EB010111F4801F08BF013C87
:100D1000F7D041EA060195F0000F18BF704703F0C5
:100D20000046520043EB030313F4801F08BF013D4C
:100D3000F7D043EA0603704794EA0C0F0CEA135508
:100D400018BF95EA0C0F0CD050EA410618BF52EAC2
:100D50004306D1D181EA030101F000414FF00000C8
:100D600070BD50EA410606BF1046194652EA4306D6
:100D700019D094EA0C0F02D150EA013613D195EA4A
:100D80000C0F05D152EA03361CBF104619460AD192
:100D900081EA030101F0004141F0FE4141F470019C
:100DA0004FF0000070BD41F0FE4141F4780170BD8C
:100DB00070B54FF0FF0C4CF4E06C1CEA11541DBFF1
:100DC0001CEA135594EA0C0F95EA0C0F00F0A7F8F3
:100DD000A4EB050481EA030E52EA03354FEA013120
:100DE00000F088804FEA03334FF0805545EA131333
:100DF00043EA12634FEA022245EA111545EA1065FB
:100E00004FEA00260EF000419D4208BF964244F191
:100E1000FD0404F5407402D25B084FEA3202B61AB0
:100E200065EB03055B084FEA32024FF480104FF484
:100E3000002CB6EB020E75EB030E22BFB61A7546F8
:100E400040EA0C005B084FEA3202B6EB020E75EB8B
:100E5000030E22BFB61A754640EA5C005B084FEAF3
:100E60003202B6EB020E75EB030E22BFB61A7546C0
:100E700040EA9C005B084FEA3202B6EB020E75EBCB
:100E8000030E22BFB61A754640EADC0055EA060E8C
:100E900018D04FEA051545EA16754FEA06164FEACF
:100EA000C30343EA52734FEAC2025FEA1C1CC0D17B
:100EB00011F4801F0BD141EA00014FF000004FF008
:100EC000004CB6E711F4801F04BF01430020B4F1C9
:100ED000FD0C88BFBCF5E06F3FF6AFAEB5EB030C81
:100EE00004BFB6EB020C5FEA500C50F1000041EB7E
:100EF000045170BD0EF0004E4EEA113114EB5C044B
:100F0000C2BFD4EB0C0541EA045170BD41F480111D
:100F10004FF0000E013C90E645EA060E8DE60CEA25
:100F2000135594EA0C0F08BF95EA0C0F3FF43BAF42
:100F300094EA0C0F0AD150EA01347FF434AF95EAF9
:100F40000C0F7FF425AF104619462CE795EA0C0FDD
:100F500006D152EA03353FF4FDAE1046194622E7AA
:100F600050EA410618BF52EA43067FF4C5AE50EA84
:100F700041047FF40DAF52EA43057FF4EBAE12E774
:100F80004FF0FF3C06E000BF4FF0010C02E000BF55
:100F90004FF0010C4DF804CD4FEA410C7FEA6C5C38
:100FA0004FEA430C18BF7FEA6C5C1BD001B050EADB
:100FB000410C0CBF52EA430C91EA030F02BF90EAC6
:100FC000020F0020704710F1000F91EA030F58BF85
:100FD000994208BF90422CBFD8176FEAE37040F0E7
:100FE000010070474FEA410C7FEA6C5C02D150EA85
:100FF000013C07D14FEA430C7FEA6C5CD6D152EA40
:10100000033CD3D05DF8040B704700BF8446104604
:1010100062468C461946634600E000BF01B5FFF703
:10102000B7FF002848BF10F1000F01BD4DF808EDD3
:10103000FFF7F4FF0CBF012000205DF808FB00BFA4
:101040004DF808EDFFF7EAFF34BF012000205DF8FE
:1010500008FB00BF4DF808EDFFF7E0FF94BF01204B
:1010600000205DF808FB00BF4DF808EDFFF7CEFF4C
:1010700094BF012000205DF808FB00BF4DF808ED8B
:10108000FFF7C4FF34BF012000205DF808FB00BF5C
:101090004FEA410C7FEA6C5C02D150EA013C0AD174
:1010A0004FEA430C7FEA6C5C02D152EA033C02D166
:1010B0004FF0000070474FF00100704708B50E4830
:1010C0000E4B03600323436000238360C3604FF42F
:1010D000102202614FF40012426103764376837658
:1010E0000122C2760377437700F0FCFF00B908BD08
:1010F00000F015FBFBE700BF580B00200064004028
:1011000008B50E480E4B0360032343600023836041
:10111000C3604FF4102202614FF400124261037663
:10112000437683760122C2760377437700F0DAFFB5
:1011300000B908BD00F0F3FAFBE700BF800B002008
:101140000068004010B58AB000230593069307930A
:10115000089309930368454A934204D0444A934252
:101160003CD00AB010BD434A136801331360012B11
:1011700027D000240194404B1A6B42F008021A63F6
:101180001B6B03F008030193019B032305930222C9
:10119000069208930923099305A9384801F06EFFC8
:1011A00022460521132001F08DFB132001F0C2FB24
:1011B00022460521142001F085FB142001F0BAFB22
:1011C000CFE7002300932C4B1A6C42F000721A6494
:1011D0001B6C03F000730093009BCAE7002302938B
:1011E000254B1A6C42F080621A641B6C03F080631A
:1011F0000293029B1F4A136801331360012B28D00E
:10120000002404941C4B1A6B42F002021A631B6BFD
:1012100003F002030493049B6023059302230693C7
:10122000032308930923099305A9154801F026FF14
:10123000224605213F2001F045FB3F2001F07AFBCB
:1012400022460521402001F03DFB402001F072FBC9
:1012500087E700230393084B1A6C42F000721A646C
:101260001B6C03F000730393039BC9E70064004009
:1012700000680040540B002000380240000C02407F
:101280000004024010B582B000240094164B1A6B83
:1012900042F400121A631A6B02F400120092009AD0
:1012A00001941A6B42F480021A631B6B03F48003EF
:1012B0000193019B224605210C2001F003FB0C2029
:1012C00001F038FB224605213A2001F0FBFA3A20D2
:1012D00001F030FB224605213B2001F0F3FA3B20D0
:1012E00001F028FB02B010BD0038024008B508F03C
:1012F000B7FB012006F000FCFBE70000034B036096
:10130000034B0B6080231360704700BFC00D0020AB
:10131000BC0B0020034B0360034B0B604FF4807346
:1013200013607047401600204012002010B5A4B092
:101330002D4C0DF1740CA646BEE80F00ACE80F0072
:101340009EE807008CE8070000211DA806F09FFB1F
:10135000264B18600DF1580C04F11C0EBEE80F006E
:10136000ACE80F009EE807008CE80700002116A8F3
:1013700006F08DFB1E4B18600DF13C0C04F1380E8D
:10138000BEE80F00ACE80F009EE807008CE80700FD
:1013900000210FA806F07BFB164B18600DF1200C06
:1013A00004F1540EBEE80F00ACE80F009EE8070001
:1013B0008CE80700002108A806F069FB0E4B1860B6
:1013C0000DF1040E04F1700CBCE80F00AEE80F0044
:1013D0009CE807008EE80700002101A806F057FBF3
:1013E000064B186024B010BD54430108B40B002014
:1013F000AC0B0020A80B0020B00B0020B80B002085
:101400002DE9F04F8DB000240794089409940A94B4
:101410000B9400945B4B1A6B42F002021A631A6B36
:1014200002F002020092009A01941A6B42F001024B
:101430001A631A6B02F001020192019A02941A6B6C
:1014400042F008021A631A6B02F008020292029A32
:1014500003941A6B42F004021A631A6B02F004023E
:101460000392039A04941A6B42F020021A631A6BD7
:1014700002F020020492049A05941A6B42F0800252
:101480001A631A6B02F080020592059A06941A6B91
:1014900042F040021A631B6B03F040030693069B65
:1014A000394F01224021384601F0DAFEDFF8DCA096
:1014B00001221021504601F0D3FEDFF8D480012232
:1014C0001146404601F0CCFE4023079301250895C4
:1014D00009950A9507A9384601F0D0FD0926079617
:1014E0004FF40419CDF82090099507A9384601F06A
:1014F000C5FD0723079308940994DFF898B007A95E
:10150000584601F0BBFD1023079308950995022763
:101510000A9707A9504601F0B1FD30230793CDF893
:101520002090099507A9584601F0A8FD0795089550
:1015300009950A9707A9404601F0A0FD224605211A
:10154000062001F0BFF9062001F0F4F9224605213A
:10155000304601F0B7F9304601F0ECF9224605219A
:101560000A2001F0AFF90A2001F0E4F92246052132
:10157000172001F0A7F9172001F0DCF90DB0BDE844
:10158000F08F00BF00380240001802400000024007
:10159000000402400008024008B50B480B4B0360F2
:1015A0000B4B436000238360C3604FF480420261B1
:1015B00043618361C361036202F0F0F800B908BDC2
:1015C00000F0ADF8FBE700BFC01A00200058004053
:1015D000A086010008B50B480B4B03600B4B436022
:1015E00000238360C3604FF48042026143618361E2
:1015F000C361036202F0D2F800B908BD00F08FF8B1
:10160000FBE700BF141B0020005C0040801A0600AE
:101610002DE9F0418AB000230593069307930893C0
:1016200009930368334A934205D0334A934224D046
:101630000AB0BDE8F08100250095304C236B43F0E3
:1016400020032363236B03F020030093009B0323F9
:1016500005931222069208930423099305A92848AA
:1016600001F00CFD0195236C43F480032364236C8B
:1016700003F480030193019BDAE7002502951F4CD8
:10168000236B43F004032363236B03F004030293EF
:10169000029B0395236B43F001032363236B03F049
:1016A00001030393039B4FF4007305934FF012085B
:1016B000CDF81880032708970426099605A9114834
:1016C00001F0DCFC4FF480730593CDF8188007958A
:1016D0000897099605A90C4801F0D0FC0495236CE5
:1016E00043F400032364236C03F400030493049B7A
:1016F0009EE700BF00580040005C004000380240F8
:1017000000140240000802400000024008B50368CF
:10171000B3F1804F00D008BD00F0BEFCFBE772B60D
:10172000FEE7000000B595B03022002108A810F0B7
:1017300071FD00230393049305930693079301938C
:101740002B4A116C41F080511164126C02F08052EE
:101750000192019A0293274A116841F48041116075
:10176000126802F480420292029A012203920493C8
:10177000052103A803F0A4FB002831D1012308931D
:101780004FF48033099302230E934FF480020F929B
:1017900006221092A822119212930723139308A8ED
:1017A00003F040F9F0B90F230393022304930023BD
:1017B00005934FF4A05306934FF4805307930521EC
:1017C00003A803F07DFB78B90223089300230B9351
:1017D0000E9308A803F026F940B915B05DF804FB94
:1017E000FFF79DFFFFF79BFFFFF799FFFFF797FFBD
:1017F000003802400070004008B500F033FCFFF7ED
:1018000091FFFFF7FDFDFFF73DFD00F083FBFFF7C4
:1018100055FCFFF775FC00F015F8FFF7DBFE00F054
:101820007DFA00F0D3FA00F03BFBFFF7B5FE0BF0BA
:10183000AFFA0BF039FB0FF005FEFFF777FD06F06E
:1018400021F9FEE708B50F480F4B03604FF4827390
:10185000436000238360C36002220261012242616F
:101860004FF4007282613822C26103624362836274
:101870000A23C36203F0C2FC00B908BDFFF74FFFA3
:10188000FBE700BF281C0020003001402DE9F0419B
:1018900088B000230393049305930693079302688B
:1018A0003C4B9A4202D008B0BDE8F08104460025C6
:1018B000009503F584335A6C42F480525A645A6C92
:1018C00002F480520092009A01951A6B42F00202D3
:1018D0001A631A6B02F002020192019A02951A6BC6
:1018E00042F001021A631B6B03F001030293029B97
:1018F000182303934FF00208CDF8108003270697B2
:101900000526079603A9244801F0B8FB802303931A
:10191000CDF8108005950697079603A91F4801F09A
:10192000ADFB1F481F4B03604FF0C06343608560F1
:10193000C5604FF48063036145618561C5614FF403
:1019400040330362456201F06DF8E8B9144BE3647B
:101950009C631548154B03604FF0C0634360402300
:1019600083600023C3604FF480620261436183613E
:10197000C3614FF400320262436201F053F830B9A0
:10198000094BA3649C638EE7FFF7C9FEDEE7FFF710
:10199000C6FEF5E7003001400004024000000240AE
:1019A000681B002040640240C81B002058640240AD
:1019B00000B583B0002200920D4B596C41F4804178
:1019C0005964596C01F48041009100990192196C9D
:1019D00041F0805119641B6C03F080530193019B0B
:1019E0000F216FF0010000F06DFF03B05DF804FB04
:1019F0000038024030B589B0044600230193224BE1
:101A00001A6C42F001021A641B6C03F0010301938B
:101A1000019B02A903A803F029FB069BD3B903F09D
:101A200005FB03461948A0FB03239B0C013B184808
:101A30004FF08042026040F2E732C2604360002310
:101A400003618360836103F083FF054630B128465C
:101A500009B030BD03F0EAFA4300E3E70C4803F0B5
:101A600013FE05460028F2D11C2000F063FF0F2C66
:101A700001D90125EBE7002221461C2000F022FFBE
:101A8000044B1C60E3E700BF0038024083DE1B43C9
:101A9000801C002008000020FEE7FEE7FEE7FEE7CE
:101AA000FEE7704708B5012001F0E0FB08BD08B56E
:101AB000082001F0DBFB08BD08B5102001F0D6FBC3
:101AC00008BD000008B5024801F012F808BD00BFCB
:101AD000A41D002008B5024800F0BCFD08BD00BFF1
:101AE000580B002008B5024800F0B4FD08BD00BF47
:101AF000580B002008B5202001F0B8FB08BD0000FD
:101B000008B5024803F009FE08BD00BF801C002094
:101B100008B50DF0BFFD024800F0EAFF08BD00BFA8
:101B2000681B002008B5024800F0E2FF08BD00BFB6
:101B3000C81B002008B5024800F08CFD08BD00BF9E
:101B4000800B002008B5024800F084FD08BD00BFEE
:101B5000800B002008B5024802F05BFC08BD00BF06
:101B60000496002010B503460C4A0D490D48006844
:101B700040B10C4800680344521A934206D8094AFF
:101B8000136010BD0748084C0460F2E710F060F8DD
:101B90000C2303604FF0FF30F3E700BF000002208A
:101BA00000100000C81C002098AA0020034AD2F8A8
:101BB000883043F47003C2F88830704700ED00E0CD
:101BC00084B00368184A934207D0184A934211D050
:101BD000174A93421BD004B0704700230193154B62
:101BE0001A6C42F004021A641B6C03F004030193A4
:101BF000019BF0E7002302930E4B1A6C42F008029F
:101C00001A641B6C03F008030293029BE3E70023B2
:101C10000393084B5A6C42F400325A645B6C03F431
:101C200000330393039BD6E700080040000C0040FC
:101C3000004401400038024000B589B000230393FE
:101C4000049305930693079303682D4A934208D0A3
:101C50002C4A934220D02C4A934237D009B05DF8E9
:101C600004FB00230093294B1A6B42F008021A630D
:101C70001B6B03F008030093009B4FF48043039316
:101C8000022304930122059203220692079303A9DB
:101C90001F4801F0F3F9E1E7002301931B4B1A6B96
:101CA00042F080021A631B6B03F080030193019BD7
:101CB0004FF4E05303930223049301220592069309
:101CC000079303A9134801F0D9F9C7E7002302934A
:101CD0000E4B1A6B42F020021A631B6B03F02003B9
:101CE0000293029B40230393022304930122059253
:101CF00006930323079303A9074801F0BFF9ADE753
:101D000000080040000C0040004401400038024040
:101D1000000C0240001C02400014024000B58FB0CD
:101D200000230A930B930C930D930893099301934B
:101D30000293039304930593069307932148224A41
:101D40000260A722426083604FF6FF72C2600361A7
:101D5000836103F0FDFD28BB4FF480530A930AA969
:101D6000184803F000FF00BB164803F01DFEF8B949
:101D700000230893099308A9124803F073FFD0B910
:101D8000602301930023029303930593082201A982
:101D90000C4803F06DFE88B90A48FFF74DFF0FB0FD
:101DA0005DF804FBFFF7BBFCD6E7FFF7B8FCDBE709
:101DB000FFF7B5FCDCE7FFF7B2FCE1E7FFF7AFFCAC
:101DC000EAE700BF141D00200008004000B58FB0F6
:101DD00000230A930B930C930D930893099301939B
:101DE0000293039304930593069307932A482B4A7F
:101DF0000260436083604FF6FF72C26003618361DB
:101E000003F0A6FD002831D14FF480530A930AA9AC
:101E1000214803F0A8FE60BB1F4803F0C5FD58BB76
:101E200000230893099308A91B4803F01BFF30BB4C
:101E300060230193002202920392059201A91648A1
:101E400003F016FEF0B904220DEB0201124803F074
:101E50000FFED0B9082201A90F4803F009FEB8B956
:101E60000D48FFF7E9FE0FB05DF804FBFFF757FCE4
:101E7000CAE7FFF754FCCFE7FFF751FCD0E7FFF7C5
:101E80004EFCD5E7FFF74BFCDDE7FFF748FCE1E749
:101E9000FFF745FCE4E700BF5C1D0020000C00409C
:101EA00000B589B000230193029303930493059333
:101EB000069307931548164A02604360836041F217
:101EC0008732C2600361836103F042FDA0B90F480D
:101ED00003F06AFD98B960230193002202920392F5
:101EE000059201A9094803F0C3FD58B90748FFF757
:101EF000A3FE09B05DF804FBFFF711FCE7E7FFF76D
:101F00000EFCE8E7FFF70BFCF0E700BFCC1C00205D
:101F10000044014008B50B480B4B03600B4B43607A
:101F200000238360C3604FF4806202610C2242612F
:101F30008361C36103F066FF00B908BDFFF7EFFBE3
:101F4000FBE700BF041E002000480040A0860100FF
:101F500030B589B000230393049305930693079348
:101F60000268274B9A4201D009B030BD04460025D3
:101F7000019503F5F8331A6C42F480221A641A6C46
:101F800002F480220192019A02951A6B42F0040237
:101F90001A631B6B03F004030293029B4FF440632C
:101FA000039302230493032306930723079303A9B0
:101FB000144801F063F81448144B03604FF00063B9
:101FC00043608560C5604FF480630361456185614E
:101FD000C5614FF440330362456200F023FD58B9F8
:101FE000094BE3639C6300220521272000F06AFC73
:101FF000272000F09FFCB7E7FFF791FBF0E700BF59
:102000000048004000080240A41D00202860024053
:10201000DFF834D0FFF7CAFD0C480D490D4A002304
:1020200002E0D458C4500433C4188C42F9D30A4A8D
:102030000A4C002301E013600432A242FBD30FF0EC
:102040000DFEFFF7D9FB70470000022000000020C2
:10205000340B002050510108380B002094AA0020B6
:10206000FEE7000008B50B4B1A6842F400721A60D4
:102070001A6842F480621A601A6842F480721A6028
:10208000032000F00DFC0F20FFF7B4FCFFF790FCDD
:10209000002008BD003C0240034A1168034B1B7836
:1020A0000B441360704700BF4C1E0020040000204A
:1020B000014B1868704700BF4C1E002038B504461D
:1020C000FFF7F6FF0546B4F1FF3F02D0044B1B7843
:1020D0001C44FFF7EDFF401BA042FAD338BD00BF00
:1020E00004000020002800F0A18038B5044690F8D4
:1020F0002030D3B12268136843F001031360FFF767
:10210000D7FF054623685A6812F0010F10D1FFF778
:10211000CFFF401B0A28F5D9636A43F4003363629A
:10212000052384F82030012038BDFFF70BF8E1E7E4
:102130001A6822F002021A60FFF7BAFF0546236808
:102140005A6812F0020F0DD0FFF7B2FF401B0A28A9
:10215000F5D9636A43F400336362052384F82030C1
:102160000120E1E7227E012A3DD01A6822F0800298
:102170001A60637E012B3BD02268136823F0400372
:102180001360A37E012B39D02268136823F020034B
:102190001360E37E012B37D02268136843F01003ED
:1021A0001360237F012B35D02268136823F00803C6
:1021B0001360637F012B33D02268136823F004037C
:1021C0001360A368E26813432269134362691343EF
:1021D0006268013A21681343CB61002060620123E9
:1021E00084F82030A0E71A6842F080021A60C0E745
:1021F0002268136843F040031360C2E72268136843
:1022000043F020031360C4E72268136823F010032F
:102210001360C6E72268136843F008031360C8E739
:102220002268136843F004031360CAE70120704773
:1022300090F82030013BDBB2012B05D9436A43F40F
:10224000802343620120704730B5464BD3F800220B
:1022500042F00102C3F80022D3F8002222F47C529B
:10226000C3F80022D3F80022486A42EA0022C3F8E9
:1022700000224A6902F01F02012000FA02F2D3F89C
:102280001C026FEA020C20EA0200C3F81C02CB69B0
:10229000C3B9344BD3F80C020CEA0000C3F80C02AB
:1022A0008C884869CD6844EA0544483043F830409A
:1022B0008C68088840EA04404C6904F1480E03EB3E
:1022C000CE035860CB69012B1ED08B69002B33D114
:1022D0002448D0F804320CEA0303C0F804320B6936
:1022E0008BBB2048D0F814320CEA0303C0F8143238
:1022F0000B6A012B2ED01B4AD2F8003223F00103C7
:10230000C2F80032002030BD164BD3F80C02104347
:10231000C3F80C028C8848690D6844EA05444830CB
:1023200043F8304088894C698D6840EA054048345C
:1023300003EBC4035860C8E70A48D0F804321343DB
:10234000C0F80432CBE70748D0F814321343C0F882
:102350001432CDE70349D1F81C321A43C1F81C22CC
:10236000C9E700BF0064004070B5044690F82050F3
:10237000EDB2012D06D0436A43F4002343620125E8
:10238000284670BD022380F820300268136823F0CD
:1023900001031360FFF78CFE064623685B6813F0A9
:1023A000010F0CD0FFF784FE831B0A2BF5D9636A5B
:1023B00043F400336362052384F82030E0E700250E
:1023C0006562DDE730B590F820C00468A4680CF1C0
:1023D000FF3C5FFA8CFCBCF1010F62D814F0E05FA7
:1023E00059D0C4F3016C012404FA0CF41C608B680E
:1023F000002B3DD10D68CB68046843EA45550CF1CC
:1024000018031B01E55003680C690CF1180E03EB6F
:102410000E135C600B7D012B35D0D17993791B04B1
:1024200043EA0163517943EA0123147901682343A4
:1024300001EB0C11C1F88C31D17893781B0443EA7D
:102440000163517843EA0123117802680B4302EBE0
:102450000C12C2F8883102680CF1180C4FEA0C1CFF
:1024600052F80C3043F0010342F80C3000201DE01C
:102470004C6843EAC403CC6823430CF118042401DC
:1024800005682B51BFE7036803EB0E13596841F44D
:1024900080715960C1E7436A43F40013436201202D
:1024A00004E0436A43F480234362012030BD90F886
:1024B00020C00CF1FF3C5FFA8CFCBCF1010F00F274
:1024C000A58030B451B90468E46814F0030F10D14A
:1024D000436A43F40013436201207EE004682469E8
:1024E00014F0030F05D1436A43F400134362012043
:1024F00073E0056801F11B0424012C5904F0040465
:102500009460002C6BD1056801F11B0424012C5947
:10251000640D1460046801F11B0C4FEA0C1C54F8A4
:102520000C4004F00204D4600468A444DCF80450B5
:1025300015F0080F5BD008241461056801F11B0C2D
:1025400005EB0C156D68C5F307259561046804EB70
:102550000C146468240C5461026802EB0112D2F876
:10256000B8211A70026802EB0112D2F8B821C2F346
:1025700007225A70026802EB0112D2F8B821C2F3A6
:1025800007429A70026802EB0112D2F8B821120ECB
:10259000DA70026802EB0112D2F8BC211A710268EB
:1025A00002EB0112D2F8BC21C2F307225A71026871
:1025B00002EB0112D2F8BC21C2F307429A71026801
:1025C00002EB0112D2F8BC21120EDA71C1B9026815
:1025D000D36843F02003D360002030BC7047056807
:1025E00001F11B0424012C59E408546092E701F125
:1025F0001B0504EB0514646804F00F0414619CE7E8
:102600000268136943F020031361E5E7436A43F46A
:10261000802343620120704790F82030013BDBB2F9
:10262000012B05D9436A43F480234362012070479C
:102630000268536919435161002070477047704721
:1026400070477047704770477047704770477047D2
:10265000704770472DE9F84F054603685C69D3F869
:1026600004809F68D3F80CB0D3F810A0D3F818906A
:1026700014F001063BD017F0010616D001229A6033
:1026800017F0020F08D117F0040F0CD117F008064D
:1026900006D04FF4805608E0FFF7D0FF002604E094
:1026A000FFF7CFFF01E04FF4006617F4807F0DD0F5
:1026B0002B684FF480729A6017F4007F40F0868098
:1026C00017F4806F00F0868046F4005617F4803FC0
:1026D0000DD02B684FF480329A6017F4003F40F021
:1026E000838017F4802F00F0838046F4004614F0B6
:1026F000080F07D01BF0100F04D046F400762B68AB
:102700001022DA6014F0040F02D01BF0080F79D108
:1027100014F0020F04D02B68DB6813F0030F78D19C
:1027200014F0400F07D01AF0100F04D046F4806662
:102730002B6810221A6114F0200F02D01AF0080F33
:102740006BD114F0100F04D02B681B6913F0030F2A
:102750006AD114F4003F02D018F0100F68D114F4BD
:10276000803F02D018F0080F69D114F4004F7AD0DE
:1027700018F0040F74D014F4807F04D019F0010F06
:1027800001D046F0010614F4007F04D019F0020FC6
:1027900001D046F0020614F4806F04D019F0040F43
:1027A00001D046F0040614F4006F59D019F07009F6
:1027B00056D0B9F1400F65D058D8B9F1200F5ED08E
:1027C000B9F1300F42D146F0200644E02846FFF729
:1027D00036FF7BE717F4006F02D046F4804675E7BA
:1027E0002846FFF72FFF71E72846FFF729FF7EE70E
:1027F00017F4002F02D046F4803678E72846FFF71A
:1028000022FF74E72B680822DA602846FFF71CFFD6
:102810007EE728460AF01AFB82E72B6808221A6135
:102820002846FFF713FF8CE72846FFF70EFF90E7D7
:102830002B6810225A602846FFF709FF8FE72B68A4
:1028400008225A602846FFF703FF8EE7B9F1100F00
:1028500001D146F008062A68936923F0700393615A
:102860002B6804225A609EB9BDE8F88FB9F1500F69
:102870000BD0B9F1600FEED146F48076EBE746F06D
:102880001006E8E746F04006E5E746F08006E2E796
:102890006B6A1E436E622846FFF7DBFEE4E700002A
:1028A000074AD36823F4E0631B041B0C000200F406
:1028B000E060034343F0BF6343F40033D3607047E9
:1028C00000ED00E000B5194BDB68C3F30223C3F150
:1028D000070CBCF1040F28BF4FF0040C03F1040EE9
:1028E000BEF1060F18D9033B4FF0FF3E0EFA0CFC69
:1028F00021EA0C0199400EFA03F322EA030319437B
:1029000000280BDB0901C9B200F1604000F561400D
:1029100080F800135DF804FB0023E5E700F00F00EA
:102920000901C9B2024B1954F4E700BF00ED00E001
:1029300014ED00E0002807DB00F01F02400901232E
:102940009340024A42F82030704700BF00E100E0A7
:1029500010B40368D9B210390C4AA2FB0142120923
:102960000B4CA25CC2655F2909D923F47F7323F065
:10297000030304338365806D5DF8044B704723F4D3
:102980007F7323F003038365F5E700BFABAAAAAA10
:1029900048440108836A826992B9012B0AD0022B4C
:1029A00002D00BB100207047C36A13F0807F28D19A
:1029B00000207047C36AB3F1C07F24D00020704765
:1029C000B2F5005F09D0022B25D9032B25D1C36AAC
:1029D00013F0807F23D100207047032B03D8DFE85A
:1029E00003F01404140A00207047C36A13F0807FB8
:1029F0000DD100207047C36AB3F1C07F09D0002019
:102A00007047012070470120704701207047012066
:102A10007047012070470120704700207047012057
:102A20007047000070B50446FFF742FB002C5BD0F6
:102A30000546022384F83530002384F834302268B8
:102A4000136823F00103136023681A6812F0010F62
:102A50000AD0FFF72DFB431B052BF5D92023636517
:102A6000032084F8350070BD1A6820481040616862
:102A7000A2680A43E1680A4321690A4361690A437B
:102A8000A1690A43E1690A43216A0A430243616A70
:102A900004291ED01A602668756925F00705636A47
:102AA0001D43042B07D1A36A1D43E36A1BB12046D3
:102AB000FFF770FF90B975612046FFF749FFE26D9F
:102AC0003F239340836000206065012384F8353004
:102AD000C9E7E16A206B01430A43DBE740236365F2
:102AE000012084F83500BEE70120BCE73F8010F0EC
:102AF000F0B583B0044600230193724B1D68724BFE
:102B0000A3FB0535AD0A876D3E68C26D082393406F
:102B1000334210D003681A6812F0040F0BD01A6801
:102B200022F004021A60C26D08239340BB60436D1B
:102B300043F001034365E26D01239340334209D022
:102B40002268526912F0800F04D0BB60636D43F0BD
:102B500002036365E26D04239340334209D0226887
:102B6000126812F0020F04D0BB60636D43F00403DF
:102B70006365E26D10239340334224D022681268CB
:102B800012F0080F1FD0BB6023681A6812F4802F60
:102B90000DD01B6813F4002F04D1236C9BB1204689
:102BA000984710E0A36C73B1204698470BE01A6871
:102BB00012F4807F03D11A6822F008021A60236C95
:102BC0000BB120469847E26D20239340334255D005
:102BD0002268126812F0100F50D0BB6094F83530A4
:102BE000DBB2052B0ED023681A6812F4802F33D085
:102BF0001B6813F4002F2AD1636C002B3ED02046B3
:102C000098473BE02268136823F01603136022689C
:102C1000536923F080035361236CA3B122681368C6
:102C200023F008031360E26D3F239340BB60012350
:102C300084F83530002384F83430236D002B3FD0E6
:102C4000204698473CE0A36C002BE7D1EBE7E36B11
:102C5000A3B12046984711E01A6812F4807F09D189
:102C60001A6822F010021A60012384F8353000231C
:102C700084F83430E36B0BB120469847636DFBB1A9
:102C8000636D13F0010F17D0052384F835302268E7
:102C9000136823F001031360019B01330193AB42DE
:102CA00004D823681B6813F0010FF5D1012384F8C1
:102CB0003530002384F83430E36C0BB1204698475C
:102CC00003B0F0BD00000020B5814E1B10B40A49CE
:102CD0000C6924F440740C610C6944F440740C6178
:102CE0000C6944F001040C610260BFF36F8F436014
:102CF0005DF8044B704700BF003C0240074B1A6967
:102D000022F440721A611A6942F400721A611A6957
:102D100042F001021A610160704700BF003C0240AE
:102D2000074B1A6922F440721A611A6942F48072E0
:102D30001A611A6942F001021A610180704700BFEE
:102D4000003C0240064B1A6922F440721A611A696B
:102D50001A611A6942F001021A610170704700BFDE
:102D6000003C0240204BDB6813F0100F07D01F4AD5
:102D7000D36943F01003D3611B4B1022DA601A4B66
:102D8000DB6813F0200F07D0184AD36943F008031B
:102D9000D361154B2022DA60134BDB6813F0400F30
:102DA00007D0124AD36943F00403D3610E4B40228B
:102DB000DA600D4BDB6813F0800F07D00B4AD36944
:102DC00043F00203D361084B8022DA60064BDB68D4
:102DD00013F0020F07D0054AD36943F02003D361F3
:102DE000014B0222DA607047003C0240501E002076
:102DF000094B1B69002B01DB00207047064B074A7B
:102E00005A6002F188325A601B69002B01DB0020F6
:102E100070470120704700BF003C02402301674516
:102E2000034A136943F0004313610020704700BF59
:102E3000003C024038B50446144B0022DA61FFF72B
:102E400037F90546124BDB6813F4803F0AD0B4F122
:102E5000FF3FF7D024B1FFF72BF9401BA042F1D977
:102E600003200DE00A4BDB6813F0010F02D0084B82
:102E70000122DA60064BDB6813F0F20F01D100206B
:102E800038BDFFF76FFF0120FAE700BF501E00209A
:102E9000003C0240F8B516461B4A127E012A30D08B
:102EA00004460D461F46184B01221A764CF250304C
:102EB000FFF7C0FF90B9ACB1012C18D0022C1BD089
:102EC00032463B462846FFF701FF4CF25030FFF7F1
:102ED000B1FF0E4A136923F0010313610A4B00226C
:102EE0001A76F8BDF1B22846FFF72CFFEDE7B1B234
:102EF0002846FFF715FFE8E731462846FFF7FEFEB4
:102F0000E3E70220EDE700BF501E0020003C024036
:102F1000074B196921F440711961196941F00401E5
:102F200019611A6942EA002242F480321A6170473C
:102F3000003C024049B1012921D0022902D04FF4BE
:102F4000407C04E04FF4007C01E04FF0000C0D4B9E
:102F5000196921F4407119611A6942EA0C021A6177
:102F60001A6922F0F8021A611A6942EAC00040F0B8
:102F7000020018611A6942F480321A6170474FF4F6
:102F8000807CE4E7003C0240164B1B6813F4007F92
:102F900010D0144B1A6822F400721A601A6842F4B6
:102FA00000621A601A6822F400621A601A6842F419
:102FB00000721A600B4B1B6813F4806F10D0094B22
:102FC0001A6822F480621A601A6842F480521A6009
:102FD0001A6822F480521A601A6842F480621A60F9
:102FE000704700BF003C0240F8B5224B1B7E012B0E
:102FF0003ED004460E461F4B01221A764CF250304A
:10300000FFF718FF074670BB4FF0FF3333602368AC
:10301000012B16D0A568E368A2681344AB4220D9FF
:10302000217C2846FFF786FF4CF25030FFF702FF65
:10303000114A136923F0FA031361074680B9013579
:10304000E9E76168207CFFF763FF4CF25030FFF73F
:10305000F1FE0746084A136923F00403136100E0F8
:103060003560FFF791FF034B00221A763846F8BD12
:103070000227FBE7501E0020003C024000230F2BDC
:1030800000F2E48070B582B060E085685E000324E1
:10309000B44025EA0405CC68B4402C4384604568FC
:1030A00025EA02054C68C4F300129A402A434260A4
:1030B0005AE0DC08083450F8246003F00702950059
:1030C0000F22AA4026EA020E0A69AA4042EA0E022C
:1030D00040F824205CE0072200E0002202FA0EF211
:1030E0002A4302345A4D45F824205A4A94686FEA1C
:1030F0000C0224EA0C054E6816F4801F01D04CEA3D
:103100000405544CA560E46802EA04054E6816F410
:10311000001F01D04CEA04054E4CE560646802EAE9
:1031200004054E6816F4003F01D04CEA0405494CF2
:103130006560246822404D6815F4803F01D04CEA58
:103140000402444C226001330F2B7DD801229A40A7
:103150000C6804EA020C32EA0404F4D14C6804F06E
:103160000304013C012C90D94A6802F00302032AAF
:1031700009D0C4685D000322AA4024EA02048A68D8
:10318000AA402243C2604A6802F00302022A90D099
:1031900004684FEA430E032202FA0EF224EA020404
:1031A0004A6802F0030202FA0EF2224302604A6801
:1031B00012F4403FC7D000220192274A546C44F4D5
:1031C00080445464526C02F480420192019A9C083B
:1031D000A51C1F4A52F8255003F003024FEA820E45
:1031E0000F2202FA0EF225EA02051C4A90423FF431
:1031F00074AF02F5806290421AD002F5806290426C
:1032000018D002F58062904216D002F5806290429A
:1032100014D002F58062904212D002F58062904292
:1032200010D002F5806290423FF455AF082255E776
:10323000012253E7022251E703224FE704224DE720
:1032400005224BE7062249E702B070BD704700BF78
:1032500000380140003C01400038024000000240BC
:103260000AB18161704709048161704708B5054B57
:103270005B69034200D108BD024B58610CF0B6F9FE
:10328000F9E700BF003C014003685A6912F4806FFF
:1032900001D1002070476FF480625A6100230363FC
:1032A000202280F83D2080F83E30026C42F004027B
:1032B000026480F83C30012070472DE9F041064659
:1032C0000C46174698463BE0FEF7F2FE069BC01AF6
:1032D000404502D8B8F1000F32D1012D18D0336823
:1032E0009B6924EA03039BB2B3FA83F35B099F4211
:1032F00026D100233363202286F83D2086F83E3015
:10330000326C42F02002326486F83C30012027E023
:1033100033685B6924EA03039BB2B3FA83F35B0966
:10332000E5E733685B6924EA030C1FFA8CFCBCFAFE
:103330008CFC4FEA5C1C674511D1B8F1FF3FC3D14B
:10334000C4F30745012DECD033689B6924EA030CD4
:103350001FFA8CFCBCFA8CFC4FEA5C1CEBE70020EB
:10336000BDE8F0812DE9F84305460E4690469946A2
:1033700053E01A6842F400721A602B686FF480629E
:103380005A6100232B63202285F83D2085F83E30CA
:103390002A6C42F004022A6485F83C3001204AE09D
:1033A000FEF786FEA0EB0900404502D8B8F1000FF9
:1033B00033D1012F17D02B689B6926EA03039BB2F8
:1033C000003B18BF012343B300232B63202285F861
:1033D0003D2085F83E302A6C42F020022A6485F8B0
:1033E0003C30012027E02B685B6926EA03039BB28F
:1033F000003B18BF0123E6E72B689C6926EA04041A
:10340000A4B2003C18BF0124A4B12B685A6912F47D
:10341000806FAED1B8F1FF3FC2D1C6F30747012F8D
:10342000EAD12B685C6926EA0404A4B2003C18BF08
:103430000124E9E70020BDE8F88370B504460D4695
:10344000164623685B6913F0800F21D12046FFF7F1
:103450001BFFF8B9B5F1FF3FF3D0FEF729FE801B43
:10346000A84201D8002DECD123685B6913F0800FCE
:10347000E7D100232363202284F83D2084F83E30E6
:10348000226C42F02002226484F83C30012000E0EB
:10349000002070BD0120FCE72DE9F04385B0044613
:1034A0000D4691461F46DDF830800D9E0368196871
:1034B00041F4807119600096434600224FF00111DB
:1034C000FFF7FBFE60B9236805F0FE051D6133467A
:1034D000424626492046FFF745FF68B1012008E033
:1034E00023681B6813F4807F02D04FF400732364B9
:1034F000032005B0BDE8F0830023039323685A69D5
:1035000003929B690393039B324641462046FFF793
:1035100094FF30B9012F0FD123685FFA89F61E613D
:10352000E7E7236C042B01D00120E2E7226813684F
:1035300043F400731360F7E723684FEA19221A6116
:10354000324641462046FFF778FF20B923685FFAEC
:1035500089F61E61CDE7236C042B01D00120C8E75A
:103560002268136843F400731360F7E70200010058
:103570002DE9F04784B004460D46164699460C9F47
:10358000DDF834800268136843F4806313600368D5
:10359000196841F480711960CDF800803B46002223
:1035A0004FF00111FFF789FE70B95FFA85FA2368C1
:1035B00005F0FE051D6143463A4641492046FFF7A6
:1035C000D1FE68B1012008E023681B6813F4807FF6
:1035D00002D04FF400732364032004B0BDE8F087E9
:1035E0000023039323685A6903929B690393039B07
:1035F000424639462046FFF720FF80B9B9F1010F56
:1036000018D12368F6B21E61424639462046FFF7BC
:1036100014FF68B3236C042B24D00120DDE7236C56
:10362000042B01D00120D8E72268136843F400730B
:103630001360F7E72368320A1A614246394620468A
:10364000FFF7FBFE18B92368F6B21E61DCE7236CB6
:10365000042B01D00120C0E72268136843F40073F3
:103660001360F7E72268136843F400731360D4E72C
:103670002268136843F480731360CDF800803B46E2
:1036800000224FF001112046FFF717FE68B92268AB
:103690004AF00103136143463A4609492046FFF7C1
:1036A00061FE002899D0012097E723681B6813F476
:1036B000807F02D04FF40073236403208DE700BFA6
:1036C0000200010070B504460D46164623685B698A
:1036D00013F0040F21D12046FFF7D6FDF8B9B5F15C
:1036E000FF3FF3D0FEF7E4FC801BA84201D8002D79
:1036F000ECD123685B6913F0040FE7D10023236347
:10370000202284F83D2084F83E30226C42F02002D2
:10371000226484F83C30012000E0002070BD0120CC
:10372000FCE770B504460D46164614E06FF0100233
:103730005A6100232363202284F83D2084F83E3020
:10374000226C226484F83C30012025E023685B6908
:1037500013F0400F10D02368586910F0400F1AD1B1
:10376000586910F0100FE1D1FEF7A2FC801BA842AF
:10377000ECD8002DEFD1E9E700232363202284F861
:103780003D2084F83E30226C42F02002226484F80E
:103790003C30012000E0002070BD0000002800F057
:1037A000CC8070B5044690F83D30002B77D02423B0
:1037B00084F83D302268136823F001031360226807
:1037C000136843F4004313602268136823F4004332
:1037D000136001F02BFC62685A4B9A4264D85A4B32
:1037E00098428CBF00230123002B40F0A88057494A
:1037F000A1FB00318B0C25686A6822F03F0242EA87
:1038000091426A6021680A6A22F03F0266684D4D63
:10381000AE424FD8013313430B622168CA6922F4C8
:103820004F4222F0FF026668464B9E424CD8431E30
:103830007600B3FBF6F3013340F6FC70034278D018
:10384000C3F30B031343CB6121680B6823F0C00360
:10385000E269206A024313430B6021688B6823F4FA
:10386000034323F0FF032269E068024313438B60A4
:103870002168CB6823F0FF036269A0690243134308
:10388000CB602268136843F00103136000202064BA
:10389000202384F83D30206384F83E0070BD80F81A
:1038A0003C30FDF7B5FE82E7294B98428CBF0023E0
:1038B000012399E74FF4967505FB03F3254DA5FB0E
:1038C00003539B090133A6E7A368BBB9451E06EB6A
:1038D000460CB5FBFCF50135C5F30B05B5FA85F5CE
:1038E0006D0945BBC3B9013806EB4603B0FBF3F3E2
:1038F0000133C3F30B0343F40043A3E7451E06EB78
:10390000860C0CEB8C0CB5FBFCF50135C5F30B05F7
:10391000B5FA85F56D09E4E7013806EB860303EB9C
:103920008303B0FBF3F30133C3F30B0343F44043CE
:1039300088E7042386E7012384E7012070470120FC
:10394000ACE700BFA08601007F841E0083DE1B431E
:10395000FF083D00D34D62102DE9F04383B00446CB
:103960000F46904699460C9EFEF7A2FB054694F83A
:103970003D00C0B2202803D0022003B0BDE8F08390
:103980000095192301224B492046FFF796FC002899
:1039900040F0898094F83C30012B00F086800123B0
:1039A00084F83C3023681A6812F0010F03D11A68BA
:1039B00042F001021A602268136823F40063136066
:1039C000212384F83D30402384F83E3000232364D3
:1039D0000A9B6362BDF82C306385638D2385364B6B
:1039E000E362019500964B46424639462046FFF772
:1039F00053FD00285BD1238D002B35D02A4631465C
:103A00002046FFF71AFD20BB626A236812781A610C
:103A1000626A531C6362218D013989B22185638DED
:103A20009BB2013B9BB263852368586910F0040F79
:103A3000E1D00029DFD052781A61636A01336362F2
:103A4000238D013B2385638D9BB2013B9BB2638534
:103A5000D1E7236C042B01D001208EE72268136884
:103A600043F400731360F7E72A4631462046FFF718
:103A700029FE50B1236C042B01D001207DE7226880
:103A8000136843F400731360F7E72268136843F484
:103A900000731360202384F83D30002384F83E3007
:103AA00084F83C3069E7022067E7022065E70120DF
:103AB00063E700BF020010000000FFFF2DE9F043A4
:103AC00087B004460F4690469946109EFEF7F0FADE
:103AD000054694F83D00C0B2202804D0022738469D
:103AE00007B0BDE8F08300951923012288492046DC
:103AF000FFF7E3FB002840F04D8194F83C30012BA8
:103B000000F04A81012384F83C3023681A6812F0DF
:103B1000010F03D11A6842F001021A60226813688B
:103B200023F400631360222384F83D30402384F89B
:103B30003E30002323640E9B6362BDF83C306385F6
:103B4000638D2385734BE362019500964B46424695
:103B500039462046FFF70CFD0746002840F01E813D
:103B6000238D5BB9029323685A6902929A69029283
:103B7000029A1A6842F400721A6075E0012B0AD0AA
:103B8000022B1AD00023059323685A6905929B697A
:103B90000593059B68E02268136823F48063136033
:103BA0000023039323685A6903929A690392039A44
:103BB0001A6842F400721A6056E02268136823F40F
:103BC000806313602268136843F40063136000236A
:103BD000049323685A6904929B690493049B43E00D
:103BE0002A4631462046FFF79CFD002840F0D88049
:103BF00023681A69636A1A70636A01336362238DEA
:103C0000013B2385638D9BB2013B9BB263852BE017
:103C100000953346002240492046FFF74EFB00281E
:103C200040F0C0802268136843F400731360236877
:103C30001A69636A1A70626A531C6362238D013BBE
:103C40002385638D9BB2013B9BB2638523681B690F
:103C50005370636A01336362238D013B2385638D57
:103C60009BB2013B9BB26385238D002B00F08980C2
:103C7000032B53D8012BB3D0022BC9D00095334668
:103C8000002225492046FFF718FB002840F08C80D1
:103C90002268136823F48063136023681A69636AD7
:103CA0001A70636A01336362238D013B2385638D40
:103CB0009BB2013B9BB263850095334600221649B7
:103CC0002046FFF7FAFA002870D12268136843F4FF
:103CD0000073136023681A69636A1A70626A531C5E
:103CE0006362238D013B2385638D9BB2013B9BB2B5
:103CF000638523681B695370636A01336362238D94
:103D0000013B2385638D9BB2013B9BB26385ABE78F
:103D1000020010000000FFFF040001002A463146A7
:103D20002046FFF7FEFC002842D123681A69636A27
:103D30001A70636A01336362228D013A92B222855E
:103D4000638D9BB2013B9BB263852368596911F077
:103D5000040F89D0032A0FD023681A69636A1A7086
:103D6000636A01336362238D013B2385638D9BB2BC
:103D7000013B9BB2638577E71A6822F480621A6080
:103D8000EAE7202384F83D30002384F83E3084F8AD
:103D90003C30A4E60227A2E60227A0E601279EE621
:103DA00001279CE601279AE6012798E6012796E677
:103DB000012794E62DE9F04383B0D0F8008001EBB1
:103DC000C10300EB83039A6A5B6A9A4254D80746A0
:103DD0000C469B1A01EBC10200EB8202D2699A42A7
:103DE00000D31A4602F103094FEA990915E006F1DA
:103DF00003094FEA9909BB7904EBC40507EB850574
:103E0000296A0093B3B2E2B2404602F060FB2B6A2B
:103E100033442B62AB6A3344AB6208EB441303F5C3
:103E200010639B699BB24B4512D304EBC40207EBB2
:103E30008202916A536A99420AD24BB15B1A04EB2F
:103E4000C40207EB8202D6699E42D0D31E46CEE75B
:103E500004EBC40007EB80077A6ABB6A9A420FD86A
:103E600004F00F040123A340D8F8344824EA0304E3
:103E7000C8F83448002000E0012003B0BDE8F0831A
:103E80000020FAE730B583B000287AD004460568F0
:103E900090F89534C3B1032384F89534B5F1A04F5D
:103EA00017D0206802F0C4F8237C8DF80030231D61
:103EB0000ECB206801F0FBFF70B1022384F895342B
:103EC0000125284603B030BD80F8943405F0B4FED7
:103ED000E1E70023A371E4E70021206802F016FD6A
:103EE000024608B9034617E0022384F895340125F9
:103EF000E7E703EBC30104EB8101012048750B7573
:103F0000CB8500200876C861086203EBC30104EB8F
:103F1000810148620133DBB220799842E9D816E08A
:103F200002EBC20304EB8303002183F8551283F8EC
:103F3000542283F85812C3F85C12C3F8601202EBE3
:103F4000C20304EB8303C3F864120132D2B290427D
:103F5000E6D8237C8DF80030231D0ECB206802F0BC
:103F6000BDF8054620B1022384F895340125A8E761
:103F700000236374012384F89534206802F083FCE5
:103F80009FE701259DE7036890F89424012A1AD041
:103F900010B50446012280F89424DA6812F0400F2C
:103FA00002D0427B012A09D0206802F03BF8206849
:103FB00002F05BFC002084F8940410BD9A6B42F47C
:103FC00080329A63F0E702207047000070B5044623
:103FD0000D460068066C00EB411303F530639A68E8
:103FE000A179012911D038498E4256D03DB905EB4F
:103FF000C50304EB8303D3F86432002B5ED0E9B22F
:10400000204605F063FE002070BD12F0080F09D0B5
:104010002E498E42F7D912F4004FF4D04FF40042EB
:104020009A60F0E712F0200F02D020229A60EAE7AF
:1040300012F0280FE7D125498E4206D912F4004F1D
:1040400003D04FF400429A60DDE705EBC50204EBB4
:104050008202D2F874121B69C3F31203CB1AC2F89E
:1040600068327DB905EBC50204EB8202D2F8642206
:104070006AB105EBC50204EB8202D2F860120B4470
:10408000C2F86032E9B2204605F020FEBBE704F238
:104090009C42012102F07CFCF4E712F4004F03D0B3
:1040A0004FF400429A60AEE712F0200F01D02022B8
:1040B0009A60E9B2204605F009FEA4E704F29C42AA
:1040C000002102F065FC9AE70A31544F0A30544F40
:1040D00038B5044603681D6C03EB4113D3F8081B85
:1040E0000E4A954207D903F5306311F4004F02D010
:1040F0004FF400429A60204605F0E0FD074B9D42D8
:1041000002D9A379012B01D0002038BD04F29C42D2
:104110000121206802F03CFCF6E700BF0A30544F52
:1041200090F89434012B0CD010B50446012380F88C
:1041300094344174006802F088FB002084F89404F1
:1041400010BD0220704738B505468C4611F0800F2F
:1041500029D101F00F0E0EEBCE04A40004F5147467
:104160000444211D0EEBCE0E00EB8E0E00208EF8C7
:1041700055020CF00F0C81F800C08A600B714A7870
:104180000AB1A1F81AC0022B1CD095F89434012B67
:104190001BD0012385F89434286802F07AF80020B7
:1041A00085F8940438BD01F00F0000EBC0018900D0
:1041B00010312944043100EBC00005EB80000124DC
:1041C0004475D6E700234B71DFE70220EAE710B51C
:1041D00004460A4611F0800F20D101F00F0000EBD9
:1041E000C0039B0003F514732344191D00EBC000AA
:1041F00004EB8000002380F8553202F00F020A70B1
:1042000094F89434012B18D0012384F89434206856
:1042100002F08EF8002084F8940410BD01F00F0025
:1042200000EBC0039B0010332344191D00EBC000BA
:1042300004EB800001234375DFE70220EDE710B5B2
:10424000144601F00F0C0CEBCC01890001F5147140
:10425000014404310CEBCC0E00EB8E0ECEF8602244
:10426000CEF864320023CEF868328EF855328EF8DC
:1042700054C28279012A04D0006802F03FF900207C
:1042800010BDCEF87042F7E701F00F0101EBC1015C
:1042900000EB8101D1F86802704710B5144601F0B7
:1042A0000F0C0CEBCC0189001031014404310CEBF4
:1042B000CC0E00EB8E0ECEF82020CEF8243000235A
:1042C000CEF8283001238EF815308EF814C082798C
:1042D0009A4204D0006802F011F9002010BDCEF817
:1042E0003040F7E738B501F00F050279AA4238D31C
:1042F00004460B4611F0800F1FD101EBC10189006C
:1043000001F514710144043103EBC30300EB830393
:10431000002283F8552201238B700D7094F8943499
:10432000012B20D0012384F89434206802F032FA63
:1043300085B1002084F8940438BD05EBC5018900DF
:1043400010310144043105EBC50300EB8303012266
:104350005A75E0E704F29C42A179206802F018FB4C
:10436000E7E70120E8E70220E6E701F00F03027922
:104370009A4230D310B5044611F0800F1ED103EBE2
:10438000C301890001F514710144043103EBC30238
:1043900000EB8202002082F8550200228A700B7026
:1043A00094F89434012B18D0012384F894342068B5
:1043B00002F01DFA002084F8940410BD03EBC30141
:1043C000890010310144043103EBC30200EB820287
:1043D00001205075E1E7012070470220EDE708B5A4
:1043E00011F0800F0CD101F00F0101EBC101890028
:1043F00001F5147101440431006802F009F808BDA8
:1044000001F00F0101EBC1018900103101440431B9
:10441000F2E72DE9F04F83B004460568284602F024
:1044200071FA10B103B0BDE8F08F0646206802F0C3
:1044300038FA0028F6D005F50067BB68C3F30D23F2
:10444000C4F8D434206802F02CFA10F0020F04D023
:104450002268536903F002035361206802F021FAD5
:1044600010F0100F13D02268936923F010039361AA
:10447000D5F8208008F00F09C8F34343022B4BD036
:10448000062B6FD02268936943F010039361206874
:1044900002F007FA10F4002F76D1206802F001FA3A
:1044A00010F4802F40F0E080206802F0FAF9002834
:1044B000C0F26181206802F0F4F910F4006F09D0B5
:1044C000BB6813F0010F40F06E812268536903F45A
:1044D00000635361206802F0E4F910F4805F40F05B
:1044E0006681206802F0DDF910F4005F40F0B381CE
:1044F000206802F0D6F910F0080F40F0C48120685F
:1045000002F0CFF910F0800F00F0D781AB6923F0F3
:104510008003AB610126C0E147F6F07318EA030F90
:10452000B0D04FEA181B4FEAC903019309EBC90A3F
:1045300004EB8A0AC8F30A12DAF86012284602F07D
:10454000FFF8CBF30A0BDAF860325B44CAF860324A
:10455000019B4B4404EB8303D3F868325B44CAF8F5
:1045600068328FE7082204F29C41284602F0E8F8FE
:10457000C8F30A1809EBC90204EB8202D2F86832C8
:104580004344C2F868327DE7206802F08EF9804625
:10459000B14635E005EB49130122C3F8082B494623
:1045A0002046FFF713FD3CE005EB49130822C3F852
:1045B000082B49462046FFF78BFD35E009EBC90380
:1045C00004EB830393F85732012B41D005EB4913D9
:1045D0000222C3F8082B1AF0200F04D005EB491370
:1045E0002022C3F8082B1AF4005F05D005EB49130D
:1045F0004FF40052C3F8082B09F101094FEA58089B
:10460000B8F1000F3FF449AF18F0010FF4D05FFA92
:1046100089FB5946206802F058F9824610F0010FD4
:10462000B8D11AF0080FBFD11AF0100F04D005EB63
:1046300049131022C3F8082B1AF0020FCBD06B6974
:1046400013F0800FBAD07B6843F480637B60B5E7DA
:1046500009EBC90304EB8303002283F85722594670
:10466000204605F083FBB1E7206802F026F980467A
:10467000B14625E05946204605F034FB1AF0080FF4
:1046800004D005EB49130822C3F808291AF0100FCB
:1046900004D005EB49131022C3F808291AF0400F83
:1046A00004D005EB49134022C3F808291AF0020F81
:1046B00040D11AF0800F59D109F101094FEA580889
:1046C000B8F1000F3FF4F0AE18F0010FF4D05FFA2C
:1046D00089FB5946206802F001F9824610F0010F6B
:1046E000CCD009F00F03012101FA03F27B6B23EA1E
:1046F00002037B6305EB4913C3F80819A3798B42C6
:10470000B8D109EBC90304EB8303D9691A6A0A44D7
:104710001A62B9F1000FADD109EBC90304EB8303B1
:104720005B6A002BA6D104F29C420121206802F0B2
:104730002FF99FE74946284601F080FC09EBC903A1
:1047400004EB8303DB7D012B05D005EB491302222B
:10475000C3F80829ADE709EBC90304EB8303002282
:10476000DA755946204605F007FBEEE74946204634
:10477000FFF720FBA0E77B6823F001037B6094F840
:10478000CC34012B08D0204605F0EAFA22685369A0
:1047900003F0004353618DE6002184F8CC142046D9
:1047A00000F03FF9F2E7204605F0C2FA8DE67B689B
:1047B00023F001037B601021206801F03FFC1AE028
:1047C00005EB46134FF67F31C3F80819D3F80029DB
:1047D00022F40012C3F80029C3F8081BD3F8002BF9
:1047E00022F40012C3F8002BD3F8002B42F0006231
:1047F000C3F8002B01362379B342E1D8FB6943F0BB
:104800000113FB61E37BDBB1D7F8843043F00B038A
:10481000C7F884307B6C43F00B037B64D5F8003819
:1048200023F4FE63C5F8003804F29C42A1792068A5
:1048300002F0AEF82268536903F48053536150E6E6
:104840007B6943F4005343F02B037B613B6943F0E6
:104850000B033B61E2E7206802F089F8206801F071
:1048600007FDE071266800F0DBFB0146E279304687
:1048700001F066FB204605F046FA2268536903F40E
:104880000053536134E6204605F037FA2268536935
:1048900003F00803536132E601362379B3420CD9A1
:1048A00006EBC60304EB830393F85732012BF3D1D5
:1048B000F1B22046FFF793FDEEE7206801F0F1FF2B
:1048C00010F4801F25D1206801F0EBFF10F4001FC9
:1048D00059D0012326E001362379B3421BD905EBD9
:1048E0004613D3F8002906EBC60304EB83031B7EB3
:1048F000012BF0D1002AEEDA06EBC60304EB8303AA
:104900000122DA7566F07F01C9B22046FFF767FD24
:10491000E1E70126E0E72268536903F4801353615D
:10492000D1E7013322799A4228D905EB4312D2F814
:10493000001B03EBC30204EB820292F85822012A07
:10494000EFD10029EDDA01F48031D4F8D42402F05B
:1049500001029142E5D103EBC30204EB8202012183
:1049600082F85712AA6942F08002AA616A6912F0BD
:10497000800FD6D17B6843F400737B602268536953
:1049800003F400135361206801F08BFF10F0804F97
:1049900010D1206801F085FF10F0040F3FF442AD04
:1049A00023685D6815F0040F0DD1226853682B430E
:1049B000536037E5204605F0E5F92268536903F0B6
:1049C00080435361E5E7204605F0E2F9EDE710B4D6
:1049D0000468606A31B940EA0240A06200205DF8D4
:1049E000044B70478C46A36A00EB1340002308E099
:1049F00003F1400104EB8101496800EB11400133F0
:104A0000DBB20CF1FF318B42F2D340EA02400CF1F1
:104A10003F0104EB81014860E0E703685962002030
:104A200070477047002800F0E08170B582B00446FE
:104A3000036813F0010F3BD09F4B9B6803F00C03FE
:104A4000042B2CD09C4B9B6803F00C03082B21D02B
:104A50006368B3F5803F4FD0B3F5A02F52D0964B8B
:104A60001A6822F480321A601A6822F480221A60CE
:104A70006368002B50D0FDF71BFB05468E4B1B686F
:104A800013F4003F14D1FDF713FB401B6428F5D944
:104A90000320B1E1884B5B6813F4800FD8D0864BBC
:104AA0001B6813F4003F03D06368002B00F09F8164
:104AB000236813F0020F54D07F4B9B6813F00C0F48
:104AC0003ED07D4B9B6803F00C03082B33D0E3688A
:104AD000002B68D0794B01221A60FDF7E9FA0546F0
:104AE000754B1B6813F0020F54D1FDF7E1FA401B20
:104AF0000228F5D903207FE16F4A136843F480331D
:104B00001360B5E76C4B1A6842F480221A601A6889
:104B100042F480321A60ABE7FDF7CAFA0546664BED
:104B20001B6813F4003FC3D0FDF7C2FA401B642892
:104B3000F5D9032060E1604B5B6813F4800FC6D1A8
:104B40005D4B1B6813F0020F03D0E368012B40F0AC
:104B50005081594A136823F0F803216943EAC103DD
:104B60001360236813F0080F42D063696BB3534B93
:104B70000122C3F8802EFDF79BFA05464E4B5B6F72
:104B800013F0020F34D1FDF793FA401B0228F5D938
:104B9000032031E1484A136823F0F803216943EA0E
:104BA000C1031360DDE7454B00221A60FDF780FA70
:104BB0000546414B1B6813F0020FD2D0FDF778FA7F
:104BC000401B0228F5D9032016E13C4B0022C3F814
:104BD000802EFDF76DFA0546374B5B6F13F0020F21
:104BE00006D0FDF765FA401B0228F5D9032003E142
:104BF000236813F0040F77D02F4B1B6C13F0805FEA
:104C000033D1002301932C4B1A6C42F080521A646A
:104C10001B6C03F080530193019B0125284B1B68FB
:104C200013F4807F23D0A368012B34D0052B38D018
:104C3000214B1A6F22F001021A671A6F22F0040248
:104C40001A67A368002B3DD0FDF732FA06461A4BCF
:104C50001B6F13F0020F46D1FDF72AFA801B41F2B9
:104C600088339842F3D90320C6E00025D6E7144ADA
:104C7000136843F480731360FDF71AFA0646104B6D
:104C80001B6813F4807FCED1FDF712FA801B022837
:104C9000F5D90320B0E0084A136F43F0010313670E
:104CA000CFE7054B1A6F42F004021A671A6F42F001
:104CB00001021A67C5E700BF003802400000474202
:104CC00000700040FDF7F4F90646524B1B6F13F0DD
:104CD000020F08D0FDF7ECF9801B41F288339842AF
:104CE000F3D9032088E0EDB9A369002B00F083809D
:104CF000484A926802F00C02082A51D0022B17D0C1
:104D0000454B00221A66FDF7D3F90446414B1B6858
:104D100013F0007F42D0FDF7CBF9001B0228F5D934
:104D2000032069E03B4A136C23F080531364DBE7F4
:104D3000394B00221A66FDF7BBF90546354B1B6857
:104D400013F0007F06D0FDF7B3F9401B0228F5D918
:104D5000032051E0E369226A1343626A43EA821343
:104D6000A26A5208013A43EA0243E26A43EA026352
:104D7000284A5360284B01221A66FDF799F9044628
:104D8000244B1B6813F0007F06D1FDF791F9001B3F
:104D90000228F5D903202FE000202DE000202BE091
:104DA000012B2BD01B4B5B6803F48001E26991421D
:104DB00026D103F03F02216A8A4223D1616A47F675
:104DC000C0721A40B2EB811F1ED103F44031A26AB7
:104DD0005208013AB1EB024F18D103F07063E26A56
:104DE000B3EB026F14D1002006E0012070470120D0
:104DF00002E0012000E0002002B070BD0120FBE7CE
:104E00000120F9E70120F7E70120F5E70120F3E7AA
:104E10000120F1E7003802400000474208B5254B69
:104E20009B6803F00C03042B3FD0082B3FD1214B90
:104E30005A6802F03F025B6813F4800F12D01D4BDA
:104E40005968C1F388111C480023A1FB0001FBF73E
:104E5000E3FB184B5B68C3F3014301335B00B0FB1A
:104E6000F3F025E0134B5968C1F3881C4FEA4C114D
:104E7000B1EB0C006EEB0E0E4FEA8E1343EA90631B
:104E80008101091A63EB0E03DB0043EA5173C90089
:104E900011EB0C0C43F10003990200234FEA8C2024
:104EA00041EA9C51FBF7B8FBD3E7034800E0034815
:104EB00008BD00BF00380240001BB7000024F4000A
:104EC000002800F09B8070B50D4604464F4B1B68D0
:104ED00003F007038B4208D2CBB24C4A137013681D
:104EE00003F007038B4240F08B80236813F0020F1E
:104EF00017D013F0040F04D0454A936843F4E053ED
:104F00009360236813F0080F04D0414A936843F478
:104F1000604393603E4A936823F0F003A1680B431B
:104F20009360236813F0010F32D06368012B21D006
:104F30009A1E012A25D9364A126812F0020F61D052
:104F400033498A6822F0030213438B60FDF7B0F8FF
:104F500006462F4B9B6803F00C036268B3EB820F8D
:104F600016D0FDF7A5F8801B41F288339842F0D99E
:104F7000032042E0264A126812F4003FE0D10120EB
:104F80003BE0234A126812F0007FD9D1012034E0BF
:104F90001E4B1B6803F00703AB4207D9EAB21B4B59
:104FA0001A701B6803F00703AB422DD1236813F07E
:104FB000040F06D0164A936823F4E053E1680B43CC
:104FC0009360236813F0080F07D0114A936823F405
:104FD0006043216943EAC1039360FFF71FFF0C4B55
:104FE0009B68C3F303130B4AD35CD8400A4B186089
:104FF0000A4B1868FCF7FEFC002070BD01207047CA
:105000000120FAE70120F8E70120F6E7003C024022
:105010000038024030440108000000200800002051
:10502000014B1868704700BF0000002008B5FFF76B
:10503000F7FF044B9B68C3F38223034AD35CD84039
:1050400008BD00BF003802404044010808B5FFF722
:10505000E7FF044B9B68C3F34233034AD35CD84059
:1050600008BD00BF00380240404401080F23036020
:105070000B4B9A6802F0030242609A6802F0F00259
:1050800082609A6802F4E052C2609B68DB0803F415
:10509000E0530361034B1B6803F007030B60704789
:1050A00000380240003C02402DE9F04782B005463E
:1050B000884617461E46FCF7FBFF0A9B1B1A03EBAC
:1050C0000609FCF7F5FF82462B4B1B68C3F3CB3375
:1050D00009FB03F301932B689C6838EA04030CBFB7
:1050E0004FF0010C4FF0000CBC4540D0B6F1FF3F33
:1050F000F1D0FCF7DDFFA0EB0A0048450AD2B9F178
:10510000000F07D0019A02B14A46019B013B01936F
:105110009146E0E72A68536823F0E00353606B6828
:10512000B3F5827F0BD0AB6AB3F5005F14D00123D7
:1051300085F85130002385F85030032018E0AB6823
:10514000B3F5004F02D0B3F5806FECD12A68136835
:1051500023F040031360E6E72A68136823F4005342
:1051600013602A68136843F400531360DFE70020DC
:1051700002B0BDE8F08700BF0000002070B584B029
:1051800004460D46164600920B4601220221FFF707
:105190008BFFD0B9174B1B68174AA2FB03235B0D8B
:1051A0004FF47A7202FB03F303936368B3F5827FD3
:1051B00011D0039B3BB1039B013B039323689B6886
:1051C00013F0800FF5D104B070BD636D43F0200380
:1051D00063650320F7E700962B46002280212046D6
:1051E000FFF762FF0028EED0636D43F02003636594
:1051F0000320E8E700000020819F5E1600285AD0B7
:1052000010B50446436A33B94368B3F5827F05D0CD
:105210000023C36102E00023036143610023A36212
:1052200094F85130002B40D0022384F8513022688A
:10523000136823F040031360636803F48273A26869
:1052400002F404421343E26802F400621343226949
:1052500002F002021343626902F001021343A269E1
:1052600002F400721343E26902F038021343226A27
:1052700002F080021343A26A02F400522168134331
:105280000B60638B03F00403626A02F01002216872
:1052900013434B602268D36923F40063D361002079
:1052A0006065012384F8513010BD84F850302046E9
:1052B000FCF7ECFAB8E7012070472DE9F04383B022
:1052C0001F460A9D90F85030012B00F016810446CD
:1052D00088469146012380F85030FCF7E9FE0646E7
:1052E00094F85130DBB26268012B0AD0B2F5827FAC
:1052F00040F0F080A268002A40F0F380042B40F0D8
:10530000F280B8F1000F00F0F080B9F1000F00F06A
:10531000EE80002F00F0ED8094F85130DBB2042BCA
:1053200002D0052384F8513000236365C4F8389017
:10533000E787A787C4F83080E786A786236463647D
:1053400023681A6812F0400F03D11A6842F0400235
:105350001A60E368B3F5006F11D063680BB1012FD9
:105360000BD1226B236812781A73236B01332363EA
:10537000E38E9BB2013B9BB2E38601276EE063683C
:105380000BB1012F0BD1226B23681288DA60236BDB
:1053900002332363E38E9BB2013B9BB2E38601277A
:1053A0001BE023689A6812F0010F0ED0E28F92B2D0
:1053B0005AB1DA68A36B1A80A36B0233A363E38F3D
:1053C0009BB2013B9BB2E3870127FCF771FE801B78
:1053D000A84202D3B5F1FF3F1ED1E38E9BB21BB9A9
:1053E000E38F9BB2002B5CD023689A6812F0020F07
:1053F000D7D0E28E92B2002AD3D0002FD1D0226B28
:105400001288DA60236B02332363E38E9BB2013B85
:105410009BB2E3860027C4E7012384F851300320C0
:1054200059E023689A6812F0010F0ED0E28F92B211
:105430005AB1DA68A36B1A70A36B0133A363E38FCD
:105440009BB2013B9BB2E3870127FCF731FE831B34
:10545000AB4202D3B5F1FF3F1ED1EDB1E38E9BB25B
:1054600013B9E38F9BB2E3B123689A6812F0020F7D
:10547000D7D0E28E92B2002AD3D0002FD1D0226BA7
:1054800012781A73236B01332363E38E9BB2013BC3
:105490009BB2E3860027C4E7012384F85130032040
:1054A00019E0324629462046FFF768FE70B9A36826
:1054B00033B901932368DA6801929B680193019BD9
:1054C000636DC3B9012384F8513004E02023636580
:1054D000012000E00220002384F8503003B0BDE832
:1054E000F0830220F7E70220F5E70120F3E701202F
:1054F000F1E70120EFE70120EDE70220EEE70000F1
:1055000030B4036A026A22F00102026242688469CE
:1055100024F073040D682C4323F0020C8B6843EADB
:105520000C03104DA84203D005F58065A84205D1B3
:1055300023F00803CD682B4323F00403094DA84250
:1055400003D005F58065A84205D122F440724D696B
:105550002A438D692A43426084614A684263036238
:1055600030BC70470000014030B4036A026A22F484
:10557000807202624268C46924F0730C0C6844EAC9
:105580000C0523F400738C6843EA0423114CA042F9
:1055900003D004F58064A04206D123F40063CC68F4
:1055A00043EA042323F480630A4CA04203D004F5A9
:1055B0008064A04207D122F440524C6942EA0412AE
:1055C0008C6942EA04124260C5614A68C2630362A0
:1055D00030BC70470000014030B4036A026A22F414
:1055E000805202624468C26922F4E6420D6842EACF
:1055F000052223F400538D6843EA0533094DA84280
:1056000003D005F58065A84204D124F480444D6997
:1056100044EA85144460C2614A680264036230BC93
:10562000704700BF0000014010B4036A046A24F010
:1056300001040462846924F0F00C4CEA021223F0A5
:105640000A030B43826103625DF8044B704710B498
:10565000036A046A24F010040462846924F4704C20
:105660004CEA023223F0A00343EA01138261036291
:105670005DF8044B7047836823F070030B4343F0DD
:10568000070383607047000090F83D30DBB2012BC8
:1056900037D1022380F83D300268D36843F001031C
:1056A000D3600368194A934220D0B3F1804F1DD0D4
:1056B000A2F57C42934219D002F58062934215D044
:1056C00002F58062934211D002F5784293420DD0E8
:1056D00002F57052934209D0A2F59432934205D05C
:1056E0001A6842F001021A60002070479A6802F0BE
:1056F0000702062A07D01A6842F001021A60002049
:105700007047012070470020704700BF0000014033
:105710007047704770477047704770B5044603681C
:10572000DE681D6915F0020F10D016F0020F0DD0C3
:105730006FF002021A610123037703689B6913F07B
:10574000030F5ED0FFF7E6FF0023237715F0040F69
:1057500012D016F0040F0FD023686FF004021A6104
:105760000223237723689B6913F4407F4FD02046A0
:10577000FFF7D0FF0023237715F0080F12D016F0A3
:10578000080F0FD023686FF008021A6104232377F3
:105790002368DB6913F0030F40D02046FFF7BAFF00
:1057A0000023237715F0100F12D016F0100F0FD032
:1057B00023686FF010021A61082323772368DB69DE
:1057C00013F4407F31D02046FFF7A4FF0023237756
:1057D00015F0010F02D016F0010F2DD115F0800F3A
:1057E00002D016F0800F2FD115F0400F02D016F026
:1057F000400F31D115F0200F02D016F0200F33D119
:1058000070BDFFF786FF2046FFF785FF9CE7204627
:10581000FFF77FFF2046FFF77EFFABE72046FFF74D
:1058200078FF2046FFF777FFBAE72046FFF771FFC2
:105830002046FFF770FFC9E723686FF001021A6185
:105840002046FBF763FFC9E723686FF080021A6107
:10585000204600F04EFAC7E723686FF040021A6155
:105860002046FFF759FFC5E723686FF020021A6151
:10587000204600F03DFAC3E70368344A904212D054
:10588000B0F1804F0FD0A2F57C4290420BD002F5D0
:105890008062904207D002F58062904203D002F508
:1058A0007842904203D123F070034A681343274A99
:1058B00090422AD0B0F1804F27D0A2F57C4290428E
:1058C00023D002F5806290421FD002F580629042A0
:1058D0001BD002F57842904217D002F570529042E8
:1058E00013D002F5806290420FD002F580629042A0
:1058F0000BD0A2F59832904207D002F58062904218
:1059000003D002F58062904203D123F44073CA6849
:10591000134323F080034A69134303608B68C36217
:105920000B688362094B984203D003F58063984269
:1059300001D10B69036301234361036913F0010F74
:1059400003D0036923F001030361704700000140A5
:1059500040B310B5044690F83D30F3B1022384F80B
:105960003D30214651F8040BFFF786FF012384F8F0
:10597000463084F83E3084F83F3084F8403084F874
:10598000413084F8423084F8433084F8443084F85D
:10599000453084F83D30002010BD80F83C30FCF7E5
:1059A0000FF9DBE70120704740B310B5044690F8CB
:1059B0003D30F3B1022384F83D30214651F8040B09
:1059C000FFF75AFF012384F8463084F83E3084F80C
:1059D0003F3084F8403084F8413084F8423084F815
:1059E000433084F8443084F8453084F83D3000205A
:1059F00010BD80F83C30FFF78BFEDBE701207047DD
:105A000030B4036A026A22F01002026244688269BA
:105A100022F4E6420D6842EA052223F020038D6855
:105A200043EA0513114DA84203D005F58065A8424D
:105A300006D123F08003CD6843EA051323F0400329
:105A40000A4DA84203D005F58065A84207D124F489
:105A500040644D6944EA85048D6944EA85044460E4
:105A600082614A688263036230BC70470000014073
:105A700038B590F83C30012B66D004460D46012322
:105A800080F83C300C2A5AD8DFE802F007595959FF
:105A90001B5959593059595944000068FFF730FDD6
:105AA0002268936943F0080393612268936923F0A5
:105AB000040393612268936929690B439361002071
:105AC0003EE00068FFF79CFF2268936943F400639F
:105AD00093612268936923F48063936122689369D8
:105AE000296943EA01239361002029E00068FFF758
:105AF0003BFD2268D36943F00803D3612268D36970
:105B000023F00403D3612268D36929690B43D3616D
